{
  "_format": "hh-sol-artifact-1",
  "contractName": "SquidMulticall",
  "sourceName": "contracts/SquidMulticall.sol",
  "abi": [
    {
      "inputs": [],
      "name": "AlreadyRunning",
      "type": "error"
    },
    {
      "inputs": [
        {
          "internalType": "uint256",
          "name": "callPosition",
          "type": "uint256"
        },
        {
          "internalType": "bytes",
          "name": "reason",
          "type": "bytes"
        }
      ],
      "name": "CallFailed",
      "type": "error"
    },
    {
      "inputs": [],
      "name": "TransferFailed",
      "type": "error"
    },
    {
      "inputs": [
        {
          "internalType": "address",
          "name": "",
          "type": "address"
        },
        {
          "internalType": "address",
          "name": "",
          "type": "address"
        },
        {
          "internalType": "uint256[]",
          "name": "",
          "type": "uint256[]"
        },
        {
          "internalType": "uint256[]",
          "name": "",
          "type": "uint256[]"
        },
        {
          "internalType": "bytes",
          "name": "",
          "type": "bytes"
        }
      ],
      "name": "onERC1155BatchReceived",
      "outputs": [
        {
          "internalType": "bytes4",
          "name": "",
          "type": "bytes4"
        }
      ],
      "stateMutability": "pure",
      "type": "function"
    },
    {
      "inputs": [
        {
          "internalType": "address",
          "name": "",
          "type": "address"
        },
        {
          "internalType": "address",
          "name": "",
          "type": "address"
        },
        {
          "internalType": "uint256",
          "name": "",
          "type": "uint256"
        },
        {
          "internalType": "uint256",
          "name": "",
          "type": "uint256"
        },
        {
          "internalType": "bytes",
          "name": "",
          "type": "bytes"
        }
      ],
      "name": "onERC1155Received",
      "outputs": [
        {
          "internalType": "bytes4",
          "name": "",
          "type": "bytes4"
        }
      ],
      "stateMutability": "pure",
      "type": "function"
    },
    {
      "inputs": [
        {
          "internalType": "address",
          "name": "",
          "type": "address"
        },
        {
          "internalType": "address",
          "name": "",
          "type": "address"
        },
        {
          "internalType": "uint256",
          "name": "",
          "type": "uint256"
        },
        {
          "internalType": "bytes",
          "name": "",
          "type": "bytes"
        }
      ],
      "name": "onERC721Received",
      "outputs": [
        {
          "internalType": "bytes4",
          "name": "",
          "type": "bytes4"
        }
      ],
      "stateMutability": "pure",
      "type": "function"
    },
    {
      "inputs": [
        {
          "components": [
            {
              "internalType": "enum ISquidMulticall.CallType",
              "name": "callType",
              "type": "uint8"
            },
            {
              "internalType": "address",
              "name": "target",
              "type": "address"
            },
            {
              "internalType": "uint256",
              "name": "value",
              "type": "uint256"
            },
            {
              "internalType": "bytes",
              "name": "callData",
              "type": "bytes"
            },
            {
              "internalType": "bytes",
              "name": "payload",
              "type": "bytes"
            }
          ],
          "internalType": "struct ISquidMulticall.Call[]",
          "name": "calls",
          "type": "tuple[]"
        }
      ],
      "name": "run",
      "outputs": [],
      "stateMutability": "payable",
      "type": "function"
    },
    {
      "inputs": [
        {
          "internalType": "bytes4",
          "name": "interfaceId",
          "type": "bytes4"
        }
      ],
      "name": "supportsInterface",
      "outputs": [
        {
          "internalType": "bool",
          "name": "",
          "type": "bool"
        }
      ],
      "stateMutability": "pure",
      "type": "function"
    },
    {
      "stateMutability": "payable",
      "type": "receive"
    }
  ],
  "bytecode": "0x60808060405234610016576108bb908161001c8239f35b600080fdfe6080604052600436101561001b575b361561001957600080fd5b005b6000803560e01c90816301ffc9a71461006e57508063150b7a0214610069578063bc197c8114610064578063f23a6e611461005f5763f87ef8000361000e576102a6565b61024c565b6101bd565b610133565b346100e05760203660031901126100e0576004359063ffffffff60e01b82168092036100e05750630271189760e51b81149081156100cf575b81156100be575b501515608052607f1960a0016080f35b6301ffc9a760e01b149050816100ae565b630a85bd0160e11b811491506100a7565b80fd5b6001600160a01b038116036100f457565b600080fd5b3590610104826100e3565b565b9181601f840112156100f4578235916001600160401b0383116100f457602083818601950101116100f457565b346100f45760803660031901126100f45761014f6004356100e3565b61015a6024356100e3565b6064356001600160401b0381116100f457610179903690600401610106565b5050604051630a85bd0160e11b8152602090f35b9181601f840112156100f4578235916001600160401b0383116100f4576020808501948460051b0101116100f457565b346100f45760a03660031901126100f4576101d96004356100e3565b6101e46024356100e3565b6001600160401b036044358181116100f45761020490369060040161018d565b50506064358181116100f45761021e90369060040161018d565b50506084359081116100f457610238903690600401610106565b505060405163bc197c8160e01b8152602090f35b346100f45760a03660031901126100f4576102686004356100e3565b6102736024356100e3565b6084356001600160401b0381116100f457610292903690600401610106565b505060405163f23a6e6160e01b8152602090f35b6020806003193601126100f45760049081356001600160401b0381116100f4576102d3903690840161018d565b9290916000936102e4855460ff1690565b610519576102fa600160ff196000541617600055565b845b818110610316578561031360ff1960005416600055565b80f35b61032961032482848861054f565b610640565b60018151610336816106c7565b61033f816106c7565b036104445761035a608082015185808251830101910161071a565b6040516370a0823160e01b815230888201908152909287918491908290819060200103916001600160a01b03165afa90811561043f576103ac928a92610410575b50606084015160249160051b010152565b80840151879081906001600160a01b031692604093606085830151920151918883519301915af1906103dc610739565b91156103f25750506103ed9061052a565b6102fc565b51635c0dee5d60e01b815291829161040c91838801610769565b0390fd5b610431919250873d8911610438575b61042981836105bd565b8101906106ff565b903861039b565b503d61041f565b61070e565b60028151610451816106c7565b61045a816106c7565b0361046a574760408201526103ac565b60038151610477816106c7565b610480816106c7565b036103ac5761049e60806104aa9201518580825183010191016106e7565b6001600160a01b031690565b6040516370a0823160e01b81523386820190815291929185908290819060200103816001600160a01b0387165afa801561043f576103ed936104f5928a926104fa575b5033906107d2565b61052a565b610512919250873d89116104385761042981836105bd565b90386104ed565b60405163e4455ead60e01b81528390fd5b60001981146105395760010190565b634e487b7160e01b600052601160045260246000fd5b91908110156105715760051b81013590609e19813603018212156100f4570190565b634e487b7160e01b600052603260045260246000fd5b634e487b7160e01b600052604160045260246000fd5b60a081019081106001600160401b038211176105b857604052565b610587565b90601f801991011681019081106001600160401b038211176105b857604052565b6001600160401b0381116105b857601f01601f191660200190565b81601f820112156100f457803590610610826105de565b9261061e60405194856105bd565b828452602083830101116100f457816000926020809301838601378301015290565b60a0813603126100f457604051906106578261059d565b803560048110156100f4578252610670602082016100f9565b6020830152604081013560408301526060810135906001600160401b03918281116100f4576106a290369083016105f9565b606084015260808101359182116100f4576106bf913691016105f9565b608082015290565b600411156106d157565b634e487b7160e01b600052602160045260246000fd5b908160209103126100f457516106fc816100e3565b90565b908160209103126100f4575190565b6040513d6000823e3d90fd5b91908260409103126100f45760208251610733816100e3565b92015190565b3d15610764573d9061074a826105de565b9161075860405193846105bd565b82523d6000602084013e565b606090565b90929192815260209260408483015280519081604084015260005b8281106107a657505060609293506000838284010152601f8019910116010190565b818101860151848201606001528501610784565b908160209103126100f4575180151581036100f45790565b6040516323b872dd60e01b602082019081526001600160a01b0390931660248201523060448201526064808201949094529283529160009182916108158161059d565b519082855af1610823610739565b81610856575b501590811561084c575b5061083a57565b6040516312171d8360e31b8152600490fd5b90503b1538610833565b805180159250821561086b575b505038610829565b61087e92506020809183010191016107ba565b388061086356fea2646970667358221220739cd25e7345476811677d5d7bd18922dbaa88553aaf41f336adeb537ee8fb2064736f6c63430008130033",
  "linkReferences": {},
  "deployedLinkReferences": {}
}