{"contracts/AxelarForecallable.sol":{"AxelarForecallable":{"abi":[{"inputs":[{"internalType":"address","name":"gateway_","type":"address"}],"stateMutability":"nonpayable","type":"constructor"},{"inputs":[],"name":"AlreadyForecalled","type":"error"},{"inputs":[],"name":"InvalidAddress","type":"error"},{"inputs":[],"name":"NotApprovedByGateway","type":"error"},{"inputs":[],"name":"TransferFailed","type":"error"},{"inputs":[],"name":"FORECALLERS_SALT","outputs":[{"internalType":"uint256","name":"","type":"uint256"}],"stateMutability":"view","type":"function"},{"inputs":[{"internalType":"uint256","name":"amount","type":"uint256"},{"internalType":"bytes","name":"","type":"bytes"}],"name":"amountPostFee","outputs":[{"internalType":"uint256","name":"","type":"uint256"}],"stateMutability":"nonpayable","type":"function"},{"inputs":[{"internalType":"bytes32","name":"commandId","type":"bytes32"},{"internalType":"string","name":"sourceChain","type":"string"},{"internalType":"string","name":"sourceAddress","type":"string"},{"internalType":"bytes","name":"payload","type":"bytes"}],"name":"execute","outputs":[],"stateMutability":"nonpayable","type":"function"},{"inputs":[{"internalType":"bytes32","name":"commandId","type":"bytes32"},{"internalType":"string","name":"sourceChain","type":"string"},{"internalType":"string","name":"sourceAddress","type":"string"},{"internalType":"bytes","name":"payload","type":"bytes"},{"internalType":"string","name":"tokenSymbol","type":"string"},{"internalType":"uint256","name":"amount","type":"uint256"}],"name":"executeWithToken","outputs":[],"stateMutability":"nonpayable","type":"function"},{"inputs":[{"internalType":"string","name":"sourceChain","type":"string"},{"internalType":"string","name":"sourceAddress","type":"string"},{"internalType":"bytes","name":"payload","type":"bytes"}],"name":"forecall","outputs":[],"stateMutability":"nonpayable","type":"function"},{"inputs":[{"internalType":"string","name":"sourceChain","type":"string"},{"internalType":"string","name":"sourceAddress","type":"string"},{"internalType":"bytes","name":"payload","type":"bytes"},{"internalType":"string","name":"tokenSymbol","type":"string"},{"internalType":"uint256","name":"amount","type":"uint256"}],"name":"forecallWithToken","outputs":[],"stateMutability":"nonpayable","type":"function"},{"inputs":[],"name":"gateway","outputs":[{"internalType":"contract IAxelarGateway","name":"","type":"address"}],"stateMutability":"view","type":"function"},{"inputs":[{"internalType":"string","name":"sourceChain","type":"string"},{"internalType":"string","name":"sourceAddress","type":"string"},{"internalType":"bytes","name":"payload","type":"bytes"}],"name":"getForecaller","outputs":[{"internalType":"address","name":"forecaller","type":"address"}],"stateMutability":"view","type":"function"},{"inputs":[{"internalType":"string","name":"sourceChain","type":"string"},{"internalType":"string","name":"sourceAddress","type":"string"},{"internalType":"bytes","name":"payload","type":"bytes"},{"internalType":"string","name":"symbol","type":"string"},{"internalType":"uint256","name":"amount","type":"uint256"}],"name":"getForecallerWithToken","outputs":[{"internalType":"address","name":"forecaller","type":"address"}],"stateMutability":"view","type":"function"}],"evm":{"bytecode":{"linkReferences":{},"object":"60a03461009957601f610c8038819003918201601f19168301916001600160401b0383118484101761009e5780849260209460405283398101031261009957516001600160a01b0381169081900361009957801561008757608052604051610bcb90816100b5823960805181818161010e015281816103b8015281816105e501526107e90152f35b60405163e6c4247b60e01b8152600490fd5b600080fd5b634e487b7160e01b600052604160045260246000fdfe6040608081526004908136101561001557600080fd5b600091823560e01c90816309cc027b146108415781630d38218a14610818578163116191b6146107d45781631a98b2e0146104d15781633ca2fd8e1461049057816349160658146102e9578163d02244341461029d578163e888e86c146100bb575063facd28a91461008657600080fd5b346100b7576020906100a661009a3661091c565b94939093929192610a2a565b90516001600160a01b039091168152f35b5080fd5b91905034610299576100cc36610898565b96979890959981959295949394516349ad89fb60e11b81526020828201528c816100fa602482018b8b610981565b6001600160a01b03939160209183919003817f000000000000000000000000000000000000000000000000000000000000000087165afa91821561028e579161025f575b5083516323b872dd60e01b602082015233602482015230604482015260648082018c9052815260a081016001600160401b0381118282101761024b578f918291875260208151910182855af1610192610b45565b8161021c575b5015908115610212575b50610203576101bb8989898f8f8f8c928b918d93610b05565b166101f55750916101de9593916101ec98979593519a8b9860208a019b8c610ab7565b03601f1981018452836109f3565b33915190205580f35b905163035b7d5560e41b8152fd5b5090516312171d8360e31b8152fd5b90503b15386101a2565b8051801592508215610231575b505038610198565b6102449250602080918301019101610a9f565b3880610229565b50634e487b7160e01b8f526041845260248ffd5b610281915060203d602011610287575b61027981836109f3565b810190610b26565b3861013e565b503d61026f565b8551903d90823e3d90fd5b8280fd5b91905034610299576102ae3661091c565b93949590929660018060a01b036102c98686868c8b8d610a2a565b166101f55750916101ec9493916101de93519788956020870198896109a2565b8383346100b757600319608036820112610299576001600160401b039060243582811161048c5761031d9036908701610866565b9093604435848111610488576103369036908901610866565b939094606435908111610484576103509036908a01610866565b9161035c368484610a68565b60208151910120906103a0855191635f6970c360e01b83528c358d8401526080602484015261038f60848401898d610981565b90838203016044840152888a610981565b9160648201526020818060018060a01b039403818d867f0000000000000000000000000000000000000000000000000000000000000000165af190811561047a578a9161044c575b501561043c578899506103ff8383888a898d610a2a565b16156104315761042a9461041c935196879560208701998a6109a2565b03601f1981018352826109f3565b5190205580f35b505050505050505080f35b8351631403112d60e21b81528a90fd5b61046d915060203d8111610473575b61046581836109f3565b810190610a9f565b8b6103e8565b503d61045b565b85513d8c823e3d90fd5b8780fd5b8680fd5b8480fd5b91905034610299578060031936011261029957602435926001600160401b0384116104ce57506104c560209336908401610866565b50505190358152f35b80fd5b919050346102995760c0366003190112610299576001600160401b0360243581811161048c576105049036908501610866565b91856044358281116100b75761051d9036908801610866565b92906064358281116107d0576105369036908a01610866565b969095608435908482116107cc578a916105539036908401610866565b9390993661056290828c610a68565b998b8d8c516020809e0120905196631876eed960e01b88528035908801526024870160c0905260c48701610597908688610981565b8781036003190160448901526105ae908d8b610981565b906064880152876003198883030160848901526105ca92610981565b9460a435998a60a4830152600160a01b60019003918d8180857f0000000000000000000000000000000000000000000000000000000000000000169a0381858c5af19182156107bf57916107a2575b501561079257908f949392916106388b8f8a908f8688918f8b8d610b05565b169a8b1561077f578a8f8f8f9b958c9561041c9561065f988e95519a8b998a019c8d610ab7565b51902055828a6106888b519a8b95869485946349ad89fb60e11b86528501526024840191610981565b03915afa948515610775578895610756575b508551918483019363a9059cbb60e01b8552602484015260448301526044825260808201908282109082111761074357855251869182919082865af1906106df610b45565b82610711575b505015908115610707575b506106fa57505080f35b516312171d8360e31b8152fd5b90503b15386106f0565b809192505191821592831561072b575b50505038806106e5565b61073b9350820181019101610a9f565b388080610721565b634e487b7160e01b885260418752602488fd5b61076e919550843d86116102875761027981836109f3565b933861069a565b86513d8a823e3d90fd5b5050505050505050505050505050505080f35b8d51631403112d60e21b81528f90fd5b6107b991508d803d106104735761046581836109f3565b38610619565b90508f51903d90823e3d90fd5b8580fd5b8380fd5b5050346100b757816003193601126100b757517f00000000000000000000000000000000000000000000000000000000000000006001600160a01b03168152602090f35b5050346100b757816003193601126100b75760209051600080516020610b768339815191528152f35b5050346100b7576020906100a661085736610898565b97969096959195949294610b05565b9181601f84011215610893578235916001600160401b038311610893576020838186019501011161089357565b600080fd5b60a0600319820112610893576001600160401b039060043582811161089357816108c491600401610866565b9390939260243581811161089357836108df91600401610866565b9390939260443583811161089357826108fa91600401610866565b939093926064359182116108935761091491600401610866565b909160843590565b906060600319830112610893576001600160401b03600435818111610893578361094891600401610866565b93909392602435838111610893578261096391600401610866565b939093926044359182116108935761097d91600401610866565b9091565b908060209392818452848401376000828201840152601f01601f1916010190565b9695906109ee936060956109d26109e093600080516020610b76833981519152999660808d5260808d0191610981565b918a830360208c0152610981565b918783036040890152610981565b930152565b90601f801991011681019081106001600160401b03821117610a1457604052565b634e487b7160e01b600052604160045260246000fd5b9461041c919294610a469460405196879560208701998a6109a2565b5190205490565b6001600160401b038111610a1457601f01601f191660200190565b929192610a7482610a4d565b91610a8260405193846109f3565b829481845281830111610893578281602093846000960137010152565b90816020910312610893575180151581036108935790565b956109e0600080516020610b76833981519152999460a099966109d2610afb99959d9e9d610aed9760c08d5260c08d0191610981565b918483036060860152610981565b9460808201520152565b97929461041c94610a46979296989398604051998a9860208a019c8d610ab7565b9081602091031261089357516001600160a01b03811681036108935790565b3d15610b70573d90610b5682610a4d565b91610b6460405193846109f3565b82523d6000602084013e565b60609056fedb79ee324babd8834c3c1a1a2739c004fce73b812ac9f637241ff47b19e4b71fa264697066735822122024a4c80ed1a6540a3804c0adf609e686441c07e5b5223b1b4fe7c97addb6d89464736f6c63430008130033","opcodes":"PUSH1 0xA0 CALLVALUE PUSH2 0x99 JUMPI PUSH1 0x1F PUSH2 0xC80 CODESIZE DUP2 SWAP1 SUB SWAP2 DUP3 ADD PUSH1 0x1F NOT AND DUP4 ADD SWAP2 PUSH1 0x1 PUSH1 0x1 PUSH1 0x40 SHL SUB DUP4 GT DUP5 DUP5 LT OR PUSH2 0x9E JUMPI DUP1 DUP5 SWAP3 PUSH1 0x20 SWAP5 PUSH1 0x40 MSTORE DUP4 CODECOPY DUP2 ADD SUB SLT PUSH2 0x99 JUMPI MLOAD PUSH1 0x1 PUSH1 0x1 PUSH1 0xA0 SHL SUB DUP2 AND SWAP1 DUP2 SWAP1 SUB PUSH2 0x99 JUMPI DUP1 ISZERO PUSH2 0x87 JUMPI PUSH1 0x80 MSTORE PUSH1 0x40 MLOAD PUSH2 0xBCB SWAP1 DUP2 PUSH2 0xB5 DUP3 CODECOPY PUSH1 0x80 MLOAD DUP2 DUP2 DUP2 PUSH2 0x10E ADD MSTORE DUP2 DUP2 PUSH2 0x3B8 ADD MSTORE DUP2 DUP2 PUSH2 0x5E5 ADD MSTORE PUSH2 0x7E9 ADD MSTORE RETURN JUMPDEST PUSH1 0x40 MLOAD PUSH4 0xE6C4247B PUSH1 0xE0 SHL DUP2 MSTORE PUSH1 0x4 SWAP1 REVERT JUMPDEST PUSH1 0x0 DUP1 REVERT JUMPDEST PUSH4 0x4E487B71 PUSH1 0xE0 SHL PUSH1 0x0 MSTORE PUSH1 0x41 PUSH1 0x4 MSTORE PUSH1 0x24 PUSH1 0x0 REVERT INVALID PUSH1 0x40 PUSH1 0x80 DUP2 MSTORE PUSH1 0x4 SWAP1 DUP2 CALLDATASIZE LT ISZERO PUSH2 0x15 JUMPI PUSH1 0x0 DUP1 REVERT JUMPDEST PUSH1 0x0 SWAP2 DUP3 CALLDATALOAD PUSH1 0xE0 SHR SWAP1 DUP2 PUSH4 0x9CC027B EQ PUSH2 0x841 JUMPI DUP2 PUSH4 0xD38218A EQ PUSH2 0x818 JUMPI DUP2 PUSH4 0x116191B6 EQ PUSH2 0x7D4 JUMPI DUP2 PUSH4 0x1A98B2E0 EQ PUSH2 0x4D1 JUMPI DUP2 PUSH4 0x3CA2FD8E EQ PUSH2 0x490 JUMPI DUP2 PUSH4 0x49160658 EQ PUSH2 0x2E9 JUMPI DUP2 PUSH4 0xD0224434 EQ PUSH2 0x29D JUMPI DUP2 PUSH4 0xE888E86C EQ PUSH2 0xBB JUMPI POP PUSH4 0xFACD28A9 EQ PUSH2 0x86 JUMPI PUSH1 0x0 DUP1 REVERT JUMPDEST CALLVALUE PUSH2 0xB7 JUMPI PUSH1 0x20 SWAP1 PUSH2 0xA6 PUSH2 0x9A CALLDATASIZE PUSH2 0x91C JUMP JUMPDEST SWAP5 SWAP4 SWAP1 SWAP4 SWAP3 SWAP2 SWAP3 PUSH2 0xA2A JUMP JUMPDEST SWAP1 MLOAD PUSH1 0x1 PUSH1 0x1 PUSH1 0xA0 SHL SUB SWAP1 SWAP2 AND DUP2 MSTORE RETURN JUMPDEST POP DUP1 REVERT JUMPDEST SWAP2 SWAP1 POP CALLVALUE PUSH2 0x299 JUMPI PUSH2 0xCC CALLDATASIZE PUSH2 0x898 JUMP JUMPDEST SWAP7 SWAP8 SWAP9 SWAP1 SWAP6 SWAP10 DUP2 SWAP6 SWAP3 SWAP6 SWAP5 SWAP4 SWAP5 MLOAD PUSH4 0x49AD89FB PUSH1 0xE1 SHL DUP2 MSTORE PUSH1 0x20 DUP3 DUP3 ADD MSTORE DUP13 DUP2 PUSH2 0xFA PUSH1 0x24 DUP3 ADD DUP12 DUP12 PUSH2 0x981 JUMP JUMPDEST PUSH1 0x1 PUSH1 0x1 PUSH1 0xA0 SHL SUB SWAP4 SWAP2 PUSH1 0x20 SWAP2 DUP4 SWAP2 SWAP1 SUB DUP2 PUSH32 0x0 DUP8 AND GAS STATICCALL SWAP2 DUP3 ISZERO PUSH2 0x28E JUMPI SWAP2 PUSH2 0x25F JUMPI JUMPDEST POP DUP4 MLOAD PUSH4 0x23B872DD PUSH1 0xE0 SHL PUSH1 0x20 DUP3 ADD MSTORE CALLER PUSH1 0x24 DUP3 ADD MSTORE ADDRESS PUSH1 0x44 DUP3 ADD MSTORE PUSH1 0x64 DUP1 DUP3 ADD DUP13 SWAP1 MSTORE DUP2 MSTORE PUSH1 0xA0 DUP2 ADD PUSH1 0x1 PUSH1 0x1 PUSH1 0x40 SHL SUB DUP2 GT DUP3 DUP3 LT OR PUSH2 0x24B JUMPI DUP16 SWAP2 DUP3 SWAP2 DUP8 MSTORE PUSH1 0x20 DUP2 MLOAD SWAP2 ADD DUP3 DUP6 GAS CALL PUSH2 0x192 PUSH2 0xB45 JUMP JUMPDEST DUP2 PUSH2 0x21C JUMPI JUMPDEST POP ISZERO SWAP1 DUP2 ISZERO PUSH2 0x212 JUMPI JUMPDEST POP PUSH2 0x203 JUMPI PUSH2 0x1BB DUP10 DUP10 DUP10 DUP16 DUP16 DUP16 DUP13 SWAP3 DUP12 SWAP2 DUP14 SWAP4 PUSH2 0xB05 JUMP JUMPDEST AND PUSH2 0x1F5 JUMPI POP SWAP2 PUSH2 0x1DE SWAP6 SWAP4 SWAP2 PUSH2 0x1EC SWAP9 SWAP8 SWAP6 SWAP4 MLOAD SWAP11 DUP12 SWAP9 PUSH1 0x20 DUP11 ADD SWAP12 DUP13 PUSH2 0xAB7 JUMP JUMPDEST SUB PUSH1 0x1F NOT DUP2 ADD DUP5 MSTORE DUP4 PUSH2 0x9F3 JUMP JUMPDEST CALLER SWAP2 MLOAD SWAP1 KECCAK256 SSTORE DUP1 RETURN JUMPDEST SWAP1 MLOAD PUSH4 0x35B7D55 PUSH1 0xE4 SHL DUP2 MSTORE REVERT JUMPDEST POP SWAP1 MLOAD PUSH4 0x12171D83 PUSH1 0xE3 SHL DUP2 MSTORE REVERT JUMPDEST SWAP1 POP EXTCODESIZE ISZERO CODESIZE PUSH2 0x1A2 JUMP JUMPDEST DUP1 MLOAD DUP1 ISZERO SWAP3 POP DUP3 ISZERO PUSH2 0x231 JUMPI JUMPDEST POP POP CODESIZE PUSH2 0x198 JUMP JUMPDEST PUSH2 0x244 SWAP3 POP PUSH1 0x20 DUP1 SWAP2 DUP4 ADD ADD SWAP2 ADD PUSH2 0xA9F JUMP JUMPDEST CODESIZE DUP1 PUSH2 0x229 JUMP JUMPDEST POP PUSH4 0x4E487B71 PUSH1 0xE0 SHL DUP16 MSTORE PUSH1 0x41 DUP5 MSTORE PUSH1 0x24 DUP16 REVERT JUMPDEST PUSH2 0x281 SWAP2 POP PUSH1 0x20 RETURNDATASIZE PUSH1 0x20 GT PUSH2 0x287 JUMPI JUMPDEST PUSH2 0x279 DUP2 DUP4 PUSH2 0x9F3 JUMP JUMPDEST DUP2 ADD SWAP1 PUSH2 0xB26 JUMP JUMPDEST CODESIZE PUSH2 0x13E JUMP JUMPDEST POP RETURNDATASIZE PUSH2 0x26F JUMP JUMPDEST DUP6 MLOAD SWAP1 RETURNDATASIZE SWAP1 DUP3 RETURNDATACOPY RETURNDATASIZE SWAP1 REVERT JUMPDEST DUP3 DUP1 REVERT JUMPDEST SWAP2 SWAP1 POP CALLVALUE PUSH2 0x299 JUMPI PUSH2 0x2AE CALLDATASIZE PUSH2 0x91C JUMP JUMPDEST SWAP4 SWAP5 SWAP6 SWAP1 SWAP3 SWAP7 PUSH1 0x1 DUP1 PUSH1 0xA0 SHL SUB PUSH2 0x2C9 DUP7 DUP7 DUP7 DUP13 DUP12 DUP14 PUSH2 0xA2A JUMP JUMPDEST AND PUSH2 0x1F5 JUMPI POP SWAP2 PUSH2 0x1EC SWAP5 SWAP4 SWAP2 PUSH2 0x1DE SWAP4 MLOAD SWAP8 DUP9 SWAP6 PUSH1 0x20 DUP8 ADD SWAP9 DUP10 PUSH2 0x9A2 JUMP JUMPDEST DUP4 DUP4 CALLVALUE PUSH2 0xB7 JUMPI PUSH1 0x3 NOT PUSH1 0x80 CALLDATASIZE DUP3 ADD SLT PUSH2 0x299 JUMPI PUSH1 0x1 PUSH1 0x1 PUSH1 0x40 SHL SUB SWAP1 PUSH1 0x24 CALLDATALOAD DUP3 DUP2 GT PUSH2 0x48C JUMPI PUSH2 0x31D SWAP1 CALLDATASIZE SWAP1 DUP8 ADD PUSH2 0x866 JUMP JUMPDEST SWAP1 SWAP4 PUSH1 0x44 CALLDATALOAD DUP5 DUP2 GT PUSH2 0x488 JUMPI PUSH2 0x336 SWAP1 CALLDATASIZE SWAP1 DUP10 ADD PUSH2 0x866 JUMP JUMPDEST SWAP4 SWAP1 SWAP5 PUSH1 0x64 CALLDATALOAD SWAP1 DUP2 GT PUSH2 0x484 JUMPI PUSH2 0x350 SWAP1 CALLDATASIZE SWAP1 DUP11 ADD PUSH2 0x866 JUMP JUMPDEST SWAP2 PUSH2 0x35C CALLDATASIZE DUP5 DUP5 PUSH2 0xA68 JUMP JUMPDEST PUSH1 0x20 DUP2 MLOAD SWAP2 ADD KECCAK256 SWAP1 PUSH2 0x3A0 DUP6 MLOAD SWAP2 PUSH4 0x5F6970C3 PUSH1 0xE0 SHL DUP4 MSTORE DUP13 CALLDATALOAD DUP14 DUP5 ADD MSTORE PUSH1 0x80 PUSH1 0x24 DUP5 ADD MSTORE PUSH2 0x38F PUSH1 0x84 DUP5 ADD DUP10 DUP14 PUSH2 0x981 JUMP JUMPDEST SWAP1 DUP4 DUP3 SUB ADD PUSH1 0x44 DUP5 ADD MSTORE DUP9 DUP11 PUSH2 0x981 JUMP JUMPDEST SWAP2 PUSH1 0x64 DUP3 ADD MSTORE PUSH1 0x20 DUP2 DUP1 PUSH1 0x1 DUP1 PUSH1 0xA0 SHL SUB SWAP5 SUB DUP2 DUP14 DUP7 PUSH32 0x0 AND GAS CALL SWAP1 DUP2 ISZERO PUSH2 0x47A JUMPI DUP11 SWAP2 PUSH2 0x44C JUMPI JUMPDEST POP ISZERO PUSH2 0x43C JUMPI DUP9 SWAP10 POP PUSH2 0x3FF DUP4 DUP4 DUP9 DUP11 DUP10 DUP14 PUSH2 0xA2A JUMP JUMPDEST AND ISZERO PUSH2 0x431 JUMPI PUSH2 0x42A SWAP5 PUSH2 0x41C SWAP4 MLOAD SWAP7 DUP8 SWAP6 PUSH1 0x20 DUP8 ADD SWAP10 DUP11 PUSH2 0x9A2 JUMP JUMPDEST SUB PUSH1 0x1F NOT DUP2 ADD DUP4 MSTORE DUP3 PUSH2 0x9F3 JUMP JUMPDEST MLOAD SWAP1 KECCAK256 SSTORE DUP1 RETURN JUMPDEST POP POP POP POP POP POP POP POP DUP1 RETURN JUMPDEST DUP4 MLOAD PUSH4 0x1403112D PUSH1 0xE2 SHL DUP2 MSTORE DUP11 SWAP1 REVERT JUMPDEST PUSH2 0x46D SWAP2 POP PUSH1 0x20 RETURNDATASIZE DUP2 GT PUSH2 0x473 JUMPI JUMPDEST PUSH2 0x465 DUP2 DUP4 PUSH2 0x9F3 JUMP JUMPDEST DUP2 ADD SWAP1 PUSH2 0xA9F JUMP JUMPDEST DUP12 PUSH2 0x3E8 JUMP JUMPDEST POP RETURNDATASIZE PUSH2 0x45B JUMP JUMPDEST DUP6 MLOAD RETURNDATASIZE DUP13 DUP3 RETURNDATACOPY RETURNDATASIZE SWAP1 REVERT JUMPDEST DUP8 DUP1 REVERT JUMPDEST DUP7 DUP1 REVERT JUMPDEST DUP5 DUP1 REVERT JUMPDEST SWAP2 SWAP1 POP CALLVALUE PUSH2 0x299 JUMPI DUP1 PUSH1 0x3 NOT CALLDATASIZE ADD SLT PUSH2 0x299 JUMPI PUSH1 0x24 CALLDATALOAD SWAP3 PUSH1 0x1 PUSH1 0x1 PUSH1 0x40 SHL SUB DUP5 GT PUSH2 0x4CE JUMPI POP PUSH2 0x4C5 PUSH1 0x20 SWAP4 CALLDATASIZE SWAP1 DUP5 ADD PUSH2 0x866 JUMP JUMPDEST POP POP MLOAD SWAP1 CALLDATALOAD DUP2 MSTORE RETURN JUMPDEST DUP1 REVERT JUMPDEST SWAP2 SWAP1 POP CALLVALUE PUSH2 0x299 JUMPI PUSH1 0xC0 CALLDATASIZE PUSH1 0x3 NOT ADD SLT PUSH2 0x299 JUMPI PUSH1 0x1 PUSH1 0x1 PUSH1 0x40 SHL SUB PUSH1 0x24 CALLDATALOAD DUP2 DUP2 GT PUSH2 0x48C JUMPI PUSH2 0x504 SWAP1 CALLDATASIZE SWAP1 DUP6 ADD PUSH2 0x866 JUMP JUMPDEST SWAP2 DUP6 PUSH1 0x44 CALLDATALOAD DUP3 DUP2 GT PUSH2 0xB7 JUMPI PUSH2 0x51D SWAP1 CALLDATASIZE SWAP1 DUP9 ADD PUSH2 0x866 JUMP JUMPDEST SWAP3 SWAP1 PUSH1 0x64 CALLDATALOAD DUP3 DUP2 GT PUSH2 0x7D0 JUMPI PUSH2 0x536 SWAP1 CALLDATASIZE SWAP1 DUP11 ADD PUSH2 0x866 JUMP JUMPDEST SWAP7 SWAP1 SWAP6 PUSH1 0x84 CALLDATALOAD SWAP1 DUP5 DUP3 GT PUSH2 0x7CC JUMPI DUP11 SWAP2 PUSH2 0x553 SWAP1 CALLDATASIZE SWAP1 DUP5 ADD PUSH2 0x866 JUMP JUMPDEST SWAP4 SWAP1 SWAP10 CALLDATASIZE PUSH2 0x562 SWAP1 DUP3 DUP13 PUSH2 0xA68 JUMP JUMPDEST SWAP10 DUP12 DUP14 DUP13 MLOAD PUSH1 0x20 DUP1 SWAP15 ADD KECCAK256 SWAP1 MLOAD SWAP7 PUSH4 0x1876EED9 PUSH1 0xE0 SHL DUP9 MSTORE DUP1 CALLDATALOAD SWAP1 DUP9 ADD MSTORE PUSH1 0x24 DUP8 ADD PUSH1 0xC0 SWAP1 MSTORE PUSH1 0xC4 DUP8 ADD PUSH2 0x597 SWAP1 DUP7 DUP9 PUSH2 0x981 JUMP JUMPDEST DUP8 DUP2 SUB PUSH1 0x3 NOT ADD PUSH1 0x44 DUP10 ADD MSTORE PUSH2 0x5AE SWAP1 DUP14 DUP12 PUSH2 0x981 JUMP JUMPDEST SWAP1 PUSH1 0x64 DUP9 ADD MSTORE DUP8 PUSH1 0x3 NOT DUP9 DUP4 SUB ADD PUSH1 0x84 DUP10 ADD MSTORE PUSH2 0x5CA SWAP3 PUSH2 0x981 JUMP JUMPDEST SWAP5 PUSH1 0xA4 CALLDATALOAD SWAP10 DUP11 PUSH1 0xA4 DUP4 ADD MSTORE PUSH1 0x1 PUSH1 0xA0 SHL PUSH1 0x1 SWAP1 SUB SWAP2 DUP14 DUP2 DUP1 DUP6 PUSH32 0x0 AND SWAP11 SUB DUP2 DUP6 DUP13 GAS CALL SWAP2 DUP3 ISZERO PUSH2 0x7BF JUMPI SWAP2 PUSH2 0x7A2 JUMPI JUMPDEST POP ISZERO PUSH2 0x792 JUMPI SWAP1 DUP16 SWAP5 SWAP4 SWAP3 SWAP2 PUSH2 0x638 DUP12 DUP16 DUP11 SWAP1 DUP16 DUP7 DUP9 SWAP2 DUP16 DUP12 DUP14 PUSH2 0xB05 JUMP JUMPDEST AND SWAP11 DUP12 ISZERO PUSH2 0x77F JUMPI DUP11 DUP16 DUP16 DUP16 SWAP12 SWAP6 DUP13 SWAP6 PUSH2 0x41C SWAP6 PUSH2 0x65F SWAP9 DUP15 SWAP6 MLOAD SWAP11 DUP12 SWAP10 DUP11 ADD SWAP13 DUP14 PUSH2 0xAB7 JUMP JUMPDEST MLOAD SWAP1 KECCAK256 SSTORE DUP3 DUP11 PUSH2 0x688 DUP12 MLOAD SWAP11 DUP12 SWAP6 DUP7 SWAP5 DUP6 SWAP5 PUSH4 0x49AD89FB PUSH1 0xE1 SHL DUP7 MSTORE DUP6 ADD MSTORE PUSH1 0x24 DUP5 ADD SWAP2 PUSH2 0x981 JUMP JUMPDEST SUB SWAP2 GAS STATICCALL SWAP5 DUP6 ISZERO PUSH2 0x775 JUMPI DUP9 SWAP6 PUSH2 0x756 JUMPI JUMPDEST POP DUP6 MLOAD SWAP2 DUP5 DUP4 ADD SWAP4 PUSH4 0xA9059CBB PUSH1 0xE0 SHL DUP6 MSTORE PUSH1 0x24 DUP5 ADD MSTORE PUSH1 0x44 DUP4 ADD MSTORE PUSH1 0x44 DUP3 MSTORE PUSH1 0x80 DUP3 ADD SWAP1 DUP3 DUP3 LT SWAP1 DUP3 GT OR PUSH2 0x743 JUMPI DUP6 MSTORE MLOAD DUP7 SWAP2 DUP3 SWAP2 SWAP1 DUP3 DUP7 GAS CALL SWAP1 PUSH2 0x6DF PUSH2 0xB45 JUMP JUMPDEST DUP3 PUSH2 0x711 JUMPI JUMPDEST POP POP ISZERO SWAP1 DUP2 ISZERO PUSH2 0x707 JUMPI JUMPDEST POP PUSH2 0x6FA JUMPI POP POP DUP1 RETURN JUMPDEST MLOAD PUSH4 0x12171D83 PUSH1 0xE3 SHL DUP2 MSTORE REVERT JUMPDEST SWAP1 POP EXTCODESIZE ISZERO CODESIZE PUSH2 0x6F0 JUMP JUMPDEST DUP1 SWAP2 SWAP3 POP MLOAD SWAP2 DUP3 ISZERO SWAP3 DUP4 ISZERO PUSH2 0x72B JUMPI JUMPDEST POP POP POP CODESIZE DUP1 PUSH2 0x6E5 JUMP JUMPDEST PUSH2 0x73B SWAP4 POP DUP3 ADD DUP2 ADD SWAP2 ADD PUSH2 0xA9F JUMP JUMPDEST CODESIZE DUP1 DUP1 PUSH2 0x721 JUMP JUMPDEST PUSH4 0x4E487B71 PUSH1 0xE0 SHL DUP9 MSTORE PUSH1 0x41 DUP8 MSTORE PUSH1 0x24 DUP9 REVERT JUMPDEST PUSH2 0x76E SWAP2 SWAP6 POP DUP5 RETURNDATASIZE DUP7 GT PUSH2 0x287 JUMPI PUSH2 0x279 DUP2 DUP4 PUSH2 0x9F3 JUMP JUMPDEST SWAP4 CODESIZE PUSH2 0x69A JUMP JUMPDEST DUP7 MLOAD RETURNDATASIZE DUP11 DUP3 RETURNDATACOPY RETURNDATASIZE SWAP1 REVERT JUMPDEST POP POP POP POP POP POP POP POP POP POP POP POP POP POP POP POP DUP1 RETURN JUMPDEST DUP14 MLOAD PUSH4 0x1403112D PUSH1 0xE2 SHL DUP2 MSTORE DUP16 SWAP1 REVERT JUMPDEST PUSH2 0x7B9 SWAP2 POP DUP14 DUP1 RETURNDATASIZE LT PUSH2 0x473 JUMPI PUSH2 0x465 DUP2 DUP4 PUSH2 0x9F3 JUMP JUMPDEST CODESIZE PUSH2 0x619 JUMP JUMPDEST SWAP1 POP DUP16 MLOAD SWAP1 RETURNDATASIZE SWAP1 DUP3 RETURNDATACOPY RETURNDATASIZE SWAP1 REVERT JUMPDEST DUP6 DUP1 REVERT JUMPDEST DUP4 DUP1 REVERT JUMPDEST POP POP CALLVALUE PUSH2 0xB7 JUMPI DUP2 PUSH1 0x3 NOT CALLDATASIZE ADD SLT PUSH2 0xB7 JUMPI MLOAD PUSH32 0x0 PUSH1 0x1 PUSH1 0x1 PUSH1 0xA0 SHL SUB AND DUP2 MSTORE PUSH1 0x20 SWAP1 RETURN JUMPDEST POP POP CALLVALUE PUSH2 0xB7 JUMPI DUP2 PUSH1 0x3 NOT CALLDATASIZE ADD SLT PUSH2 0xB7 JUMPI PUSH1 0x20 SWAP1 MLOAD PUSH1 0x0 DUP1 MLOAD PUSH1 0x20 PUSH2 0xB76 DUP4 CODECOPY DUP2 MLOAD SWAP2 MSTORE DUP2 MSTORE RETURN JUMPDEST POP POP CALLVALUE PUSH2 0xB7 JUMPI PUSH1 0x20 SWAP1 PUSH2 0xA6 PUSH2 0x857 CALLDATASIZE PUSH2 0x898 JUMP JUMPDEST SWAP8 SWAP7 SWAP1 SWAP7 SWAP6 SWAP2 SWAP6 SWAP5 SWAP3 SWAP5 PUSH2 0xB05 JUMP JUMPDEST SWAP2 DUP2 PUSH1 0x1F DUP5 ADD SLT ISZERO PUSH2 0x893 JUMPI DUP3 CALLDATALOAD SWAP2 PUSH1 0x1 PUSH1 0x1 PUSH1 0x40 SHL SUB DUP4 GT PUSH2 0x893 JUMPI PUSH1 0x20 DUP4 DUP2 DUP7 ADD SWAP6 ADD ADD GT PUSH2 0x893 JUMPI JUMP JUMPDEST PUSH1 0x0 DUP1 REVERT JUMPDEST PUSH1 0xA0 PUSH1 0x3 NOT DUP3 ADD SLT PUSH2 0x893 JUMPI PUSH1 0x1 PUSH1 0x1 PUSH1 0x40 SHL SUB SWAP1 PUSH1 0x4 CALLDATALOAD DUP3 DUP2 GT PUSH2 0x893 JUMPI DUP2 PUSH2 0x8C4 SWAP2 PUSH1 0x4 ADD PUSH2 0x866 JUMP JUMPDEST SWAP4 SWAP1 SWAP4 SWAP3 PUSH1 0x24 CALLDATALOAD DUP2 DUP2 GT PUSH2 0x893 JUMPI DUP4 PUSH2 0x8DF SWAP2 PUSH1 0x4 ADD PUSH2 0x866 JUMP JUMPDEST SWAP4 SWAP1 SWAP4 SWAP3 PUSH1 0x44 CALLDATALOAD DUP4 DUP2 GT PUSH2 0x893 JUMPI DUP3 PUSH2 0x8FA SWAP2 PUSH1 0x4 ADD PUSH2 0x866 JUMP JUMPDEST SWAP4 SWAP1 SWAP4 SWAP3 PUSH1 0x64 CALLDATALOAD SWAP2 DUP3 GT PUSH2 0x893 JUMPI PUSH2 0x914 SWAP2 PUSH1 0x4 ADD PUSH2 0x866 JUMP JUMPDEST SWAP1 SWAP2 PUSH1 0x84 CALLDATALOAD SWAP1 JUMP JUMPDEST SWAP1 PUSH1 0x60 PUSH1 0x3 NOT DUP4 ADD SLT PUSH2 0x893 JUMPI PUSH1 0x1 PUSH1 0x1 PUSH1 0x40 SHL SUB PUSH1 0x4 CALLDATALOAD DUP2 DUP2 GT PUSH2 0x893 JUMPI DUP4 PUSH2 0x948 SWAP2 PUSH1 0x4 ADD PUSH2 0x866 JUMP JUMPDEST SWAP4 SWAP1 SWAP4 SWAP3 PUSH1 0x24 CALLDATALOAD DUP4 DUP2 GT PUSH2 0x893 JUMPI DUP3 PUSH2 0x963 SWAP2 PUSH1 0x4 ADD PUSH2 0x866 JUMP JUMPDEST SWAP4 SWAP1 SWAP4 SWAP3 PUSH1 0x44 CALLDATALOAD SWAP2 DUP3 GT PUSH2 0x893 JUMPI PUSH2 0x97D SWAP2 PUSH1 0x4 ADD PUSH2 0x866 JUMP JUMPDEST SWAP1 SWAP2 JUMP JUMPDEST SWAP1 DUP1 PUSH1 0x20 SWAP4 SWAP3 DUP2 DUP5 MSTORE DUP5 DUP5 ADD CALLDATACOPY PUSH1 0x0 DUP3 DUP3 ADD DUP5 ADD MSTORE PUSH1 0x1F ADD PUSH1 0x1F NOT AND ADD ADD SWAP1 JUMP JUMPDEST SWAP7 SWAP6 SWAP1 PUSH2 0x9EE SWAP4 PUSH1 0x60 SWAP6 PUSH2 0x9D2 PUSH2 0x9E0 SWAP4 PUSH1 0x0 DUP1 MLOAD PUSH1 0x20 PUSH2 0xB76 DUP4 CODECOPY DUP2 MLOAD SWAP2 MSTORE SWAP10 SWAP7 PUSH1 0x80 DUP14 MSTORE PUSH1 0x80 DUP14 ADD SWAP2 PUSH2 0x981 JUMP JUMPDEST SWAP2 DUP11 DUP4 SUB PUSH1 0x20 DUP13 ADD MSTORE PUSH2 0x981 JUMP JUMPDEST SWAP2 DUP8 DUP4 SUB PUSH1 0x40 DUP10 ADD MSTORE PUSH2 0x981 JUMP JUMPDEST SWAP4 ADD MSTORE JUMP JUMPDEST SWAP1 PUSH1 0x1F DUP1 NOT SWAP2 ADD AND DUP2 ADD SWAP1 DUP2 LT PUSH1 0x1 PUSH1 0x1 PUSH1 0x40 SHL SUB DUP3 GT OR PUSH2 0xA14 JUMPI PUSH1 0x40 MSTORE JUMP JUMPDEST PUSH4 0x4E487B71 PUSH1 0xE0 SHL PUSH1 0x0 MSTORE PUSH1 0x41 PUSH1 0x4 MSTORE PUSH1 0x24 PUSH1 0x0 REVERT JUMPDEST SWAP5 PUSH2 0x41C SWAP2 SWAP3 SWAP5 PUSH2 0xA46 SWAP5 PUSH1 0x40 MLOAD SWAP7 DUP8 SWAP6 PUSH1 0x20 DUP8 ADD SWAP10 DUP11 PUSH2 0x9A2 JUMP JUMPDEST MLOAD SWAP1 KECCAK256 SLOAD SWAP1 JUMP JUMPDEST PUSH1 0x1 PUSH1 0x1 PUSH1 0x40 SHL SUB DUP2 GT PUSH2 0xA14 JUMPI PUSH1 0x1F ADD PUSH1 0x1F NOT AND PUSH1 0x20 ADD SWAP1 JUMP JUMPDEST SWAP3 SWAP2 SWAP3 PUSH2 0xA74 DUP3 PUSH2 0xA4D JUMP JUMPDEST SWAP2 PUSH2 0xA82 PUSH1 0x40 MLOAD SWAP4 DUP5 PUSH2 0x9F3 JUMP JUMPDEST DUP3 SWAP5 DUP2 DUP5 MSTORE DUP2 DUP4 ADD GT PUSH2 0x893 JUMPI DUP3 DUP2 PUSH1 0x20 SWAP4 DUP5 PUSH1 0x0 SWAP7 ADD CALLDATACOPY ADD ADD MSTORE JUMP JUMPDEST SWAP1 DUP2 PUSH1 0x20 SWAP2 SUB SLT PUSH2 0x893 JUMPI MLOAD DUP1 ISZERO ISZERO DUP2 SUB PUSH2 0x893 JUMPI SWAP1 JUMP JUMPDEST SWAP6 PUSH2 0x9E0 PUSH1 0x0 DUP1 MLOAD PUSH1 0x20 PUSH2 0xB76 DUP4 CODECOPY DUP2 MLOAD SWAP2 MSTORE SWAP10 SWAP5 PUSH1 0xA0 SWAP10 SWAP7 PUSH2 0x9D2 PUSH2 0xAFB SWAP10 SWAP6 SWAP14 SWAP15 SWAP14 PUSH2 0xAED SWAP8 PUSH1 0xC0 DUP14 MSTORE PUSH1 0xC0 DUP14 ADD SWAP2 PUSH2 0x981 JUMP JUMPDEST SWAP2 DUP5 DUP4 SUB PUSH1 0x60 DUP7 ADD MSTORE PUSH2 0x981 JUMP JUMPDEST SWAP5 PUSH1 0x80 DUP3 ADD MSTORE ADD MSTORE JUMP JUMPDEST SWAP8 SWAP3 SWAP5 PUSH2 0x41C SWAP5 PUSH2 0xA46 SWAP8 SWAP3 SWAP7 SWAP9 SWAP4 SWAP9 PUSH1 0x40 MLOAD SWAP10 DUP11 SWAP9 PUSH1 0x20 DUP11 ADD SWAP13 DUP14 PUSH2 0xAB7 JUMP JUMPDEST SWAP1 DUP2 PUSH1 0x20 SWAP2 SUB SLT PUSH2 0x893 JUMPI MLOAD PUSH1 0x1 PUSH1 0x1 PUSH1 0xA0 SHL SUB DUP2 AND DUP2 SUB PUSH2 0x893 JUMPI SWAP1 JUMP JUMPDEST RETURNDATASIZE ISZERO PUSH2 0xB70 JUMPI RETURNDATASIZE SWAP1 PUSH2 0xB56 DUP3 PUSH2 0xA4D JUMP JUMPDEST SWAP2 PUSH2 0xB64 PUSH1 0x40 MLOAD SWAP4 DUP5 PUSH2 0x9F3 JUMP JUMPDEST DUP3 MSTORE RETURNDATASIZE PUSH1 0x0 PUSH1 0x20 DUP5 ADD RETURNDATACOPY JUMP JUMPDEST PUSH1 0x60 SWAP1 JUMP INVALID 0xDB PUSH26 0xEE324BABD8834C3C1A1A2739C004FCE73B812AC9F637241FF47B NOT 0xE4 0xB7 0x1F LOG2 PUSH5 0x6970667358 0x22 SLT KECCAK256 0x24 LOG4 0xC8 0xE 0xD1 0xA6 SLOAD EXP CODESIZE DIV 0xC0 0xAD 0xF6 MULMOD 0xE6 DUP7 PREVRANDAO SHR SMOD 0xE5 0xB5 0x22 EXTCODESIZE SHL 0x4F 0xE7 0xC9 PUSH27 0xDDB6D89464736F6C63430008130033000000000000000000000000 "},"methodIdentifiers":{"FORECALLERS_SALT()":"0d38218a","amountPostFee(uint256,bytes)":"3ca2fd8e","execute(bytes32,string,string,bytes)":"49160658","executeWithToken(bytes32,string,string,bytes,string,uint256)":"1a98b2e0","forecall(string,string,bytes)":"d0224434","forecallWithToken(string,string,bytes,string,uint256)":"e888e86c","gateway()":"116191b6","getForecaller(string,string,bytes)":"facd28a9","getForecallerWithToken(string,string,bytes,string,uint256)":"09cc027b"}}}}}