{"contracts/squidRouter.sol":{"SquidRouter":{"abi":[{"inputs":[{"internalType":"address","name":"_gateway","type":"address"},{"internalType":"address","name":"_gasService","type":"address"},{"internalType":"address","name":"_forecallGasService","type":"address"},{"internalType":"address","name":"_multicall","type":"address"}],"stateMutability":"nonpayable","type":"constructor"},{"inputs":[],"name":"AlreadyForecalled","type":"error"},{"inputs":[],"name":"ApprovalFailed","type":"error"},{"inputs":[],"name":"ContractIsPaused","type":"error"},{"inputs":[],"name":"InvalidAddress","type":"error"},{"inputs":[],"name":"NotApprovedByGateway","type":"error"},{"inputs":[],"name":"NotPauser","type":"error"},{"inputs":[],"name":"NotPendingPauser","type":"error"},{"inputs":[],"name":"TransferFailed","type":"error"},{"inputs":[],"name":"ZeroAddressProvided","type":"error"},{"anonymous":false,"inputs":[{"indexed":true,"internalType":"bytes32","name":"payloadHash","type":"bytes32"}],"name":"CrossMulticallExecuted","type":"event"},{"anonymous":false,"inputs":[{"indexed":true,"internalType":"bytes32","name":"payloadHash","type":"bytes32"},{"indexed":false,"internalType":"bytes","name":"reason","type":"bytes"},{"indexed":true,"internalType":"address","name":"refundRecipient","type":"address"}],"name":"CrossMulticallFailed","type":"event"},{"anonymous":false,"inputs":[],"name":"Paused","type":"event"},{"anonymous":false,"inputs":[{"indexed":true,"internalType":"address","name":"currentPauser","type":"address"},{"indexed":true,"internalType":"address","name":"pendingPauser","type":"address"}],"name":"PauserProposed","type":"event"},{"anonymous":false,"inputs":[{"indexed":true,"internalType":"address","name":"pendingPauser","type":"address"}],"name":"PauserUpdated","type":"event"},{"anonymous":false,"inputs":[],"name":"Unpaused","type":"event"},{"inputs":[],"name":"FORECALLERS_SALT","outputs":[{"internalType":"uint256","name":"","type":"uint256"}],"stateMutability":"view","type":"function"},{"inputs":[],"name":"acceptPauser","outputs":[],"stateMutability":"nonpayable","type":"function"},{"inputs":[{"internalType":"uint256","name":"amount","type":"uint256"},{"internalType":"bytes","name":"","type":"bytes"}],"name":"amountPostFee","outputs":[{"internalType":"uint256","name":"","type":"uint256"}],"stateMutability":"nonpayable","type":"function"},{"inputs":[{"internalType":"string","name":"bridgedTokenSymbol","type":"string"},{"internalType":"uint256","name":"amount","type":"uint256"},{"internalType":"string","name":"destinationChain","type":"string"},{"internalType":"string","name":"destinationAddress","type":"string"},{"internalType":"bytes","name":"payload","type":"bytes"},{"internalType":"address","name":"gasRefundRecipient","type":"address"},{"internalType":"bool","name":"enableExpress","type":"bool"}],"name":"bridgeCall","outputs":[],"stateMutability":"payable","type":"function"},{"inputs":[{"internalType":"address","name":"token","type":"address"},{"internalType":"uint256","name":"amount","type":"uint256"},{"components":[{"internalType":"enum ISquidMulticall.CallType","name":"callType","type":"uint8"},{"internalType":"address","name":"target","type":"address"},{"internalType":"uint256","name":"value","type":"uint256"},{"internalType":"bytes","name":"callData","type":"bytes"},{"internalType":"bytes","name":"payload","type":"bytes"}],"internalType":"struct ISquidMulticall.Call[]","name":"calls","type":"tuple[]"},{"internalType":"string","name":"bridgedTokenSymbol","type":"string"},{"internalType":"string","name":"destinationChain","type":"string"},{"internalType":"string","name":"destinationAddress","type":"string"}],"name":"callBridge","outputs":[],"stateMutability":"payable","type":"function"},{"inputs":[{"internalType":"address","name":"token","type":"address"},{"internalType":"uint256","name":"amount","type":"uint256"},{"components":[{"internalType":"enum ISquidMulticall.CallType","name":"callType","type":"uint8"},{"internalType":"address","name":"target","type":"address"},{"internalType":"uint256","name":"value","type":"uint256"},{"internalType":"bytes","name":"callData","type":"bytes"},{"internalType":"bytes","name":"payload","type":"bytes"}],"internalType":"struct ISquidMulticall.Call[]","name":"calls","type":"tuple[]"},{"internalType":"string","name":"bridgedTokenSymbol","type":"string"},{"internalType":"string","name":"destinationChain","type":"string"},{"internalType":"string","name":"destinationAddress","type":"string"},{"internalType":"bytes","name":"payload","type":"bytes"},{"internalType":"address","name":"gasRefundRecipient","type":"address"},{"internalType":"bool","name":"enableExpress","type":"bool"}],"name":"callBridgeCall","outputs":[],"stateMutability":"payable","type":"function"},{"inputs":[],"name":"contractId","outputs":[{"internalType":"bytes32","name":"id","type":"bytes32"}],"stateMutability":"pure","type":"function"},{"inputs":[{"internalType":"bytes32","name":"commandId","type":"bytes32"},{"internalType":"string","name":"sourceChain","type":"string"},{"internalType":"string","name":"sourceAddress","type":"string"},{"internalType":"bytes","name":"payload","type":"bytes"}],"name":"execute","outputs":[],"stateMutability":"nonpayable","type":"function"},{"inputs":[{"internalType":"bytes32","name":"commandId","type":"bytes32"},{"internalType":"string","name":"sourceChain","type":"string"},{"internalType":"string","name":"sourceAddress","type":"string"},{"internalType":"bytes","name":"payload","type":"bytes"},{"internalType":"string","name":"tokenSymbol","type":"string"},{"internalType":"uint256","name":"amount","type":"uint256"}],"name":"executeWithToken","outputs":[],"stateMutability":"nonpayable","type":"function"},{"inputs":[{"internalType":"string","name":"sourceChain","type":"string"},{"internalType":"string","name":"sourceAddress","type":"string"},{"internalType":"bytes","name":"payload","type":"bytes"}],"name":"forecall","outputs":[],"stateMutability":"nonpayable","type":"function"},{"inputs":[{"internalType":"string","name":"sourceChain","type":"string"},{"internalType":"string","name":"sourceAddress","type":"string"},{"internalType":"bytes","name":"payload","type":"bytes"},{"internalType":"string","name":"tokenSymbol","type":"string"},{"internalType":"uint256","name":"amount","type":"uint256"}],"name":"forecallWithToken","outputs":[],"stateMutability":"nonpayable","type":"function"},{"inputs":[{"internalType":"address","name":"token","type":"address"},{"internalType":"uint256","name":"amount","type":"uint256"},{"components":[{"internalType":"enum ISquidMulticall.CallType","name":"callType","type":"uint8"},{"internalType":"address","name":"target","type":"address"},{"internalType":"uint256","name":"value","type":"uint256"},{"internalType":"bytes","name":"callData","type":"bytes"},{"internalType":"bytes","name":"payload","type":"bytes"}],"internalType":"struct ISquidMulticall.Call[]","name":"calls","type":"tuple[]"}],"name":"fundAndRunMulticall","outputs":[],"stateMutability":"payable","type":"function"},{"inputs":[],"name":"gateway","outputs":[{"internalType":"contract IAxelarGateway","name":"","type":"address"}],"stateMutability":"view","type":"function"},{"inputs":[{"internalType":"string","name":"sourceChain","type":"string"},{"internalType":"string","name":"sourceAddress","type":"string"},{"internalType":"bytes","name":"payload","type":"bytes"}],"name":"getForecaller","outputs":[{"internalType":"address","name":"forecaller","type":"address"}],"stateMutability":"view","type":"function"},{"inputs":[{"internalType":"string","name":"sourceChain","type":"string"},{"internalType":"string","name":"sourceAddress","type":"string"},{"internalType":"bytes","name":"payload","type":"bytes"},{"internalType":"string","name":"symbol","type":"string"},{"internalType":"uint256","name":"amount","type":"uint256"}],"name":"getForecallerWithToken","outputs":[{"internalType":"address","name":"forecaller","type":"address"}],"stateMutability":"view","type":"function"},{"inputs":[],"name":"pause","outputs":[],"stateMutability":"nonpayable","type":"function"},{"inputs":[],"name":"paused","outputs":[{"internalType":"bool","name":"value","type":"bool"}],"stateMutability":"view","type":"function"},{"inputs":[],"name":"pauser","outputs":[{"internalType":"address","name":"value","type":"address"}],"stateMutability":"view","type":"function"},{"inputs":[],"name":"pendingPauser","outputs":[{"internalType":"address","name":"value","type":"address"}],"stateMutability":"view","type":"function"},{"inputs":[],"name":"unpause","outputs":[],"stateMutability":"nonpayable","type":"function"},{"inputs":[{"internalType":"address","name":"newPauser","type":"address"}],"name":"updatePauser","outputs":[],"stateMutability":"nonpayable","type":"function"}],"evm":{"bytecode":{"linkReferences":{},"object":"61010034620001e857601f6200257e38819003918201601f19168301916001600160401b03831184841017620001ed57808492608094604052833981010312620001e8576200004e8162000203565b906200005d6020820162000203565b906200007a6060620000726040840162000203565b920162000203565b6001600160a01b039390929084168015620001d657608052337f23e06a2ed150be3aaebbce1156aecc5187e5e955ea717a17e165cca37ef8c379558360405191337fa4336c0cb1e245b95ad204faed7e940d6dc999684fd8b5e1ff597a0c4efca8ab600080a2169081158015620001cb575b8015620001c0575b620001b1575060a052821660c0521660e052604051612365908162000219823960805181818161017c0152818161074601528181610cfd0152818161100a01528181611256015281816113d80152818161148f01528181611577015281816117a70152611f2f015260a05181612108015260c0518161200f015260e0518181816102cb01528181610692015281816106e4015281816107fc01528181610a2a01528181610abb01528181610c9d01528181610ea201526115e90152f35b638474420160e01b8152600490fd5b5084841615620000f4565b5084831615620000ec565b60405163e6c4247b60e01b8152600490fd5b600080fd5b634e487b7160e01b600052604160045260246000fd5b51906001600160a01b0382168203620001e85756fe6080604052600436101561001257600080fd5b6000803560e01c806309cc027b146117ff5780630d38218a146117d6578063116191b614611791578063167a6f90146117125780631a98b2e0146112c157806321477960146111725780633ca2fd8e146111335780633f4ba83a146110cb5780634916065814610f3357806352c41eb614610bbe578063554bab3c14610b4857806358181a80146109ae5780635c975abb146109815780638291286c146109465780638456cb59146108cb578063846a1bc61461057c5780639a7165e4146105465780639fd0506d14610510578063d0224434146104bc578063e888e86c146101385763facd28a91461010457600080fd5b3461013557602061012361011736611b0d565b94939093929192611be4565b6040516001600160a01b039091168152f35b80fd5b50346101355761017a61014a3661184f565b919897929593969094898b602060405180809d81956349ad89fb60e11b83528460048401528c6024840191611b72565b7f00000000000000000000000000000000000000000000000000000000000000006001600160a01b03169e919003908e5afa80156104af576101c692869291610490575b503390611d9a565b6001600160a01b036101df84888d8b8d878c8a8d611c6d565b1661047e5761020f92868b898b610201956040519a8b9860208a019b8c611c1f565b03601f19810184528361195d565b3391519020558183016040848203126103ef578335906001600160401b03821161047a5761023e918501611af2565b9060208401359560018060a01b03871680970361047a5761027f956020926040518098819482936349ad89fb60e11b84528760048501526024840191611b72565b03915afa93841561046f57869461043e575b506040516370a0823160e01b81523060048201529086906020836024816001600160a01b038a165afa9283156104335782936103f7575b507f00000000000000000000000000000000000000000000000000000000000000006001600160a01b03166102fe848289612171565b803b156103f3576103288392918392604051958680948193621f0fdf60eb1b835260048301611e06565b03925af191826103db575b505061039e577fdd7b1484db8d21f4fbda2407f2920037dc379dd66e18b0851aa9d6c14ef493b9926103989261037561037c938861036f611cad565b98611cdd565b3691611999565b6020815191012092604051918291602083526020830190611dc6565b0390a380f35b506103ad935036925090611999565b602081519101207f7c3aa10c5d96985be6de7d2e6fa79bdef95a95a9cb272f4113b3fe1ca89fedae8280a280f35b6103e490611919565b6103ef578638610333565b8680fd5b8280fd5b915091506020813d60201161042b575b816104146020938361195d565b810103126104265786905191386102c8565b600080fd5b3d9150610407565b6040513d84823e3d90fd5b61046191945060203d602011610468575b610459818361195d565b810190611c8e565b9238610291565b503d61044f565b6040513d88823e3d90fd5b8780fd5b60405163035b7d5560e41b8152600490fd5b6104a9915060203d60201161046857610459818361195d565b386101be565b50604051903d90823e3d90fd5b5034610135576104cb36611b0d565b92949390929091906001600160a01b036104e98286858a888b611be4565b1661047e576105079361020192604051978895602087019889611b93565b33915190205580f35b50346101355780600319360112610135576000805160206122f0833981519152546040516001600160a01b039091168152602090f35b50346101355780600319360112610135576000805160206122d0833981519152546040516001600160a01b039091168152602090f35b50610120366003190112610135576105926118d3565b6001600160401b03906044358281116108c7576105b39036906004016118e9565b916064358481116108c3576105cc903690600401611822565b93909260843586811161047a576105e7903690600401611822565b60a4979197358281116108bf57610602903690600401611822565b93909260c4359081116108bb5761061d903690600401611822565b96909560e4356001600160a01b0381169003610426576101043515156101043503610426576000805160206122b0833981519152546108a9578b926106639136916119ee565b9082906001600160a01b03811673eeeeeeeeeeeeeeeeeeeeeeeeeeeeeeeeeeeeeeee036107d45750506024355b7f00000000000000000000000000000000000000000000000000000000000000006001600160a01b03163b156103f3576106e09183916040518080958194621f0fdf60eb1b835260048301611e06565b03917f00000000000000000000000000000000000000000000000000000000000000006001600160a01b03165af18015610433576107bc575b5050604051976349ad89fb60e11b8952602060048a015260208980610742602482018c8c611b72565b03817f00000000000000000000000000000000000000000000000000000000000000006001600160a01b03165afa80156107b157610790998b91610793575b50610104359860e43598611ed6565b80f35b6107ab915060203d811161046857610459818361195d565b38610781565b6040513d8c823e3d90fd5b6107c590611919565b6107d0578838610719565b8880fd5b90928060405160208101906323b872dd60e01b82526108348161082660243560018060a01b037f0000000000000000000000000000000000000000000000000000000000000000163360248501611d78565b03601f19810183528261195d565b519082855af1610842611cad565b8161087a575b5015908115610870575b5061085e578a91610690565b6040516312171d8360e31b8152600490fd5b90503b1538610852565b805180159250821561088f575b505038610848565b6108a29250602080918301019101611c07565b3880610887565b6040516306d39fcd60e41b8152600490fd5b8a80fd5b8980fd5b8580fd5b8380fd5b50346101355780600319360112610135576000805160206122f0833981519152546001600160a01b031633036109345760016000805160206122b0833981519152557f9e87fac88ff661f02d44f95383c817fece4bce600a3dab7a54406878b965e7528180a180f35b60405163492f678160e01b8152600490fd5b503461013557806003193601126101355760206040517fc097d45e5a99ca772ab5ec2e5457c2e249760944b95b0b97cbb6b03ec55bae848152f35b503461013557806003193601126101355760206000805160206122b0833981519152546040519015158152f35b506060366003190112610135576109c36118d3565b602435906044356001600160401b0381116108c7576109e6903690600401611af2565b6000805160206122b0833981519152546108a95783926001600160a01b0392849080851673eeeeeeeeeeeeeeeeeeeeeeeeeeeeeeeeeeeeeeee03610a99575050915b7f00000000000000000000000000000000000000000000000000000000000000001690813b15610a94578391610a7391604051948580948193621f0fdf60eb1b835260048301611e06565b03925af1801561043357610a845750f35b610a8d90611919565b6101355780f35b505050fd5b919480919495604051610ae58161082660208201946323b872dd60e01b86528b7f0000000000000000000000000000000000000000000000000000000000000000163360248501611d78565b519082855af1610af3611cad565b81610b19575b5015908115610b0f575b5061085e578392610a28565b90503b1538610b03565b8051801592508215610b2e575b505038610af9565b610b419250602080918301019101611c07565b3880610b26565b503461013557602036600319011261013557610b626118d3565b6000805160206122f0833981519152546001600160a01b0391908216330361093457806000805160206122d08339815191525516337f3210edd3f0fc490ffc59a4adae6f48dbda2d8e89afe5b37a0145a54762f3ecf98380a380f35b5060031960c036820112610f2f57610bd46118d3565b6001600160401b0391602435916044358481116108c357610bf99036906004016118e9565b909460643581811161047a57610c13903690600401611822565b936084358381116108bf57610c2c903690600401611822565b91909360a4359081116108bb57610c47903690600401611822565b9890956000805160206122b0833981519152546108a9578b9a610c6b9136916119ee565b6001600160a01b03929091908b9080851673eeeeeeeeeeeeeeeeeeeeeeeeeeeeeeeeeeeeeeee03610e80575050905b827f00000000000000000000000000000000000000000000000000000000000000001690813b15610e7c578b91610ce691604051948580948193621f0fdf60eb1b835260048301611e06565b03925af19081156107b1578a91610e68575b5050807f00000000000000000000000000000000000000000000000000000000000000001694604051916349ad89fb60e11b8352602092836004820152838180610d46602482018d8b611b72565b03818b5afa908115610e3d5784908d92610e48575b506040516370a0823160e01b815230600482015291928290602490829086165afa938415610e3d578c94610e08575b50508287610d9792612171565b853b156108bf578997610dd2978995610de2610df1946040519d8e9c8d9b8c9a6326ef699d60e01b8c52608060048d015260848c0191611b72565b91868a84030160248b0152611b72565b92868403016044870152611b72565b90606483015203925af1801561043357610a845750f35b819c50809294503d8311610e36575b610e21818361195d565b810103126104265798518a9990918087610d8a565b503d610e17565b6040513d8e823e3d90fd5b60249250610e6290823d841161046857610459818361195d565b91610d5b565b610e7190611919565b6107d0578838610cf8565b8b80fd5b919b8091939c604051610ecc8161082660208201946323b872dd60e01b86528a7f0000000000000000000000000000000000000000000000000000000000000000163360248501611d78565b519082855af1610eda611cad565b81610f00575b5015908115610ef6575b5061085e578a99610c9a565b90503b1538610eea565b8051801592508215610f15575b505038610ee0565b610f289250602080918301019101611c07565b3880610f0d565b5080fd5b503461013557600319608036820112610f2f576001600160401b03906024358281116108c757610f67903690600401611822565b9290916044358281116108c357610f82903690600401611822565b9490926064359081116103ef57610f9d903690600401611822565b959092610fab368886611999565b6020815191012090610ff260405191635f6970c360e01b8352600435600484015260806024840152610fe160848401878b611b72565b908382030160448401528488611b72565b9160648201526020818060018060a01b039403818c867f0000000000000000000000000000000000000000000000000000000000000000165af19081156110c0578991611092575b50156110805761104e87858488878b611be4565b161561107757600095611070936108269260405196879560208701998a611b93565b5190205580f35b50505050505080f35b604051631403112d60e21b8152600490fd5b6110b3915060203d81116110b9575b6110ab818361195d565b810190611c07565b3861103a565b503d6110a1565b6040513d8b823e3d90fd5b50346101355780600319360112610135576000805160206122f0833981519152546001600160a01b0316330361093457806000805160206122b0833981519152557fa45f47fdea8a1efdd9029a5691c7f759c32b7c698632b563573e155625d169338180a180f35b5034610135576040366003190112610135576024356001600160401b038111610f2f57611164903690600401611822565b505060206040516004358152f35b5060e0366003190112610135576001600160401b036004358181116103f35761119f903690600401611822565b90916044358181116112bd576111b9903690600401611822565b6064929192358281116103ef576111d4903690600401611822565b909260843590811161047a576111ee903690600401611822565b6001600160a01b039760a4359691959294919089881688036104265760c435988915158a03610426576000805160206122b0833981519152546108a9576020604051809c6349ad89fb60e11b82528260048301528180611252602482018789611b72565b03917f0000000000000000000000000000000000000000000000000000000000000000165afa918215610e3d576107909b8d9361129d575b506112986024353385611d9a565b611ed6565b6112b691935060203d811161046857610459818361195d565b913861128a565b8480fd5b50346101355760031960c036820112610f2f576024356001600160401b0381116103f3576112f3903690600401611822565b916044356001600160401b0381116112bd57611313903690600401611822565b6064949194356001600160401b0381116103ef57611335903690600401611822565b959094608435966001600160401b0388116107d0576113cb61135d6020993690600401611822565b99909761136b36858c611999565b805190830120604051631876eed960e01b8152600480359082015260c060248201529384928392906113b56113a460c486018e8c611b72565b828682030160448701528c8c611b72565b9160648501528382030160848401528d8c611b72565b60a480359083015203818d7f00000000000000000000000000000000000000000000000000000000000000006001600160a01b03165af19081156107b1578a916116f3575b50156110805761142960a4358988848b89898c8a611c6d565b966001600160a01b03881615611501576000936108268897948b60209a61148b9d9996611464966040519889978f89019b60a435978d611c1f565b519020556040516349ad89fb60e11b81526004810184905294859283926024840191611b72565b03817f00000000000000000000000000000000000000000000000000000000000000006001600160a01b03165afa9081156114f6576107909284926114d5575b5060a43591611cdd565b6114ef91925060203d60201161046857610459818361195d565b90386114cb565b6040513d85823e3d90fd5b95965093505050508082016040838203126108c3578235906001600160401b0382116103ef57611532918401611af2565b60208301356001600160a01b03811695908690036103ef576115739460209160405196879283926349ad89fb60e11b84528560048501526024840191611b72565b03817f00000000000000000000000000000000000000000000000000000000000000006001600160a01b03165afa93841561046f5786946116d2575b506040516370a0823160e01b81523060048201529086906020836024816001600160a01b038a165afa92831561043357829361169e575b507f00000000000000000000000000000000000000000000000000000000000000006001600160a01b03169061161d848389612171565b813b156103f357829161164591604051948580948193621f0fdf60eb1b835260048301611e06565b03925af1908161168b575b5061039e577fdd7b1484db8d21f4fbda2407f2920037dc379dd66e18b0851aa9d6c14ef493b9926103989261037561037c938861036f611cad565b61169790979197611919565b9538611650565b9092506020813d6020116116ca575b816116ba6020938361195d565b81010312610f2f575191386115e6565b3d91506116ad565b6116ec91945060203d60201161046857610459818361195d565b92386115af565b61170c915060203d6020116110b9576110ab818361195d565b38611410565b50346101355780600319360112610135576000805160206122d083398151915280546001600160a01b0316330361177f578190336000805160206122f083398151915255337fa4336c0cb1e245b95ad204faed7e940d6dc999684fd8b5e1ff597a0c4efca8ab8380a25580f35b6040516316744e1b60e31b8152600490fd5b50346101355780600319360112610135576040517f00000000000000000000000000000000000000000000000000000000000000006001600160a01b03168152602090f35b503461013557806003193601126101355760206040516000805160206123108339815191528152f35b50346101355760206101236118133661184f565b97969096959195949294611c6d565b9181601f84011215610426578235916001600160401b038311610426576020838186019501011161042657565b60a0600319820112610426576001600160401b0390600435828111610426578161187b91600401611822565b93909392602435818111610426578361189691600401611822565b9390939260443583811161042657826118b191600401611822565b93909392606435918211610426576118cb91600401611822565b909160843590565b600435906001600160a01b038216820361042657565b9181601f84011215610426578235916001600160401b038311610426576020808501948460051b01011161042657565b6001600160401b03811161192c57604052565b634e487b7160e01b600052604160045260246000fd5b608081019081106001600160401b0382111761192c57604052565b90601f801991011681019081106001600160401b0382111761192c57604052565b6001600160401b03811161192c57601f01601f191660200190565b9291926119a58261197e565b916119b3604051938461195d565b829481845281830111610426578281602093846000960137010152565b9080601f83011215610426578160206119eb93359101611999565b90565b929190926001600160401b0380851161192c578460051b604080519460208096611a1a8286018261195d565b8099815201928501948186116104265780935b868510611a3e575050505050505050565b843586811161042657820160a091828286031261042657855192830183811089821117611add57865281356004811015610426578352818a01356001600160a01b0381168103610426578a84015285820135868401526060808301358981116104265786611aad9185016119d0565b90840152608092838301359389851161042657611ace878d968796016119d0565b90820152815201940193611a2d565b60246000634e487b7160e01b81526041600452fd5b9080601f83011215610426578160206119eb933591016119ee565b906060600319830112610426576001600160401b036004358181116104265783611b3991600401611822565b939093926024358381116104265782611b5491600401611822565b9390939260443591821161042657611b6e91600401611822565b9091565b908060209392818452848401376000828201840152601f01601f1916010190565b969590611bdf93606095611bc3611bd193600080516020612310833981519152999660808d5260808d0191611b72565b918a830360208c0152611b72565b918783036040890152611b72565b930152565b94610826919294611c009460405196879560208701998a611b93565b5190205490565b90816020910312610426575180151581036104265790565b95611bd1600080516020612310833981519152999460a09996611bc3611c6399959d9e9d611c559760c08d5260c08d0191611b72565b918483036060860152611b72565b9460808201520152565b97929461082694611c00979296989398604051998a9860208a019c8d611c1f565b9081602091031261042657516001600160a01b03811681036104265790565b3d15611cd8573d90611cbe8261197e565b91611ccc604051938461195d565b82523d6000602084013e565b606090565b60405163a9059cbb60e01b602082019081526001600160a01b039093166024820152604480820194909452928352916000918291611d1a81611942565b519082855af1611d28611cad565b81611d49575b5015908115611d3f575b5061085e57565b90503b1538611d38565b8051801592508215611d5e575b505038611d2e565b611d719250602080918301019101611c07565b3880611d56565b6001600160a01b03918216815291166020820152604081019190915260600190565b91600091610826611d1a849360405192839160208301956323b872dd60e01b8752309060248501611d78565b919082519283825260005b848110611df2575050826000602080949584010152601f8019910116010190565b602081830181015184830182015201611dd1565b602080820181835283518091526040918284019381848460051b83010196019460009485925b858410611e3e57505050505050505090565b9091929394959697603f1982820301845288518051600480821015611ec357508252808701516001600160a01b031687830152838101518483015260608082015160a091840182905260019389938493611eb193611e9e91840190611dc6565b9160808092015191818403910152611dc6565b9a019401940192969594939190611e2c565b634e487b7160e01b8b526021905260248afd5b919590989294969798604098878a51956370a0823160e01b875260009d30600489015260208860248160018060a01b038097165afa978815612165578f90819961212c575b509088929147612003575b505050611f56917f000000000000000000000000000000000000000000000000000000000000000016809a612171565b873b15610e7c57918b9897969593918995938b519c8d9a8b998a98632d505c2160e21b8a5260048a0160a0905260a48a0190611f9192611b72565b60031995868a83030160248b0152611fa892611b72565b9084888303016044890152611fbc92611b72565b91858303016064860152611fcf92611b72565b90608483015203925af1908115611ffa5750611fe9575050565b611ff38291611919565b6101355750565b513d84823e3d90fd5b509091501561210557817f00000000000000000000000000000000000000000000000000000000000000005b16904790823b15612101578f91928f938f908f938c8f938f928e8e8e8e8e95519d8e9c8d9b8c9a636316100160e11b8c523060048d015260248c0160e0905260e48c019061207c92611b72565b60031995868c83030160448d015261209392611b72565b90848a83030160648b01526120a792611b72565b918783030160848801526120ba92611b72565b9260a48501521660c483015203925af180156120f5576120de575b8087918f611f26565b611f56919d6120ed8892611919565b9d91506120d5565b8e8d51903d90823e3d90fd5b8f80fd5b817f000000000000000000000000000000000000000000000000000000000000000061202f565b919850506020813d821161215d575b816121486020938361195d565b810103126121595751968e38611f1b565b8e80fd5b3d915061213b565b8f8e51903d90823e3d90fd5b9060409283518091636eb1769f60e11b825230600483015260018060a01b0380941693846024840152826044602095869389165afa9182156122a457600092612275575b5081106121c4575b5050505050565b612225575b916000929183809386519081019263095ea7b360e01b8452602482015281196044820152604481526121fa81611942565b51925af1612206611cad565b501561221557808080806121bd565b516340b27c2160e11b8152600490fd5b60008085518381019063095ea7b360e01b82528560248201528260448201526044815261225181611942565b519082875af161225f611cad565b506121c95783516340b27c2160e11b8152600490fd5b90918382813d831161229d575b61228c818361195d565b8101031261013557505190386121b5565b503d612282565b86513d6000823e3d90fdfea42f2cf999e26109eb49cb7eef3654cc55b677b2db805f3eab8722cc5dd1af0ce330cfee289e568e8774e923acd6e2a00f84be86aa1d02356835d33dbb93970223e06a2ed150be3aaebbce1156aecc5187e5e955ea717a17e165cca37ef8c379db79ee324babd8834c3c1a1a2739c004fce73b812ac9f637241ff47b19e4b71fa264697066735822122042867d10b0581dab105f4a85ed089baedad08b36ed1940a2e7570536382c1bf164736f6c63430008130033","opcodes":"PUSH2 0x100 CALLVALUE PUSH3 0x1E8 JUMPI PUSH1 0x1F PUSH3 0x257E CODESIZE DUP2 SWAP1 SUB SWAP2 DUP3 ADD PUSH1 0x1F NOT AND DUP4 ADD SWAP2 PUSH1 0x1 PUSH1 0x1 PUSH1 0x40 SHL SUB DUP4 GT DUP5 DUP5 LT OR PUSH3 0x1ED JUMPI DUP1 DUP5 SWAP3 PUSH1 0x80 SWAP5 PUSH1 0x40 MSTORE DUP4 CODECOPY DUP2 ADD SUB SLT PUSH3 0x1E8 JUMPI PUSH3 0x4E DUP2 PUSH3 0x203 JUMP JUMPDEST SWAP1 PUSH3 0x5D PUSH1 0x20 DUP3 ADD PUSH3 0x203 JUMP JUMPDEST SWAP1 PUSH3 0x7A PUSH1 0x60 PUSH3 0x72 PUSH1 0x40 DUP5 ADD PUSH3 0x203 JUMP JUMPDEST SWAP3 ADD PUSH3 0x203 JUMP JUMPDEST PUSH1 0x1 PUSH1 0x1 PUSH1 0xA0 SHL SUB SWAP4 SWAP1 SWAP3 SWAP1 DUP5 AND DUP1 ISZERO PUSH3 0x1D6 JUMPI PUSH1 0x80 MSTORE CALLER PUSH32 0x23E06A2ED150BE3AAEBBCE1156AECC5187E5E955EA717A17E165CCA37EF8C379 SSTORE DUP4 PUSH1 0x40 MLOAD SWAP2 CALLER PUSH32 0xA4336C0CB1E245B95AD204FAED7E940D6DC999684FD8B5E1FF597A0C4EFCA8AB PUSH1 0x0 DUP1 LOG2 AND SWAP1 DUP2 ISZERO DUP1 ISZERO PUSH3 0x1CB JUMPI JUMPDEST DUP1 ISZERO PUSH3 0x1C0 JUMPI JUMPDEST PUSH3 0x1B1 JUMPI POP PUSH1 0xA0 MSTORE DUP3 AND PUSH1 0xC0 MSTORE AND PUSH1 0xE0 MSTORE PUSH1 0x40 MLOAD PUSH2 0x2365 SWAP1 DUP2 PUSH3 0x219 DUP3 CODECOPY PUSH1 0x80 MLOAD DUP2 DUP2 DUP2 PUSH2 0x17C ADD MSTORE DUP2 DUP2 PUSH2 0x746 ADD MSTORE DUP2 DUP2 PUSH2 0xCFD ADD MSTORE DUP2 DUP2 PUSH2 0x100A ADD MSTORE DUP2 DUP2 PUSH2 0x1256 ADD MSTORE DUP2 DUP2 PUSH2 0x13D8 ADD MSTORE DUP2 DUP2 PUSH2 0x148F ADD MSTORE DUP2 DUP2 PUSH2 0x1577 ADD MSTORE DUP2 DUP2 PUSH2 0x17A7 ADD MSTORE PUSH2 0x1F2F ADD MSTORE PUSH1 0xA0 MLOAD DUP2 PUSH2 0x2108 ADD MSTORE PUSH1 0xC0 MLOAD DUP2 PUSH2 0x200F ADD MSTORE PUSH1 0xE0 MLOAD DUP2 DUP2 DUP2 PUSH2 0x2CB ADD MSTORE DUP2 DUP2 PUSH2 0x692 ADD MSTORE DUP2 DUP2 PUSH2 0x6E4 ADD MSTORE DUP2 DUP2 PUSH2 0x7FC ADD MSTORE DUP2 DUP2 PUSH2 0xA2A ADD MSTORE DUP2 DUP2 PUSH2 0xABB ADD MSTORE DUP2 DUP2 PUSH2 0xC9D ADD MSTORE DUP2 DUP2 PUSH2 0xEA2 ADD MSTORE PUSH2 0x15E9 ADD MSTORE RETURN JUMPDEST PUSH4 0x84744201 PUSH1 0xE0 SHL DUP2 MSTORE PUSH1 0x4 SWAP1 REVERT JUMPDEST POP DUP5 DUP5 AND ISZERO PUSH3 0xF4 JUMP JUMPDEST POP DUP5 DUP4 AND ISZERO PUSH3 0xEC JUMP JUMPDEST PUSH1 0x40 MLOAD PUSH4 0xE6C4247B PUSH1 0xE0 SHL DUP2 MSTORE PUSH1 0x4 SWAP1 REVERT JUMPDEST PUSH1 0x0 DUP1 REVERT JUMPDEST PUSH4 0x4E487B71 PUSH1 0xE0 SHL PUSH1 0x0 MSTORE PUSH1 0x41 PUSH1 0x4 MSTORE PUSH1 0x24 PUSH1 0x0 REVERT JUMPDEST MLOAD SWAP1 PUSH1 0x1 PUSH1 0x1 PUSH1 0xA0 SHL SUB DUP3 AND DUP3 SUB PUSH3 0x1E8 JUMPI JUMP INVALID PUSH1 0x80 PUSH1 0x40 MSTORE PUSH1 0x4 CALLDATASIZE LT ISZERO PUSH2 0x12 JUMPI PUSH1 0x0 DUP1 REVERT JUMPDEST PUSH1 0x0 DUP1 CALLDATALOAD PUSH1 0xE0 SHR DUP1 PUSH4 0x9CC027B EQ PUSH2 0x17FF JUMPI DUP1 PUSH4 0xD38218A EQ PUSH2 0x17D6 JUMPI DUP1 PUSH4 0x116191B6 EQ PUSH2 0x1791 JUMPI DUP1 PUSH4 0x167A6F90 EQ PUSH2 0x1712 JUMPI DUP1 PUSH4 0x1A98B2E0 EQ PUSH2 0x12C1 JUMPI DUP1 PUSH4 0x21477960 EQ PUSH2 0x1172 JUMPI DUP1 PUSH4 0x3CA2FD8E EQ PUSH2 0x1133 JUMPI DUP1 PUSH4 0x3F4BA83A EQ PUSH2 0x10CB JUMPI DUP1 PUSH4 0x49160658 EQ PUSH2 0xF33 JUMPI DUP1 PUSH4 0x52C41EB6 EQ PUSH2 0xBBE JUMPI DUP1 PUSH4 0x554BAB3C EQ PUSH2 0xB48 JUMPI DUP1 PUSH4 0x58181A80 EQ PUSH2 0x9AE JUMPI DUP1 PUSH4 0x5C975ABB EQ PUSH2 0x981 JUMPI DUP1 PUSH4 0x8291286C EQ PUSH2 0x946 JUMPI DUP1 PUSH4 0x8456CB59 EQ PUSH2 0x8CB JUMPI DUP1 PUSH4 0x846A1BC6 EQ PUSH2 0x57C JUMPI DUP1 PUSH4 0x9A7165E4 EQ PUSH2 0x546 JUMPI DUP1 PUSH4 0x9FD0506D EQ PUSH2 0x510 JUMPI DUP1 PUSH4 0xD0224434 EQ PUSH2 0x4BC JUMPI DUP1 PUSH4 0xE888E86C EQ PUSH2 0x138 JUMPI PUSH4 0xFACD28A9 EQ PUSH2 0x104 JUMPI PUSH1 0x0 DUP1 REVERT JUMPDEST CALLVALUE PUSH2 0x135 JUMPI PUSH1 0x20 PUSH2 0x123 PUSH2 0x117 CALLDATASIZE PUSH2 0x1B0D JUMP JUMPDEST SWAP5 SWAP4 SWAP1 SWAP4 SWAP3 SWAP2 SWAP3 PUSH2 0x1BE4 JUMP JUMPDEST PUSH1 0x40 MLOAD PUSH1 0x1 PUSH1 0x1 PUSH1 0xA0 SHL SUB SWAP1 SWAP2 AND DUP2 MSTORE RETURN JUMPDEST DUP1 REVERT JUMPDEST POP CALLVALUE PUSH2 0x135 JUMPI PUSH2 0x17A PUSH2 0x14A CALLDATASIZE PUSH2 0x184F JUMP JUMPDEST SWAP2 SWAP9 SWAP8 SWAP3 SWAP6 SWAP4 SWAP7 SWAP1 SWAP5 DUP10 DUP12 PUSH1 0x20 PUSH1 0x40 MLOAD DUP1 DUP1 SWAP14 DUP2 SWAP6 PUSH4 0x49AD89FB PUSH1 0xE1 SHL DUP4 MSTORE DUP5 PUSH1 0x4 DUP5 ADD MSTORE DUP13 PUSH1 0x24 DUP5 ADD SWAP2 PUSH2 0x1B72 JUMP JUMPDEST PUSH32 0x0 PUSH1 0x1 PUSH1 0x1 PUSH1 0xA0 SHL SUB AND SWAP15 SWAP2 SWAP1 SUB SWAP1 DUP15 GAS STATICCALL DUP1 ISZERO PUSH2 0x4AF JUMPI PUSH2 0x1C6 SWAP3 DUP7 SWAP3 SWAP2 PUSH2 0x490 JUMPI JUMPDEST POP CALLER SWAP1 PUSH2 0x1D9A JUMP JUMPDEST PUSH1 0x1 PUSH1 0x1 PUSH1 0xA0 SHL SUB PUSH2 0x1DF DUP5 DUP9 DUP14 DUP12 DUP14 DUP8 DUP13 DUP11 DUP14 PUSH2 0x1C6D JUMP JUMPDEST AND PUSH2 0x47E JUMPI PUSH2 0x20F SWAP3 DUP7 DUP12 DUP10 DUP12 PUSH2 0x201 SWAP6 PUSH1 0x40 MLOAD SWAP11 DUP12 SWAP9 PUSH1 0x20 DUP11 ADD SWAP12 DUP13 PUSH2 0x1C1F JUMP JUMPDEST SUB PUSH1 0x1F NOT DUP2 ADD DUP5 MSTORE DUP4 PUSH2 0x195D JUMP JUMPDEST CALLER SWAP2 MLOAD SWAP1 KECCAK256 SSTORE DUP2 DUP4 ADD PUSH1 0x40 DUP5 DUP3 SUB SLT PUSH2 0x3EF JUMPI DUP4 CALLDATALOAD SWAP1 PUSH1 0x1 PUSH1 0x1 PUSH1 0x40 SHL SUB DUP3 GT PUSH2 0x47A JUMPI PUSH2 0x23E SWAP2 DUP6 ADD PUSH2 0x1AF2 JUMP JUMPDEST SWAP1 PUSH1 0x20 DUP5 ADD CALLDATALOAD SWAP6 PUSH1 0x1 DUP1 PUSH1 0xA0 SHL SUB DUP8 AND DUP1 SWAP8 SUB PUSH2 0x47A JUMPI PUSH2 0x27F SWAP6 PUSH1 0x20 SWAP3 PUSH1 0x40 MLOAD DUP1 SWAP9 DUP2 SWAP5 DUP3 SWAP4 PUSH4 0x49AD89FB PUSH1 0xE1 SHL DUP5 MSTORE DUP8 PUSH1 0x4 DUP6 ADD MSTORE PUSH1 0x24 DUP5 ADD SWAP2 PUSH2 0x1B72 JUMP JUMPDEST SUB SWAP2 GAS STATICCALL SWAP4 DUP5 ISZERO PUSH2 0x46F JUMPI DUP7 SWAP5 PUSH2 0x43E JUMPI JUMPDEST POP PUSH1 0x40 MLOAD PUSH4 0x70A08231 PUSH1 0xE0 SHL DUP2 MSTORE ADDRESS PUSH1 0x4 DUP3 ADD MSTORE SWAP1 DUP7 SWAP1 PUSH1 0x20 DUP4 PUSH1 0x24 DUP2 PUSH1 0x1 PUSH1 0x1 PUSH1 0xA0 SHL SUB DUP11 AND GAS STATICCALL SWAP3 DUP4 ISZERO PUSH2 0x433 JUMPI DUP3 SWAP4 PUSH2 0x3F7 JUMPI JUMPDEST POP PUSH32 0x0 PUSH1 0x1 PUSH1 0x1 PUSH1 0xA0 SHL SUB AND PUSH2 0x2FE DUP5 DUP3 DUP10 PUSH2 0x2171 JUMP JUMPDEST DUP1 EXTCODESIZE ISZERO PUSH2 0x3F3 JUMPI PUSH2 0x328 DUP4 SWAP3 SWAP2 DUP4 SWAP3 PUSH1 0x40 MLOAD SWAP6 DUP7 DUP1 SWAP5 DUP2 SWAP4 PUSH3 0x1F0FDF PUSH1 0xEB SHL DUP4 MSTORE PUSH1 0x4 DUP4 ADD PUSH2 0x1E06 JUMP JUMPDEST SUB SWAP3 GAS CALL SWAP2 DUP3 PUSH2 0x3DB JUMPI JUMPDEST POP POP PUSH2 0x39E JUMPI PUSH32 0xDD7B1484DB8D21F4FBDA2407F2920037DC379DD66E18B0851AA9D6C14EF493B9 SWAP3 PUSH2 0x398 SWAP3 PUSH2 0x375 PUSH2 0x37C SWAP4 DUP9 PUSH2 0x36F PUSH2 0x1CAD JUMP JUMPDEST SWAP9 PUSH2 0x1CDD JUMP JUMPDEST CALLDATASIZE SWAP2 PUSH2 0x1999 JUMP JUMPDEST PUSH1 0x20 DUP2 MLOAD SWAP2 ADD KECCAK256 SWAP3 PUSH1 0x40 MLOAD SWAP2 DUP3 SWAP2 PUSH1 0x20 DUP4 MSTORE PUSH1 0x20 DUP4 ADD SWAP1 PUSH2 0x1DC6 JUMP JUMPDEST SUB SWAP1 LOG3 DUP1 RETURN JUMPDEST POP PUSH2 0x3AD SWAP4 POP CALLDATASIZE SWAP3 POP SWAP1 PUSH2 0x1999 JUMP JUMPDEST PUSH1 0x20 DUP2 MLOAD SWAP2 ADD KECCAK256 PUSH32 0x7C3AA10C5D96985BE6DE7D2E6FA79BDEF95A95A9CB272F4113B3FE1CA89FEDAE DUP3 DUP1 LOG2 DUP1 RETURN JUMPDEST PUSH2 0x3E4 SWAP1 PUSH2 0x1919 JUMP JUMPDEST PUSH2 0x3EF JUMPI DUP7 CODESIZE PUSH2 0x333 JUMP JUMPDEST DUP7 DUP1 REVERT JUMPDEST DUP3 DUP1 REVERT JUMPDEST SWAP2 POP SWAP2 POP PUSH1 0x20 DUP2 RETURNDATASIZE PUSH1 0x20 GT PUSH2 0x42B JUMPI JUMPDEST DUP2 PUSH2 0x414 PUSH1 0x20 SWAP4 DUP4 PUSH2 0x195D JUMP JUMPDEST DUP2 ADD SUB SLT PUSH2 0x426 JUMPI DUP7 SWAP1 MLOAD SWAP2 CODESIZE PUSH2 0x2C8 JUMP JUMPDEST PUSH1 0x0 DUP1 REVERT JUMPDEST RETURNDATASIZE SWAP2 POP PUSH2 0x407 JUMP JUMPDEST PUSH1 0x40 MLOAD RETURNDATASIZE DUP5 DUP3 RETURNDATACOPY RETURNDATASIZE SWAP1 REVERT JUMPDEST PUSH2 0x461 SWAP2 SWAP5 POP PUSH1 0x20 RETURNDATASIZE PUSH1 0x20 GT PUSH2 0x468 JUMPI JUMPDEST PUSH2 0x459 DUP2 DUP4 PUSH2 0x195D JUMP JUMPDEST DUP2 ADD SWAP1 PUSH2 0x1C8E JUMP JUMPDEST SWAP3 CODESIZE PUSH2 0x291 JUMP JUMPDEST POP RETURNDATASIZE PUSH2 0x44F JUMP JUMPDEST PUSH1 0x40 MLOAD RETURNDATASIZE DUP9 DUP3 RETURNDATACOPY RETURNDATASIZE SWAP1 REVERT JUMPDEST DUP8 DUP1 REVERT JUMPDEST PUSH1 0x40 MLOAD PUSH4 0x35B7D55 PUSH1 0xE4 SHL DUP2 MSTORE PUSH1 0x4 SWAP1 REVERT JUMPDEST PUSH2 0x4A9 SWAP2 POP PUSH1 0x20 RETURNDATASIZE PUSH1 0x20 GT PUSH2 0x468 JUMPI PUSH2 0x459 DUP2 DUP4 PUSH2 0x195D JUMP JUMPDEST CODESIZE PUSH2 0x1BE JUMP JUMPDEST POP PUSH1 0x40 MLOAD SWAP1 RETURNDATASIZE SWAP1 DUP3 RETURNDATACOPY RETURNDATASIZE SWAP1 REVERT JUMPDEST POP CALLVALUE PUSH2 0x135 JUMPI PUSH2 0x4CB CALLDATASIZE PUSH2 0x1B0D JUMP JUMPDEST SWAP3 SWAP5 SWAP4 SWAP1 SWAP3 SWAP1 SWAP2 SWAP1 PUSH1 0x1 PUSH1 0x1 PUSH1 0xA0 SHL SUB PUSH2 0x4E9 DUP3 DUP7 DUP6 DUP11 DUP9 DUP12 PUSH2 0x1BE4 JUMP JUMPDEST AND PUSH2 0x47E JUMPI PUSH2 0x507 SWAP4 PUSH2 0x201 SWAP3 PUSH1 0x40 MLOAD SWAP8 DUP9 SWAP6 PUSH1 0x20 DUP8 ADD SWAP9 DUP10 PUSH2 0x1B93 JUMP JUMPDEST CALLER SWAP2 MLOAD SWAP1 KECCAK256 SSTORE DUP1 RETURN JUMPDEST POP CALLVALUE PUSH2 0x135 JUMPI DUP1 PUSH1 0x3 NOT CALLDATASIZE ADD SLT PUSH2 0x135 JUMPI PUSH1 0x0 DUP1 MLOAD PUSH1 0x20 PUSH2 0x22F0 DUP4 CODECOPY DUP2 MLOAD SWAP2 MSTORE SLOAD PUSH1 0x40 MLOAD PUSH1 0x1 PUSH1 0x1 PUSH1 0xA0 SHL SUB SWAP1 SWAP2 AND DUP2 MSTORE PUSH1 0x20 SWAP1 RETURN JUMPDEST POP CALLVALUE PUSH2 0x135 JUMPI DUP1 PUSH1 0x3 NOT CALLDATASIZE ADD SLT PUSH2 0x135 JUMPI PUSH1 0x0 DUP1 MLOAD PUSH1 0x20 PUSH2 0x22D0 DUP4 CODECOPY DUP2 MLOAD SWAP2 MSTORE SLOAD PUSH1 0x40 MLOAD PUSH1 0x1 PUSH1 0x1 PUSH1 0xA0 SHL SUB SWAP1 SWAP2 AND DUP2 MSTORE PUSH1 0x20 SWAP1 RETURN JUMPDEST POP PUSH2 0x120 CALLDATASIZE PUSH1 0x3 NOT ADD SLT PUSH2 0x135 JUMPI PUSH2 0x592 PUSH2 0x18D3 JUMP JUMPDEST PUSH1 0x1 PUSH1 0x1 PUSH1 0x40 SHL SUB SWAP1 PUSH1 0x44 CALLDATALOAD DUP3 DUP2 GT PUSH2 0x8C7 JUMPI PUSH2 0x5B3 SWAP1 CALLDATASIZE SWAP1 PUSH1 0x4 ADD PUSH2 0x18E9 JUMP JUMPDEST SWAP2 PUSH1 0x64 CALLDATALOAD DUP5 DUP2 GT PUSH2 0x8C3 JUMPI PUSH2 0x5CC SWAP1 CALLDATASIZE SWAP1 PUSH1 0x4 ADD PUSH2 0x1822 JUMP JUMPDEST SWAP4 SWAP1 SWAP3 PUSH1 0x84 CALLDATALOAD DUP7 DUP2 GT PUSH2 0x47A JUMPI PUSH2 0x5E7 SWAP1 CALLDATASIZE SWAP1 PUSH1 0x4 ADD PUSH2 0x1822 JUMP JUMPDEST PUSH1 0xA4 SWAP8 SWAP2 SWAP8 CALLDATALOAD DUP3 DUP2 GT PUSH2 0x8BF JUMPI PUSH2 0x602 SWAP1 CALLDATASIZE SWAP1 PUSH1 0x4 ADD PUSH2 0x1822 JUMP JUMPDEST SWAP4 SWAP1 SWAP3 PUSH1 0xC4 CALLDATALOAD SWAP1 DUP2 GT PUSH2 0x8BB JUMPI PUSH2 0x61D SWAP1 CALLDATASIZE SWAP1 PUSH1 0x4 ADD PUSH2 0x1822 JUMP JUMPDEST SWAP7 SWAP1 SWAP6 PUSH1 0xE4 CALLDATALOAD PUSH1 0x1 PUSH1 0x1 PUSH1 0xA0 SHL SUB DUP2 AND SWAP1 SUB PUSH2 0x426 JUMPI PUSH2 0x104 CALLDATALOAD ISZERO ISZERO PUSH2 0x104 CALLDATALOAD SUB PUSH2 0x426 JUMPI PUSH1 0x0 DUP1 MLOAD PUSH1 0x20 PUSH2 0x22B0 DUP4 CODECOPY DUP2 MLOAD SWAP2 MSTORE SLOAD PUSH2 0x8A9 JUMPI DUP12 SWAP3 PUSH2 0x663 SWAP2 CALLDATASIZE SWAP2 PUSH2 0x19EE JUMP JUMPDEST SWAP1 DUP3 SWAP1 PUSH1 0x1 PUSH1 0x1 PUSH1 0xA0 SHL SUB DUP2 AND PUSH20 0xEEEEEEEEEEEEEEEEEEEEEEEEEEEEEEEEEEEEEEEE SUB PUSH2 0x7D4 JUMPI POP POP PUSH1 0x24 CALLDATALOAD JUMPDEST PUSH32 0x0 PUSH1 0x1 PUSH1 0x1 PUSH1 0xA0 SHL SUB AND EXTCODESIZE ISZERO PUSH2 0x3F3 JUMPI PUSH2 0x6E0 SWAP2 DUP4 SWAP2 PUSH1 0x40 MLOAD DUP1 DUP1 SWAP6 DUP2 SWAP5 PUSH3 0x1F0FDF PUSH1 0xEB SHL DUP4 MSTORE PUSH1 0x4 DUP4 ADD PUSH2 0x1E06 JUMP JUMPDEST SUB SWAP2 PUSH32 0x0 PUSH1 0x1 PUSH1 0x1 PUSH1 0xA0 SHL SUB AND GAS CALL DUP1 ISZERO PUSH2 0x433 JUMPI PUSH2 0x7BC JUMPI JUMPDEST POP POP PUSH1 0x40 MLOAD SWAP8 PUSH4 0x49AD89FB PUSH1 0xE1 SHL DUP10 MSTORE PUSH1 0x20 PUSH1 0x4 DUP11 ADD MSTORE PUSH1 0x20 DUP10 DUP1 PUSH2 0x742 PUSH1 0x24 DUP3 ADD DUP13 DUP13 PUSH2 0x1B72 JUMP JUMPDEST SUB DUP2 PUSH32 0x0 PUSH1 0x1 PUSH1 0x1 PUSH1 0xA0 SHL SUB AND GAS STATICCALL DUP1 ISZERO PUSH2 0x7B1 JUMPI PUSH2 0x790 SWAP10 DUP12 SWAP2 PUSH2 0x793 JUMPI JUMPDEST POP PUSH2 0x104 CALLDATALOAD SWAP9 PUSH1 0xE4 CALLDATALOAD SWAP9 PUSH2 0x1ED6 JUMP JUMPDEST DUP1 RETURN JUMPDEST PUSH2 0x7AB SWAP2 POP PUSH1 0x20 RETURNDATASIZE DUP2 GT PUSH2 0x468 JUMPI PUSH2 0x459 DUP2 DUP4 PUSH2 0x195D JUMP JUMPDEST CODESIZE PUSH2 0x781 JUMP JUMPDEST PUSH1 0x40 MLOAD RETURNDATASIZE DUP13 DUP3 RETURNDATACOPY RETURNDATASIZE SWAP1 REVERT JUMPDEST PUSH2 0x7C5 SWAP1 PUSH2 0x1919 JUMP JUMPDEST PUSH2 0x7D0 JUMPI DUP9 CODESIZE PUSH2 0x719 JUMP JUMPDEST DUP9 DUP1 REVERT JUMPDEST SWAP1 SWAP3 DUP1 PUSH1 0x40 MLOAD PUSH1 0x20 DUP2 ADD SWAP1 PUSH4 0x23B872DD PUSH1 0xE0 SHL DUP3 MSTORE PUSH2 0x834 DUP2 PUSH2 0x826 PUSH1 0x24 CALLDATALOAD PUSH1 0x1 DUP1 PUSH1 0xA0 SHL SUB PUSH32 0x0 AND CALLER PUSH1 0x24 DUP6 ADD PUSH2 0x1D78 JUMP JUMPDEST SUB PUSH1 0x1F NOT DUP2 ADD DUP4 MSTORE DUP3 PUSH2 0x195D JUMP JUMPDEST MLOAD SWAP1 DUP3 DUP6 GAS CALL PUSH2 0x842 PUSH2 0x1CAD JUMP JUMPDEST DUP2 PUSH2 0x87A JUMPI JUMPDEST POP ISZERO SWAP1 DUP2 ISZERO PUSH2 0x870 JUMPI JUMPDEST POP PUSH2 0x85E JUMPI DUP11 SWAP2 PUSH2 0x690 JUMP JUMPDEST PUSH1 0x40 MLOAD PUSH4 0x12171D83 PUSH1 0xE3 SHL DUP2 MSTORE PUSH1 0x4 SWAP1 REVERT JUMPDEST SWAP1 POP EXTCODESIZE ISZERO CODESIZE PUSH2 0x852 JUMP JUMPDEST DUP1 MLOAD DUP1 ISZERO SWAP3 POP DUP3 ISZERO PUSH2 0x88F JUMPI JUMPDEST POP POP CODESIZE PUSH2 0x848 JUMP JUMPDEST PUSH2 0x8A2 SWAP3 POP PUSH1 0x20 DUP1 SWAP2 DUP4 ADD ADD SWAP2 ADD PUSH2 0x1C07 JUMP JUMPDEST CODESIZE DUP1 PUSH2 0x887 JUMP JUMPDEST PUSH1 0x40 MLOAD PUSH4 0x6D39FCD PUSH1 0xE4 SHL DUP2 MSTORE PUSH1 0x4 SWAP1 REVERT JUMPDEST DUP11 DUP1 REVERT JUMPDEST DUP10 DUP1 REVERT JUMPDEST DUP6 DUP1 REVERT JUMPDEST DUP4 DUP1 REVERT JUMPDEST POP CALLVALUE PUSH2 0x135 JUMPI DUP1 PUSH1 0x3 NOT CALLDATASIZE ADD SLT PUSH2 0x135 JUMPI PUSH1 0x0 DUP1 MLOAD PUSH1 0x20 PUSH2 0x22F0 DUP4 CODECOPY DUP2 MLOAD SWAP2 MSTORE SLOAD PUSH1 0x1 PUSH1 0x1 PUSH1 0xA0 SHL SUB AND CALLER SUB PUSH2 0x934 JUMPI PUSH1 0x1 PUSH1 0x0 DUP1 MLOAD PUSH1 0x20 PUSH2 0x22B0 DUP4 CODECOPY DUP2 MLOAD SWAP2 MSTORE SSTORE PUSH32 0x9E87FAC88FF661F02D44F95383C817FECE4BCE600A3DAB7A54406878B965E752 DUP2 DUP1 LOG1 DUP1 RETURN JUMPDEST PUSH1 0x40 MLOAD PUSH4 0x492F6781 PUSH1 0xE0 SHL DUP2 MSTORE PUSH1 0x4 SWAP1 REVERT JUMPDEST POP CALLVALUE PUSH2 0x135 JUMPI DUP1 PUSH1 0x3 NOT CALLDATASIZE ADD SLT PUSH2 0x135 JUMPI PUSH1 0x20 PUSH1 0x40 MLOAD PUSH32 0xC097D45E5A99CA772AB5EC2E5457C2E249760944B95B0B97CBB6B03EC55BAE84 DUP2 MSTORE RETURN JUMPDEST POP CALLVALUE PUSH2 0x135 JUMPI DUP1 PUSH1 0x3 NOT CALLDATASIZE ADD SLT PUSH2 0x135 JUMPI PUSH1 0x20 PUSH1 0x0 DUP1 MLOAD PUSH1 0x20 PUSH2 0x22B0 DUP4 CODECOPY DUP2 MLOAD SWAP2 MSTORE SLOAD PUSH1 0x40 MLOAD SWAP1 ISZERO ISZERO DUP2 MSTORE RETURN JUMPDEST POP PUSH1 0x60 CALLDATASIZE PUSH1 0x3 NOT ADD SLT PUSH2 0x135 JUMPI PUSH2 0x9C3 PUSH2 0x18D3 JUMP JUMPDEST PUSH1 0x24 CALLDATALOAD SWAP1 PUSH1 0x44 CALLDATALOAD PUSH1 0x1 PUSH1 0x1 PUSH1 0x40 SHL SUB DUP2 GT PUSH2 0x8C7 JUMPI PUSH2 0x9E6 SWAP1 CALLDATASIZE SWAP1 PUSH1 0x4 ADD PUSH2 0x1AF2 JUMP JUMPDEST PUSH1 0x0 DUP1 MLOAD PUSH1 0x20 PUSH2 0x22B0 DUP4 CODECOPY DUP2 MLOAD SWAP2 MSTORE SLOAD PUSH2 0x8A9 JUMPI DUP4 SWAP3 PUSH1 0x1 PUSH1 0x1 PUSH1 0xA0 SHL SUB SWAP3 DUP5 SWAP1 DUP1 DUP6 AND PUSH20 0xEEEEEEEEEEEEEEEEEEEEEEEEEEEEEEEEEEEEEEEE SUB PUSH2 0xA99 JUMPI POP POP SWAP2 JUMPDEST PUSH32 0x0 AND SWAP1 DUP2 EXTCODESIZE ISZERO PUSH2 0xA94 JUMPI DUP4 SWAP2 PUSH2 0xA73 SWAP2 PUSH1 0x40 MLOAD SWAP5 DUP6 DUP1 SWAP5 DUP2 SWAP4 PUSH3 0x1F0FDF PUSH1 0xEB SHL DUP4 MSTORE PUSH1 0x4 DUP4 ADD PUSH2 0x1E06 JUMP JUMPDEST SUB SWAP3 GAS CALL DUP1 ISZERO PUSH2 0x433 JUMPI PUSH2 0xA84 JUMPI POP RETURN JUMPDEST PUSH2 0xA8D SWAP1 PUSH2 0x1919 JUMP JUMPDEST PUSH2 0x135 JUMPI DUP1 RETURN JUMPDEST POP POP POP REVERT JUMPDEST SWAP2 SWAP5 DUP1 SWAP2 SWAP5 SWAP6 PUSH1 0x40 MLOAD PUSH2 0xAE5 DUP2 PUSH2 0x826 PUSH1 0x20 DUP3 ADD SWAP5 PUSH4 0x23B872DD PUSH1 0xE0 SHL DUP7 MSTORE DUP12 PUSH32 0x0 AND CALLER PUSH1 0x24 DUP6 ADD PUSH2 0x1D78 JUMP JUMPDEST MLOAD SWAP1 DUP3 DUP6 GAS CALL PUSH2 0xAF3 PUSH2 0x1CAD JUMP JUMPDEST DUP2 PUSH2 0xB19 JUMPI JUMPDEST POP ISZERO SWAP1 DUP2 ISZERO PUSH2 0xB0F JUMPI JUMPDEST POP PUSH2 0x85E JUMPI DUP4 SWAP3 PUSH2 0xA28 JUMP JUMPDEST SWAP1 POP EXTCODESIZE ISZERO CODESIZE PUSH2 0xB03 JUMP JUMPDEST DUP1 MLOAD DUP1 ISZERO SWAP3 POP DUP3 ISZERO PUSH2 0xB2E JUMPI JUMPDEST POP POP CODESIZE PUSH2 0xAF9 JUMP JUMPDEST PUSH2 0xB41 SWAP3 POP PUSH1 0x20 DUP1 SWAP2 DUP4 ADD ADD SWAP2 ADD PUSH2 0x1C07 JUMP JUMPDEST CODESIZE DUP1 PUSH2 0xB26 JUMP JUMPDEST POP CALLVALUE PUSH2 0x135 JUMPI PUSH1 0x20 CALLDATASIZE PUSH1 0x3 NOT ADD SLT PUSH2 0x135 JUMPI PUSH2 0xB62 PUSH2 0x18D3 JUMP JUMPDEST PUSH1 0x0 DUP1 MLOAD PUSH1 0x20 PUSH2 0x22F0 DUP4 CODECOPY DUP2 MLOAD SWAP2 MSTORE SLOAD PUSH1 0x1 PUSH1 0x1 PUSH1 0xA0 SHL SUB SWAP2 SWAP1 DUP3 AND CALLER SUB PUSH2 0x934 JUMPI DUP1 PUSH1 0x0 DUP1 MLOAD PUSH1 0x20 PUSH2 0x22D0 DUP4 CODECOPY DUP2 MLOAD SWAP2 MSTORE SSTORE AND CALLER PUSH32 0x3210EDD3F0FC490FFC59A4ADAE6F48DBDA2D8E89AFE5B37A0145A54762F3ECF9 DUP4 DUP1 LOG3 DUP1 RETURN JUMPDEST POP PUSH1 0x3 NOT PUSH1 0xC0 CALLDATASIZE DUP3 ADD SLT PUSH2 0xF2F JUMPI PUSH2 0xBD4 PUSH2 0x18D3 JUMP JUMPDEST PUSH1 0x1 PUSH1 0x1 PUSH1 0x40 SHL SUB SWAP2 PUSH1 0x24 CALLDATALOAD SWAP2 PUSH1 0x44 CALLDATALOAD DUP5 DUP2 GT PUSH2 0x8C3 JUMPI PUSH2 0xBF9 SWAP1 CALLDATASIZE SWAP1 PUSH1 0x4 ADD PUSH2 0x18E9 JUMP JUMPDEST SWAP1 SWAP5 PUSH1 0x64 CALLDATALOAD DUP2 DUP2 GT PUSH2 0x47A JUMPI PUSH2 0xC13 SWAP1 CALLDATASIZE SWAP1 PUSH1 0x4 ADD PUSH2 0x1822 JUMP JUMPDEST SWAP4 PUSH1 0x84 CALLDATALOAD DUP4 DUP2 GT PUSH2 0x8BF JUMPI PUSH2 0xC2C SWAP1 CALLDATASIZE SWAP1 PUSH1 0x4 ADD PUSH2 0x1822 JUMP JUMPDEST SWAP2 SWAP1 SWAP4 PUSH1 0xA4 CALLDATALOAD SWAP1 DUP2 GT PUSH2 0x8BB JUMPI PUSH2 0xC47 SWAP1 CALLDATASIZE SWAP1 PUSH1 0x4 ADD PUSH2 0x1822 JUMP JUMPDEST SWAP9 SWAP1 SWAP6 PUSH1 0x0 DUP1 MLOAD PUSH1 0x20 PUSH2 0x22B0 DUP4 CODECOPY DUP2 MLOAD SWAP2 MSTORE SLOAD PUSH2 0x8A9 JUMPI DUP12 SWAP11 PUSH2 0xC6B SWAP2 CALLDATASIZE SWAP2 PUSH2 0x19EE JUMP JUMPDEST PUSH1 0x1 PUSH1 0x1 PUSH1 0xA0 SHL SUB SWAP3 SWAP1 SWAP2 SWAP1 DUP12 SWAP1 DUP1 DUP6 AND PUSH20 0xEEEEEEEEEEEEEEEEEEEEEEEEEEEEEEEEEEEEEEEE SUB PUSH2 0xE80 JUMPI POP POP SWAP1 JUMPDEST DUP3 PUSH32 0x0 AND SWAP1 DUP2 EXTCODESIZE ISZERO PUSH2 0xE7C JUMPI DUP12 SWAP2 PUSH2 0xCE6 SWAP2 PUSH1 0x40 MLOAD SWAP5 DUP6 DUP1 SWAP5 DUP2 SWAP4 PUSH3 0x1F0FDF PUSH1 0xEB SHL DUP4 MSTORE PUSH1 0x4 DUP4 ADD PUSH2 0x1E06 JUMP JUMPDEST SUB SWAP3 GAS CALL SWAP1 DUP2 ISZERO PUSH2 0x7B1 JUMPI DUP11 SWAP2 PUSH2 0xE68 JUMPI JUMPDEST POP POP DUP1 PUSH32 0x0 AND SWAP5 PUSH1 0x40 MLOAD SWAP2 PUSH4 0x49AD89FB PUSH1 0xE1 SHL DUP4 MSTORE PUSH1 0x20 SWAP3 DUP4 PUSH1 0x4 DUP3 ADD MSTORE DUP4 DUP2 DUP1 PUSH2 0xD46 PUSH1 0x24 DUP3 ADD DUP14 DUP12 PUSH2 0x1B72 JUMP JUMPDEST SUB DUP2 DUP12 GAS STATICCALL SWAP1 DUP2 ISZERO PUSH2 0xE3D JUMPI DUP5 SWAP1 DUP14 SWAP3 PUSH2 0xE48 JUMPI JUMPDEST POP PUSH1 0x40 MLOAD PUSH4 0x70A08231 PUSH1 0xE0 SHL DUP2 MSTORE ADDRESS PUSH1 0x4 DUP3 ADD MSTORE SWAP2 SWAP3 DUP3 SWAP1 PUSH1 0x24 SWAP1 DUP3 SWAP1 DUP7 AND GAS STATICCALL SWAP4 DUP5 ISZERO PUSH2 0xE3D JUMPI DUP13 SWAP5 PUSH2 0xE08 JUMPI JUMPDEST POP POP DUP3 DUP8 PUSH2 0xD97 SWAP3 PUSH2 0x2171 JUMP JUMPDEST DUP6 EXTCODESIZE ISZERO PUSH2 0x8BF JUMPI DUP10 SWAP8 PUSH2 0xDD2 SWAP8 DUP10 SWAP6 PUSH2 0xDE2 PUSH2 0xDF1 SWAP5 PUSH1 0x40 MLOAD SWAP14 DUP15 SWAP13 DUP14 SWAP12 DUP13 SWAP11 PUSH4 0x26EF699D PUSH1 0xE0 SHL DUP13 MSTORE PUSH1 0x80 PUSH1 0x4 DUP14 ADD MSTORE PUSH1 0x84 DUP13 ADD SWAP2 PUSH2 0x1B72 JUMP JUMPDEST SWAP2 DUP7 DUP11 DUP5 SUB ADD PUSH1 0x24 DUP12 ADD MSTORE PUSH2 0x1B72 JUMP JUMPDEST SWAP3 DUP7 DUP5 SUB ADD PUSH1 0x44 DUP8 ADD MSTORE PUSH2 0x1B72 JUMP JUMPDEST SWAP1 PUSH1 0x64 DUP4 ADD MSTORE SUB SWAP3 GAS CALL DUP1 ISZERO PUSH2 0x433 JUMPI PUSH2 0xA84 JUMPI POP RETURN JUMPDEST DUP2 SWAP13 POP DUP1 SWAP3 SWAP5 POP RETURNDATASIZE DUP4 GT PUSH2 0xE36 JUMPI JUMPDEST PUSH2 0xE21 DUP2 DUP4 PUSH2 0x195D JUMP JUMPDEST DUP2 ADD SUB SLT PUSH2 0x426 JUMPI SWAP9 MLOAD DUP11 SWAP10 SWAP1 SWAP2 DUP1 DUP8 PUSH2 0xD8A JUMP JUMPDEST POP RETURNDATASIZE PUSH2 0xE17 JUMP JUMPDEST PUSH1 0x40 MLOAD RETURNDATASIZE DUP15 DUP3 RETURNDATACOPY RETURNDATASIZE SWAP1 REVERT JUMPDEST PUSH1 0x24 SWAP3 POP PUSH2 0xE62 SWAP1 DUP3 RETURNDATASIZE DUP5 GT PUSH2 0x468 JUMPI PUSH2 0x459 DUP2 DUP4 PUSH2 0x195D JUMP JUMPDEST SWAP2 PUSH2 0xD5B JUMP JUMPDEST PUSH2 0xE71 SWAP1 PUSH2 0x1919 JUMP JUMPDEST PUSH2 0x7D0 JUMPI DUP9 CODESIZE PUSH2 0xCF8 JUMP JUMPDEST DUP12 DUP1 REVERT JUMPDEST SWAP2 SWAP12 DUP1 SWAP2 SWAP4 SWAP13 PUSH1 0x40 MLOAD PUSH2 0xECC DUP2 PUSH2 0x826 PUSH1 0x20 DUP3 ADD SWAP5 PUSH4 0x23B872DD PUSH1 0xE0 SHL DUP7 MSTORE DUP11 PUSH32 0x0 AND CALLER PUSH1 0x24 DUP6 ADD PUSH2 0x1D78 JUMP JUMPDEST MLOAD SWAP1 DUP3 DUP6 GAS CALL PUSH2 0xEDA PUSH2 0x1CAD JUMP JUMPDEST DUP2 PUSH2 0xF00 JUMPI JUMPDEST POP ISZERO SWAP1 DUP2 ISZERO PUSH2 0xEF6 JUMPI JUMPDEST POP PUSH2 0x85E JUMPI DUP11 SWAP10 PUSH2 0xC9A JUMP JUMPDEST SWAP1 POP EXTCODESIZE ISZERO CODESIZE PUSH2 0xEEA JUMP JUMPDEST DUP1 MLOAD DUP1 ISZERO SWAP3 POP DUP3 ISZERO PUSH2 0xF15 JUMPI JUMPDEST POP POP CODESIZE PUSH2 0xEE0 JUMP JUMPDEST PUSH2 0xF28 SWAP3 POP PUSH1 0x20 DUP1 SWAP2 DUP4 ADD ADD SWAP2 ADD PUSH2 0x1C07 JUMP JUMPDEST CODESIZE DUP1 PUSH2 0xF0D JUMP JUMPDEST POP DUP1 REVERT JUMPDEST POP CALLVALUE PUSH2 0x135 JUMPI PUSH1 0x3 NOT PUSH1 0x80 CALLDATASIZE DUP3 ADD SLT PUSH2 0xF2F JUMPI PUSH1 0x1 PUSH1 0x1 PUSH1 0x40 SHL SUB SWAP1 PUSH1 0x24 CALLDATALOAD DUP3 DUP2 GT PUSH2 0x8C7 JUMPI PUSH2 0xF67 SWAP1 CALLDATASIZE SWAP1 PUSH1 0x4 ADD PUSH2 0x1822 JUMP JUMPDEST SWAP3 SWAP1 SWAP2 PUSH1 0x44 CALLDATALOAD DUP3 DUP2 GT PUSH2 0x8C3 JUMPI PUSH2 0xF82 SWAP1 CALLDATASIZE SWAP1 PUSH1 0x4 ADD PUSH2 0x1822 JUMP JUMPDEST SWAP5 SWAP1 SWAP3 PUSH1 0x64 CALLDATALOAD SWAP1 DUP2 GT PUSH2 0x3EF JUMPI PUSH2 0xF9D SWAP1 CALLDATASIZE SWAP1 PUSH1 0x4 ADD PUSH2 0x1822 JUMP JUMPDEST SWAP6 SWAP1 SWAP3 PUSH2 0xFAB CALLDATASIZE DUP9 DUP7 PUSH2 0x1999 JUMP JUMPDEST PUSH1 0x20 DUP2 MLOAD SWAP2 ADD KECCAK256 SWAP1 PUSH2 0xFF2 PUSH1 0x40 MLOAD SWAP2 PUSH4 0x5F6970C3 PUSH1 0xE0 SHL DUP4 MSTORE PUSH1 0x4 CALLDATALOAD PUSH1 0x4 DUP5 ADD MSTORE PUSH1 0x80 PUSH1 0x24 DUP5 ADD MSTORE PUSH2 0xFE1 PUSH1 0x84 DUP5 ADD DUP8 DUP12 PUSH2 0x1B72 JUMP JUMPDEST SWAP1 DUP4 DUP3 SUB ADD PUSH1 0x44 DUP5 ADD MSTORE DUP5 DUP9 PUSH2 0x1B72 JUMP JUMPDEST SWAP2 PUSH1 0x64 DUP3 ADD MSTORE PUSH1 0x20 DUP2 DUP1 PUSH1 0x1 DUP1 PUSH1 0xA0 SHL SUB SWAP5 SUB DUP2 DUP13 DUP7 PUSH32 0x0 AND GAS CALL SWAP1 DUP2 ISZERO PUSH2 0x10C0 JUMPI DUP10 SWAP2 PUSH2 0x1092 JUMPI JUMPDEST POP ISZERO PUSH2 0x1080 JUMPI PUSH2 0x104E DUP8 DUP6 DUP5 DUP9 DUP8 DUP12 PUSH2 0x1BE4 JUMP JUMPDEST AND ISZERO PUSH2 0x1077 JUMPI PUSH1 0x0 SWAP6 PUSH2 0x1070 SWAP4 PUSH2 0x826 SWAP3 PUSH1 0x40 MLOAD SWAP7 DUP8 SWAP6 PUSH1 0x20 DUP8 ADD SWAP10 DUP11 PUSH2 0x1B93 JUMP JUMPDEST MLOAD SWAP1 KECCAK256 SSTORE DUP1 RETURN JUMPDEST POP POP POP POP POP POP DUP1 RETURN JUMPDEST PUSH1 0x40 MLOAD PUSH4 0x1403112D PUSH1 0xE2 SHL DUP2 MSTORE PUSH1 0x4 SWAP1 REVERT JUMPDEST PUSH2 0x10B3 SWAP2 POP PUSH1 0x20 RETURNDATASIZE DUP2 GT PUSH2 0x10B9 JUMPI JUMPDEST PUSH2 0x10AB DUP2 DUP4 PUSH2 0x195D JUMP JUMPDEST DUP2 ADD SWAP1 PUSH2 0x1C07 JUMP JUMPDEST CODESIZE PUSH2 0x103A JUMP JUMPDEST POP RETURNDATASIZE PUSH2 0x10A1 JUMP JUMPDEST PUSH1 0x40 MLOAD RETURNDATASIZE DUP12 DUP3 RETURNDATACOPY RETURNDATASIZE SWAP1 REVERT JUMPDEST POP CALLVALUE PUSH2 0x135 JUMPI DUP1 PUSH1 0x3 NOT CALLDATASIZE ADD SLT PUSH2 0x135 JUMPI PUSH1 0x0 DUP1 MLOAD PUSH1 0x20 PUSH2 0x22F0 DUP4 CODECOPY DUP2 MLOAD SWAP2 MSTORE SLOAD PUSH1 0x1 PUSH1 0x1 PUSH1 0xA0 SHL SUB AND CALLER SUB PUSH2 0x934 JUMPI DUP1 PUSH1 0x0 DUP1 MLOAD PUSH1 0x20 PUSH2 0x22B0 DUP4 CODECOPY DUP2 MLOAD SWAP2 MSTORE SSTORE PUSH32 0xA45F47FDEA8A1EFDD9029A5691C7F759C32B7C698632B563573E155625D16933 DUP2 DUP1 LOG1 DUP1 RETURN JUMPDEST POP CALLVALUE PUSH2 0x135 JUMPI PUSH1 0x40 CALLDATASIZE PUSH1 0x3 NOT ADD SLT PUSH2 0x135 JUMPI PUSH1 0x24 CALLDATALOAD PUSH1 0x1 PUSH1 0x1 PUSH1 0x40 SHL SUB DUP2 GT PUSH2 0xF2F JUMPI PUSH2 0x1164 SWAP1 CALLDATASIZE SWAP1 PUSH1 0x4 ADD PUSH2 0x1822 JUMP JUMPDEST POP POP PUSH1 0x20 PUSH1 0x40 MLOAD PUSH1 0x4 CALLDATALOAD DUP2 MSTORE RETURN JUMPDEST POP PUSH1 0xE0 CALLDATASIZE PUSH1 0x3 NOT ADD SLT PUSH2 0x135 JUMPI PUSH1 0x1 PUSH1 0x1 PUSH1 0x40 SHL SUB PUSH1 0x4 CALLDATALOAD DUP2 DUP2 GT PUSH2 0x3F3 JUMPI PUSH2 0x119F SWAP1 CALLDATASIZE SWAP1 PUSH1 0x4 ADD PUSH2 0x1822 JUMP JUMPDEST SWAP1 SWAP2 PUSH1 0x44 CALLDATALOAD DUP2 DUP2 GT PUSH2 0x12BD JUMPI PUSH2 0x11B9 SWAP1 CALLDATASIZE SWAP1 PUSH1 0x4 ADD PUSH2 0x1822 JUMP JUMPDEST PUSH1 0x64 SWAP3 SWAP2 SWAP3 CALLDATALOAD DUP3 DUP2 GT PUSH2 0x3EF JUMPI PUSH2 0x11D4 SWAP1 CALLDATASIZE SWAP1 PUSH1 0x4 ADD PUSH2 0x1822 JUMP JUMPDEST SWAP1 SWAP3 PUSH1 0x84 CALLDATALOAD SWAP1 DUP2 GT PUSH2 0x47A JUMPI PUSH2 0x11EE SWAP1 CALLDATASIZE SWAP1 PUSH1 0x4 ADD PUSH2 0x1822 JUMP JUMPDEST PUSH1 0x1 PUSH1 0x1 PUSH1 0xA0 SHL SUB SWAP8 PUSH1 0xA4 CALLDATALOAD SWAP7 SWAP2 SWAP6 SWAP3 SWAP5 SWAP2 SWAP1 DUP10 DUP9 AND DUP9 SUB PUSH2 0x426 JUMPI PUSH1 0xC4 CALLDATALOAD SWAP9 DUP10 ISZERO ISZERO DUP11 SUB PUSH2 0x426 JUMPI PUSH1 0x0 DUP1 MLOAD PUSH1 0x20 PUSH2 0x22B0 DUP4 CODECOPY DUP2 MLOAD SWAP2 MSTORE SLOAD PUSH2 0x8A9 JUMPI PUSH1 0x20 PUSH1 0x40 MLOAD DUP1 SWAP13 PUSH4 0x49AD89FB PUSH1 0xE1 SHL DUP3 MSTORE DUP3 PUSH1 0x4 DUP4 ADD MSTORE DUP2 DUP1 PUSH2 0x1252 PUSH1 0x24 DUP3 ADD DUP8 DUP10 PUSH2 0x1B72 JUMP JUMPDEST SUB SWAP2 PUSH32 0x0 AND GAS STATICCALL SWAP2 DUP3 ISZERO PUSH2 0xE3D JUMPI PUSH2 0x790 SWAP12 DUP14 SWAP4 PUSH2 0x129D JUMPI JUMPDEST POP PUSH2 0x1298 PUSH1 0x24 CALLDATALOAD CALLER DUP6 PUSH2 0x1D9A JUMP JUMPDEST PUSH2 0x1ED6 JUMP JUMPDEST PUSH2 0x12B6 SWAP2 SWAP4 POP PUSH1 0x20 RETURNDATASIZE DUP2 GT PUSH2 0x468 JUMPI PUSH2 0x459 DUP2 DUP4 PUSH2 0x195D JUMP JUMPDEST SWAP2 CODESIZE PUSH2 0x128A JUMP JUMPDEST DUP5 DUP1 REVERT JUMPDEST POP CALLVALUE PUSH2 0x135 JUMPI PUSH1 0x3 NOT PUSH1 0xC0 CALLDATASIZE DUP3 ADD SLT PUSH2 0xF2F JUMPI PUSH1 0x24 CALLDATALOAD PUSH1 0x1 PUSH1 0x1 PUSH1 0x40 SHL SUB DUP2 GT PUSH2 0x3F3 JUMPI PUSH2 0x12F3 SWAP1 CALLDATASIZE SWAP1 PUSH1 0x4 ADD PUSH2 0x1822 JUMP JUMPDEST SWAP2 PUSH1 0x44 CALLDATALOAD PUSH1 0x1 PUSH1 0x1 PUSH1 0x40 SHL SUB DUP2 GT PUSH2 0x12BD JUMPI PUSH2 0x1313 SWAP1 CALLDATASIZE SWAP1 PUSH1 0x4 ADD PUSH2 0x1822 JUMP JUMPDEST PUSH1 0x64 SWAP5 SWAP2 SWAP5 CALLDATALOAD PUSH1 0x1 PUSH1 0x1 PUSH1 0x40 SHL SUB DUP2 GT PUSH2 0x3EF JUMPI PUSH2 0x1335 SWAP1 CALLDATASIZE SWAP1 PUSH1 0x4 ADD PUSH2 0x1822 JUMP JUMPDEST SWAP6 SWAP1 SWAP5 PUSH1 0x84 CALLDATALOAD SWAP7 PUSH1 0x1 PUSH1 0x1 PUSH1 0x40 SHL SUB DUP9 GT PUSH2 0x7D0 JUMPI PUSH2 0x13CB PUSH2 0x135D PUSH1 0x20 SWAP10 CALLDATASIZE SWAP1 PUSH1 0x4 ADD PUSH2 0x1822 JUMP JUMPDEST SWAP10 SWAP1 SWAP8 PUSH2 0x136B CALLDATASIZE DUP6 DUP13 PUSH2 0x1999 JUMP JUMPDEST DUP1 MLOAD SWAP1 DUP4 ADD KECCAK256 PUSH1 0x40 MLOAD PUSH4 0x1876EED9 PUSH1 0xE0 SHL DUP2 MSTORE PUSH1 0x4 DUP1 CALLDATALOAD SWAP1 DUP3 ADD MSTORE PUSH1 0xC0 PUSH1 0x24 DUP3 ADD MSTORE SWAP4 DUP5 SWAP3 DUP4 SWAP3 SWAP1 PUSH2 0x13B5 PUSH2 0x13A4 PUSH1 0xC4 DUP7 ADD DUP15 DUP13 PUSH2 0x1B72 JUMP JUMPDEST DUP3 DUP7 DUP3 SUB ADD PUSH1 0x44 DUP8 ADD MSTORE DUP13 DUP13 PUSH2 0x1B72 JUMP JUMPDEST SWAP2 PUSH1 0x64 DUP6 ADD MSTORE DUP4 DUP3 SUB ADD PUSH1 0x84 DUP5 ADD MSTORE DUP14 DUP13 PUSH2 0x1B72 JUMP JUMPDEST PUSH1 0xA4 DUP1 CALLDATALOAD SWAP1 DUP4 ADD MSTORE SUB DUP2 DUP14 PUSH32 0x0 PUSH1 0x1 PUSH1 0x1 PUSH1 0xA0 SHL SUB AND GAS CALL SWAP1 DUP2 ISZERO PUSH2 0x7B1 JUMPI DUP11 SWAP2 PUSH2 0x16F3 JUMPI JUMPDEST POP ISZERO PUSH2 0x1080 JUMPI PUSH2 0x1429 PUSH1 0xA4 CALLDATALOAD DUP10 DUP9 DUP5 DUP12 DUP10 DUP10 DUP13 DUP11 PUSH2 0x1C6D JUMP JUMPDEST SWAP7 PUSH1 0x1 PUSH1 0x1 PUSH1 0xA0 SHL SUB DUP9 AND ISZERO PUSH2 0x1501 JUMPI PUSH1 0x0 SWAP4 PUSH2 0x826 DUP9 SWAP8 SWAP5 DUP12 PUSH1 0x20 SWAP11 PUSH2 0x148B SWAP14 SWAP10 SWAP7 PUSH2 0x1464 SWAP7 PUSH1 0x40 MLOAD SWAP9 DUP10 SWAP8 DUP16 DUP10 ADD SWAP12 PUSH1 0xA4 CALLDATALOAD SWAP8 DUP14 PUSH2 0x1C1F JUMP JUMPDEST MLOAD SWAP1 KECCAK256 SSTORE PUSH1 0x40 MLOAD PUSH4 0x49AD89FB PUSH1 0xE1 SHL DUP2 MSTORE PUSH1 0x4 DUP2 ADD DUP5 SWAP1 MSTORE SWAP5 DUP6 SWAP3 DUP4 SWAP3 PUSH1 0x24 DUP5 ADD SWAP2 PUSH2 0x1B72 JUMP JUMPDEST SUB DUP2 PUSH32 0x0 PUSH1 0x1 PUSH1 0x1 PUSH1 0xA0 SHL SUB AND GAS STATICCALL SWAP1 DUP2 ISZERO PUSH2 0x14F6 JUMPI PUSH2 0x790 SWAP3 DUP5 SWAP3 PUSH2 0x14D5 JUMPI JUMPDEST POP PUSH1 0xA4 CALLDATALOAD SWAP2 PUSH2 0x1CDD JUMP JUMPDEST PUSH2 0x14EF SWAP2 SWAP3 POP PUSH1 0x20 RETURNDATASIZE PUSH1 0x20 GT PUSH2 0x468 JUMPI PUSH2 0x459 DUP2 DUP4 PUSH2 0x195D JUMP JUMPDEST SWAP1 CODESIZE PUSH2 0x14CB JUMP JUMPDEST PUSH1 0x40 MLOAD RETURNDATASIZE DUP6 DUP3 RETURNDATACOPY RETURNDATASIZE SWAP1 REVERT JUMPDEST SWAP6 SWAP7 POP SWAP4 POP POP POP POP DUP1 DUP3 ADD PUSH1 0x40 DUP4 DUP3 SUB SLT PUSH2 0x8C3 JUMPI DUP3 CALLDATALOAD SWAP1 PUSH1 0x1 PUSH1 0x1 PUSH1 0x40 SHL SUB DUP3 GT PUSH2 0x3EF JUMPI PUSH2 0x1532 SWAP2 DUP5 ADD PUSH2 0x1AF2 JUMP JUMPDEST PUSH1 0x20 DUP4 ADD CALLDATALOAD PUSH1 0x1 PUSH1 0x1 PUSH1 0xA0 SHL SUB DUP2 AND SWAP6 SWAP1 DUP7 SWAP1 SUB PUSH2 0x3EF JUMPI PUSH2 0x1573 SWAP5 PUSH1 0x20 SWAP2 PUSH1 0x40 MLOAD SWAP7 DUP8 SWAP3 DUP4 SWAP3 PUSH4 0x49AD89FB PUSH1 0xE1 SHL DUP5 MSTORE DUP6 PUSH1 0x4 DUP6 ADD MSTORE PUSH1 0x24 DUP5 ADD SWAP2 PUSH2 0x1B72 JUMP JUMPDEST SUB DUP2 PUSH32 0x0 PUSH1 0x1 PUSH1 0x1 PUSH1 0xA0 SHL SUB AND GAS STATICCALL SWAP4 DUP5 ISZERO PUSH2 0x46F JUMPI DUP7 SWAP5 PUSH2 0x16D2 JUMPI JUMPDEST POP PUSH1 0x40 MLOAD PUSH4 0x70A08231 PUSH1 0xE0 SHL DUP2 MSTORE ADDRESS PUSH1 0x4 DUP3 ADD MSTORE SWAP1 DUP7 SWAP1 PUSH1 0x20 DUP4 PUSH1 0x24 DUP2 PUSH1 0x1 PUSH1 0x1 PUSH1 0xA0 SHL SUB DUP11 AND GAS STATICCALL SWAP3 DUP4 ISZERO PUSH2 0x433 JUMPI DUP3 SWAP4 PUSH2 0x169E JUMPI JUMPDEST POP PUSH32 0x0 PUSH1 0x1 PUSH1 0x1 PUSH1 0xA0 SHL SUB AND SWAP1 PUSH2 0x161D DUP5 DUP4 DUP10 PUSH2 0x2171 JUMP JUMPDEST DUP2 EXTCODESIZE ISZERO PUSH2 0x3F3 JUMPI DUP3 SWAP2 PUSH2 0x1645 SWAP2 PUSH1 0x40 MLOAD SWAP5 DUP6 DUP1 SWAP5 DUP2 SWAP4 PUSH3 0x1F0FDF PUSH1 0xEB SHL DUP4 MSTORE PUSH1 0x4 DUP4 ADD PUSH2 0x1E06 JUMP JUMPDEST SUB SWAP3 GAS CALL SWAP1 DUP2 PUSH2 0x168B JUMPI JUMPDEST POP PUSH2 0x39E JUMPI PUSH32 0xDD7B1484DB8D21F4FBDA2407F2920037DC379DD66E18B0851AA9D6C14EF493B9 SWAP3 PUSH2 0x398 SWAP3 PUSH2 0x375 PUSH2 0x37C SWAP4 DUP9 PUSH2 0x36F PUSH2 0x1CAD JUMP JUMPDEST PUSH2 0x1697 SWAP1 SWAP8 SWAP2 SWAP8 PUSH2 0x1919 JUMP JUMPDEST SWAP6 CODESIZE PUSH2 0x1650 JUMP JUMPDEST SWAP1 SWAP3 POP PUSH1 0x20 DUP2 RETURNDATASIZE PUSH1 0x20 GT PUSH2 0x16CA JUMPI JUMPDEST DUP2 PUSH2 0x16BA PUSH1 0x20 SWAP4 DUP4 PUSH2 0x195D JUMP JUMPDEST DUP2 ADD SUB SLT PUSH2 0xF2F JUMPI MLOAD SWAP2 CODESIZE PUSH2 0x15E6 JUMP JUMPDEST RETURNDATASIZE SWAP2 POP PUSH2 0x16AD JUMP JUMPDEST PUSH2 0x16EC SWAP2 SWAP5 POP PUSH1 0x20 RETURNDATASIZE PUSH1 0x20 GT PUSH2 0x468 JUMPI PUSH2 0x459 DUP2 DUP4 PUSH2 0x195D JUMP JUMPDEST SWAP3 CODESIZE PUSH2 0x15AF JUMP JUMPDEST PUSH2 0x170C SWAP2 POP PUSH1 0x20 RETURNDATASIZE PUSH1 0x20 GT PUSH2 0x10B9 JUMPI PUSH2 0x10AB DUP2 DUP4 PUSH2 0x195D JUMP JUMPDEST CODESIZE PUSH2 0x1410 JUMP JUMPDEST POP CALLVALUE PUSH2 0x135 JUMPI DUP1 PUSH1 0x3 NOT CALLDATASIZE ADD SLT PUSH2 0x135 JUMPI PUSH1 0x0 DUP1 MLOAD PUSH1 0x20 PUSH2 0x22D0 DUP4 CODECOPY DUP2 MLOAD SWAP2 MSTORE DUP1 SLOAD PUSH1 0x1 PUSH1 0x1 PUSH1 0xA0 SHL SUB AND CALLER SUB PUSH2 0x177F JUMPI DUP2 SWAP1 CALLER PUSH1 0x0 DUP1 MLOAD PUSH1 0x20 PUSH2 0x22F0 DUP4 CODECOPY DUP2 MLOAD SWAP2 MSTORE SSTORE CALLER PUSH32 0xA4336C0CB1E245B95AD204FAED7E940D6DC999684FD8B5E1FF597A0C4EFCA8AB DUP4 DUP1 LOG2 SSTORE DUP1 RETURN JUMPDEST PUSH1 0x40 MLOAD PUSH4 0x16744E1B PUSH1 0xE3 SHL DUP2 MSTORE PUSH1 0x4 SWAP1 REVERT JUMPDEST POP CALLVALUE PUSH2 0x135 JUMPI DUP1 PUSH1 0x3 NOT CALLDATASIZE ADD SLT PUSH2 0x135 JUMPI PUSH1 0x40 MLOAD PUSH32 0x0 PUSH1 0x1 PUSH1 0x1 PUSH1 0xA0 SHL SUB AND DUP2 MSTORE PUSH1 0x20 SWAP1 RETURN JUMPDEST POP CALLVALUE PUSH2 0x135 JUMPI DUP1 PUSH1 0x3 NOT CALLDATASIZE ADD SLT PUSH2 0x135 JUMPI PUSH1 0x20 PUSH1 0x40 MLOAD PUSH1 0x0 DUP1 MLOAD PUSH1 0x20 PUSH2 0x2310 DUP4 CODECOPY DUP2 MLOAD SWAP2 MSTORE DUP2 MSTORE RETURN JUMPDEST POP CALLVALUE PUSH2 0x135 JUMPI PUSH1 0x20 PUSH2 0x123 PUSH2 0x1813 CALLDATASIZE PUSH2 0x184F JUMP JUMPDEST SWAP8 SWAP7 SWAP1 SWAP7 SWAP6 SWAP2 SWAP6 SWAP5 SWAP3 SWAP5 PUSH2 0x1C6D JUMP JUMPDEST SWAP2 DUP2 PUSH1 0x1F DUP5 ADD SLT ISZERO PUSH2 0x426 JUMPI DUP3 CALLDATALOAD SWAP2 PUSH1 0x1 PUSH1 0x1 PUSH1 0x40 SHL SUB DUP4 GT PUSH2 0x426 JUMPI PUSH1 0x20 DUP4 DUP2 DUP7 ADD SWAP6 ADD ADD GT PUSH2 0x426 JUMPI JUMP JUMPDEST PUSH1 0xA0 PUSH1 0x3 NOT DUP3 ADD SLT PUSH2 0x426 JUMPI PUSH1 0x1 PUSH1 0x1 PUSH1 0x40 SHL SUB SWAP1 PUSH1 0x4 CALLDATALOAD DUP3 DUP2 GT PUSH2 0x426 JUMPI DUP2 PUSH2 0x187B SWAP2 PUSH1 0x4 ADD PUSH2 0x1822 JUMP JUMPDEST SWAP4 SWAP1 SWAP4 SWAP3 PUSH1 0x24 CALLDATALOAD DUP2 DUP2 GT PUSH2 0x426 JUMPI DUP4 PUSH2 0x1896 SWAP2 PUSH1 0x4 ADD PUSH2 0x1822 JUMP JUMPDEST SWAP4 SWAP1 SWAP4 SWAP3 PUSH1 0x44 CALLDATALOAD DUP4 DUP2 GT PUSH2 0x426 JUMPI DUP3 PUSH2 0x18B1 SWAP2 PUSH1 0x4 ADD PUSH2 0x1822 JUMP JUMPDEST SWAP4 SWAP1 SWAP4 SWAP3 PUSH1 0x64 CALLDATALOAD SWAP2 DUP3 GT PUSH2 0x426 JUMPI PUSH2 0x18CB SWAP2 PUSH1 0x4 ADD PUSH2 0x1822 JUMP JUMPDEST SWAP1 SWAP2 PUSH1 0x84 CALLDATALOAD SWAP1 JUMP JUMPDEST PUSH1 0x4 CALLDATALOAD SWAP1 PUSH1 0x1 PUSH1 0x1 PUSH1 0xA0 SHL SUB DUP3 AND DUP3 SUB PUSH2 0x426 JUMPI JUMP JUMPDEST SWAP2 DUP2 PUSH1 0x1F DUP5 ADD SLT ISZERO PUSH2 0x426 JUMPI DUP3 CALLDATALOAD SWAP2 PUSH1 0x1 PUSH1 0x1 PUSH1 0x40 SHL SUB DUP4 GT PUSH2 0x426 JUMPI PUSH1 0x20 DUP1 DUP6 ADD SWAP5 DUP5 PUSH1 0x5 SHL ADD ADD GT PUSH2 0x426 JUMPI JUMP JUMPDEST PUSH1 0x1 PUSH1 0x1 PUSH1 0x40 SHL SUB DUP2 GT PUSH2 0x192C JUMPI PUSH1 0x40 MSTORE JUMP JUMPDEST PUSH4 0x4E487B71 PUSH1 0xE0 SHL PUSH1 0x0 MSTORE PUSH1 0x41 PUSH1 0x4 MSTORE PUSH1 0x24 PUSH1 0x0 REVERT JUMPDEST PUSH1 0x80 DUP2 ADD SWAP1 DUP2 LT PUSH1 0x1 PUSH1 0x1 PUSH1 0x40 SHL SUB DUP3 GT OR PUSH2 0x192C JUMPI PUSH1 0x40 MSTORE JUMP JUMPDEST SWAP1 PUSH1 0x1F DUP1 NOT SWAP2 ADD AND DUP2 ADD SWAP1 DUP2 LT PUSH1 0x1 PUSH1 0x1 PUSH1 0x40 SHL SUB DUP3 GT OR PUSH2 0x192C JUMPI PUSH1 0x40 MSTORE JUMP JUMPDEST PUSH1 0x1 PUSH1 0x1 PUSH1 0x40 SHL SUB DUP2 GT PUSH2 0x192C JUMPI PUSH1 0x1F ADD PUSH1 0x1F NOT AND PUSH1 0x20 ADD SWAP1 JUMP JUMPDEST SWAP3 SWAP2 SWAP3 PUSH2 0x19A5 DUP3 PUSH2 0x197E JUMP JUMPDEST SWAP2 PUSH2 0x19B3 PUSH1 0x40 MLOAD SWAP4 DUP5 PUSH2 0x195D JUMP JUMPDEST DUP3 SWAP5 DUP2 DUP5 MSTORE DUP2 DUP4 ADD GT PUSH2 0x426 JUMPI DUP3 DUP2 PUSH1 0x20 SWAP4 DUP5 PUSH1 0x0 SWAP7 ADD CALLDATACOPY ADD ADD MSTORE JUMP JUMPDEST SWAP1 DUP1 PUSH1 0x1F DUP4 ADD SLT ISZERO PUSH2 0x426 JUMPI DUP2 PUSH1 0x20 PUSH2 0x19EB SWAP4 CALLDATALOAD SWAP2 ADD PUSH2 0x1999 JUMP JUMPDEST SWAP1 JUMP JUMPDEST SWAP3 SWAP2 SWAP1 SWAP3 PUSH1 0x1 PUSH1 0x1 PUSH1 0x40 SHL SUB DUP1 DUP6 GT PUSH2 0x192C JUMPI DUP5 PUSH1 0x5 SHL PUSH1 0x40 DUP1 MLOAD SWAP5 PUSH1 0x20 DUP1 SWAP7 PUSH2 0x1A1A DUP3 DUP7 ADD DUP3 PUSH2 0x195D JUMP JUMPDEST DUP1 SWAP10 DUP2 MSTORE ADD SWAP3 DUP6 ADD SWAP5 DUP2 DUP7 GT PUSH2 0x426 JUMPI DUP1 SWAP4 JUMPDEST DUP7 DUP6 LT PUSH2 0x1A3E JUMPI POP POP POP POP POP POP POP POP JUMP JUMPDEST DUP5 CALLDATALOAD DUP7 DUP2 GT PUSH2 0x426 JUMPI DUP3 ADD PUSH1 0xA0 SWAP2 DUP3 DUP3 DUP7 SUB SLT PUSH2 0x426 JUMPI DUP6 MLOAD SWAP3 DUP4 ADD DUP4 DUP2 LT DUP10 DUP3 GT OR PUSH2 0x1ADD JUMPI DUP7 MSTORE DUP2 CALLDATALOAD PUSH1 0x4 DUP2 LT ISZERO PUSH2 0x426 JUMPI DUP4 MSTORE DUP2 DUP11 ADD CALLDATALOAD PUSH1 0x1 PUSH1 0x1 PUSH1 0xA0 SHL SUB DUP2 AND DUP2 SUB PUSH2 0x426 JUMPI DUP11 DUP5 ADD MSTORE DUP6 DUP3 ADD CALLDATALOAD DUP7 DUP5 ADD MSTORE PUSH1 0x60 DUP1 DUP4 ADD CALLDATALOAD DUP10 DUP2 GT PUSH2 0x426 JUMPI DUP7 PUSH2 0x1AAD SWAP2 DUP6 ADD PUSH2 0x19D0 JUMP JUMPDEST SWAP1 DUP5 ADD MSTORE PUSH1 0x80 SWAP3 DUP4 DUP4 ADD CALLDATALOAD SWAP4 DUP10 DUP6 GT PUSH2 0x426 JUMPI PUSH2 0x1ACE DUP8 DUP14 SWAP7 DUP8 SWAP7 ADD PUSH2 0x19D0 JUMP JUMPDEST SWAP1 DUP3 ADD MSTORE DUP2 MSTORE ADD SWAP5 ADD SWAP4 PUSH2 0x1A2D JUMP JUMPDEST PUSH1 0x24 PUSH1 0x0 PUSH4 0x4E487B71 PUSH1 0xE0 SHL DUP2 MSTORE PUSH1 0x41 PUSH1 0x4 MSTORE REVERT JUMPDEST SWAP1 DUP1 PUSH1 0x1F DUP4 ADD SLT ISZERO PUSH2 0x426 JUMPI DUP2 PUSH1 0x20 PUSH2 0x19EB SWAP4 CALLDATALOAD SWAP2 ADD PUSH2 0x19EE JUMP JUMPDEST SWAP1 PUSH1 0x60 PUSH1 0x3 NOT DUP4 ADD SLT PUSH2 0x426 JUMPI PUSH1 0x1 PUSH1 0x1 PUSH1 0x40 SHL SUB PUSH1 0x4 CALLDATALOAD DUP2 DUP2 GT PUSH2 0x426 JUMPI DUP4 PUSH2 0x1B39 SWAP2 PUSH1 0x4 ADD PUSH2 0x1822 JUMP JUMPDEST SWAP4 SWAP1 SWAP4 SWAP3 PUSH1 0x24 CALLDATALOAD DUP4 DUP2 GT PUSH2 0x426 JUMPI DUP3 PUSH2 0x1B54 SWAP2 PUSH1 0x4 ADD PUSH2 0x1822 JUMP JUMPDEST SWAP4 SWAP1 SWAP4 SWAP3 PUSH1 0x44 CALLDATALOAD SWAP2 DUP3 GT PUSH2 0x426 JUMPI PUSH2 0x1B6E SWAP2 PUSH1 0x4 ADD PUSH2 0x1822 JUMP JUMPDEST SWAP1 SWAP2 JUMP JUMPDEST SWAP1 DUP1 PUSH1 0x20 SWAP4 SWAP3 DUP2 DUP5 MSTORE DUP5 DUP5 ADD CALLDATACOPY PUSH1 0x0 DUP3 DUP3 ADD DUP5 ADD MSTORE PUSH1 0x1F ADD PUSH1 0x1F NOT AND ADD ADD SWAP1 JUMP JUMPDEST SWAP7 SWAP6 SWAP1 PUSH2 0x1BDF SWAP4 PUSH1 0x60 SWAP6 PUSH2 0x1BC3 PUSH2 0x1BD1 SWAP4 PUSH1 0x0 DUP1 MLOAD PUSH1 0x20 PUSH2 0x2310 DUP4 CODECOPY DUP2 MLOAD SWAP2 MSTORE SWAP10 SWAP7 PUSH1 0x80 DUP14 MSTORE PUSH1 0x80 DUP14 ADD SWAP2 PUSH2 0x1B72 JUMP JUMPDEST SWAP2 DUP11 DUP4 SUB PUSH1 0x20 DUP13 ADD MSTORE PUSH2 0x1B72 JUMP JUMPDEST SWAP2 DUP8 DUP4 SUB PUSH1 0x40 DUP10 ADD MSTORE PUSH2 0x1B72 JUMP JUMPDEST SWAP4 ADD MSTORE JUMP JUMPDEST SWAP5 PUSH2 0x826 SWAP2 SWAP3 SWAP5 PUSH2 0x1C00 SWAP5 PUSH1 0x40 MLOAD SWAP7 DUP8 SWAP6 PUSH1 0x20 DUP8 ADD SWAP10 DUP11 PUSH2 0x1B93 JUMP JUMPDEST MLOAD SWAP1 KECCAK256 SLOAD SWAP1 JUMP JUMPDEST SWAP1 DUP2 PUSH1 0x20 SWAP2 SUB SLT PUSH2 0x426 JUMPI MLOAD DUP1 ISZERO ISZERO DUP2 SUB PUSH2 0x426 JUMPI SWAP1 JUMP JUMPDEST SWAP6 PUSH2 0x1BD1 PUSH1 0x0 DUP1 MLOAD PUSH1 0x20 PUSH2 0x2310 DUP4 CODECOPY DUP2 MLOAD SWAP2 MSTORE SWAP10 SWAP5 PUSH1 0xA0 SWAP10 SWAP7 PUSH2 0x1BC3 PUSH2 0x1C63 SWAP10 SWAP6 SWAP14 SWAP15 SWAP14 PUSH2 0x1C55 SWAP8 PUSH1 0xC0 DUP14 MSTORE PUSH1 0xC0 DUP14 ADD SWAP2 PUSH2 0x1B72 JUMP JUMPDEST SWAP2 DUP5 DUP4 SUB PUSH1 0x60 DUP7 ADD MSTORE PUSH2 0x1B72 JUMP JUMPDEST SWAP5 PUSH1 0x80 DUP3 ADD MSTORE ADD MSTORE JUMP JUMPDEST SWAP8 SWAP3 SWAP5 PUSH2 0x826 SWAP5 PUSH2 0x1C00 SWAP8 SWAP3 SWAP7 SWAP9 SWAP4 SWAP9 PUSH1 0x40 MLOAD SWAP10 DUP11 SWAP9 PUSH1 0x20 DUP11 ADD SWAP13 DUP14 PUSH2 0x1C1F JUMP JUMPDEST SWAP1 DUP2 PUSH1 0x20 SWAP2 SUB SLT PUSH2 0x426 JUMPI MLOAD PUSH1 0x1 PUSH1 0x1 PUSH1 0xA0 SHL SUB DUP2 AND DUP2 SUB PUSH2 0x426 JUMPI SWAP1 JUMP JUMPDEST RETURNDATASIZE ISZERO PUSH2 0x1CD8 JUMPI RETURNDATASIZE SWAP1 PUSH2 0x1CBE DUP3 PUSH2 0x197E JUMP JUMPDEST SWAP2 PUSH2 0x1CCC PUSH1 0x40 MLOAD SWAP4 DUP5 PUSH2 0x195D JUMP JUMPDEST DUP3 MSTORE RETURNDATASIZE PUSH1 0x0 PUSH1 0x20 DUP5 ADD RETURNDATACOPY JUMP JUMPDEST PUSH1 0x60 SWAP1 JUMP JUMPDEST PUSH1 0x40 MLOAD PUSH4 0xA9059CBB PUSH1 0xE0 SHL PUSH1 0x20 DUP3 ADD SWAP1 DUP2 MSTORE PUSH1 0x1 PUSH1 0x1 PUSH1 0xA0 SHL SUB SWAP1 SWAP4 AND PUSH1 0x24 DUP3 ADD MSTORE PUSH1 0x44 DUP1 DUP3 ADD SWAP5 SWAP1 SWAP5 MSTORE SWAP3 DUP4 MSTORE SWAP2 PUSH1 0x0 SWAP2 DUP3 SWAP2 PUSH2 0x1D1A DUP2 PUSH2 0x1942 JUMP JUMPDEST MLOAD SWAP1 DUP3 DUP6 GAS CALL PUSH2 0x1D28 PUSH2 0x1CAD JUMP JUMPDEST DUP2 PUSH2 0x1D49 JUMPI JUMPDEST POP ISZERO SWAP1 DUP2 ISZERO PUSH2 0x1D3F JUMPI JUMPDEST POP PUSH2 0x85E JUMPI JUMP JUMPDEST SWAP1 POP EXTCODESIZE ISZERO CODESIZE PUSH2 0x1D38 JUMP JUMPDEST DUP1 MLOAD DUP1 ISZERO SWAP3 POP DUP3 ISZERO PUSH2 0x1D5E JUMPI JUMPDEST POP POP CODESIZE PUSH2 0x1D2E JUMP JUMPDEST PUSH2 0x1D71 SWAP3 POP PUSH1 0x20 DUP1 SWAP2 DUP4 ADD ADD SWAP2 ADD PUSH2 0x1C07 JUMP JUMPDEST CODESIZE DUP1 PUSH2 0x1D56 JUMP JUMPDEST PUSH1 0x1 PUSH1 0x1 PUSH1 0xA0 SHL SUB SWAP2 DUP3 AND DUP2 MSTORE SWAP2 AND PUSH1 0x20 DUP3 ADD MSTORE PUSH1 0x40 DUP2 ADD SWAP2 SWAP1 SWAP2 MSTORE PUSH1 0x60 ADD SWAP1 JUMP JUMPDEST SWAP2 PUSH1 0x0 SWAP2 PUSH2 0x826 PUSH2 0x1D1A DUP5 SWAP4 PUSH1 0x40 MLOAD SWAP3 DUP4 SWAP2 PUSH1 0x20 DUP4 ADD SWAP6 PUSH4 0x23B872DD PUSH1 0xE0 SHL DUP8 MSTORE ADDRESS SWAP1 PUSH1 0x24 DUP6 ADD PUSH2 0x1D78 JUMP JUMPDEST SWAP2 SWAP1 DUP3 MLOAD SWAP3 DUP4 DUP3 MSTORE PUSH1 0x0 JUMPDEST DUP5 DUP2 LT PUSH2 0x1DF2 JUMPI POP POP DUP3 PUSH1 0x0 PUSH1 0x20 DUP1 SWAP5 SWAP6 DUP5 ADD ADD MSTORE PUSH1 0x1F DUP1 NOT SWAP2 ADD AND ADD ADD SWAP1 JUMP JUMPDEST PUSH1 0x20 DUP2 DUP4 ADD DUP2 ADD MLOAD DUP5 DUP4 ADD DUP3 ADD MSTORE ADD PUSH2 0x1DD1 JUMP JUMPDEST PUSH1 0x20 DUP1 DUP3 ADD DUP2 DUP4 MSTORE DUP4 MLOAD DUP1 SWAP2 MSTORE PUSH1 0x40 SWAP2 DUP3 DUP5 ADD SWAP4 DUP2 DUP5 DUP5 PUSH1 0x5 SHL DUP4 ADD ADD SWAP7 ADD SWAP5 PUSH1 0x0 SWAP5 DUP6 SWAP3 JUMPDEST DUP6 DUP5 LT PUSH2 0x1E3E JUMPI POP POP POP POP POP POP POP POP SWAP1 JUMP JUMPDEST SWAP1 SWAP2 SWAP3 SWAP4 SWAP5 SWAP6 SWAP7 SWAP8 PUSH1 0x3F NOT DUP3 DUP3 SUB ADD DUP5 MSTORE DUP9 MLOAD DUP1 MLOAD PUSH1 0x4 DUP1 DUP3 LT ISZERO PUSH2 0x1EC3 JUMPI POP DUP3 MSTORE DUP1 DUP8 ADD MLOAD PUSH1 0x1 PUSH1 0x1 PUSH1 0xA0 SHL SUB AND DUP8 DUP4 ADD MSTORE DUP4 DUP2 ADD MLOAD DUP5 DUP4 ADD MSTORE PUSH1 0x60 DUP1 DUP3 ADD MLOAD PUSH1 0xA0 SWAP2 DUP5 ADD DUP3 SWAP1 MSTORE PUSH1 0x1 SWAP4 DUP10 SWAP4 DUP5 SWAP4 PUSH2 0x1EB1 SWAP4 PUSH2 0x1E9E SWAP2 DUP5 ADD SWAP1 PUSH2 0x1DC6 JUMP JUMPDEST SWAP2 PUSH1 0x80 DUP1 SWAP3 ADD MLOAD SWAP2 DUP2 DUP5 SUB SWAP2 ADD MSTORE PUSH2 0x1DC6 JUMP JUMPDEST SWAP11 ADD SWAP5 ADD SWAP5 ADD SWAP3 SWAP7 SWAP6 SWAP5 SWAP4 SWAP2 SWAP1 PUSH2 0x1E2C JUMP JUMPDEST PUSH4 0x4E487B71 PUSH1 0xE0 SHL DUP12 MSTORE PUSH1 0x21 SWAP1 MSTORE PUSH1 0x24 DUP11 REVERT JUMPDEST SWAP2 SWAP6 SWAP1 SWAP9 SWAP3 SWAP5 SWAP7 SWAP8 SWAP9 PUSH1 0x40 SWAP9 DUP8 DUP11 MLOAD SWAP6 PUSH4 0x70A08231 PUSH1 0xE0 SHL DUP8 MSTORE PUSH1 0x0 SWAP14 ADDRESS PUSH1 0x4 DUP10 ADD MSTORE PUSH1 0x20 DUP9 PUSH1 0x24 DUP2 PUSH1 0x1 DUP1 PUSH1 0xA0 SHL SUB DUP1 SWAP8 AND GAS STATICCALL SWAP8 DUP9 ISZERO PUSH2 0x2165 JUMPI DUP16 SWAP1 DUP2 SWAP10 PUSH2 0x212C JUMPI JUMPDEST POP SWAP1 DUP9 SWAP3 SWAP2 SELFBALANCE PUSH2 0x2003 JUMPI JUMPDEST POP POP POP PUSH2 0x1F56 SWAP2 PUSH32 0x0 AND DUP1 SWAP11 PUSH2 0x2171 JUMP JUMPDEST DUP8 EXTCODESIZE ISZERO PUSH2 0xE7C JUMPI SWAP2 DUP12 SWAP9 SWAP8 SWAP7 SWAP6 SWAP4 SWAP2 DUP10 SWAP6 SWAP4 DUP12 MLOAD SWAP13 DUP14 SWAP11 DUP12 SWAP10 DUP11 SWAP9 PUSH4 0x2D505C21 PUSH1 0xE2 SHL DUP11 MSTORE PUSH1 0x4 DUP11 ADD PUSH1 0xA0 SWAP1 MSTORE PUSH1 0xA4 DUP11 ADD SWAP1 PUSH2 0x1F91 SWAP3 PUSH2 0x1B72 JUMP JUMPDEST PUSH1 0x3 NOT SWAP6 DUP7 DUP11 DUP4 SUB ADD PUSH1 0x24 DUP12 ADD MSTORE PUSH2 0x1FA8 SWAP3 PUSH2 0x1B72 JUMP JUMPDEST SWAP1 DUP5 DUP9 DUP4 SUB ADD PUSH1 0x44 DUP10 ADD MSTORE PUSH2 0x1FBC SWAP3 PUSH2 0x1B72 JUMP JUMPDEST SWAP2 DUP6 DUP4 SUB ADD PUSH1 0x64 DUP7 ADD MSTORE PUSH2 0x1FCF SWAP3 PUSH2 0x1B72 JUMP JUMPDEST SWAP1 PUSH1 0x84 DUP4 ADD MSTORE SUB SWAP3 GAS CALL SWAP1 DUP2 ISZERO PUSH2 0x1FFA JUMPI POP PUSH2 0x1FE9 JUMPI POP POP JUMP JUMPDEST PUSH2 0x1FF3 DUP3 SWAP2 PUSH2 0x1919 JUMP JUMPDEST PUSH2 0x135 JUMPI POP JUMP JUMPDEST MLOAD RETURNDATASIZE DUP5 DUP3 RETURNDATACOPY RETURNDATASIZE SWAP1 REVERT JUMPDEST POP SWAP1 SWAP2 POP ISZERO PUSH2 0x2105 JUMPI DUP2 PUSH32 0x0 JUMPDEST AND SWAP1 SELFBALANCE SWAP1 DUP3 EXTCODESIZE ISZERO PUSH2 0x2101 JUMPI DUP16 SWAP2 SWAP3 DUP16 SWAP4 DUP16 SWAP1 DUP16 SWAP4 DUP13 DUP16 SWAP4 DUP16 SWAP3 DUP15 DUP15 DUP15 DUP15 DUP15 SWAP6 MLOAD SWAP14 DUP15 SWAP13 DUP14 SWAP12 DUP13 SWAP11 PUSH4 0x63161001 PUSH1 0xE1 SHL DUP13 MSTORE ADDRESS PUSH1 0x4 DUP14 ADD MSTORE PUSH1 0x24 DUP13 ADD PUSH1 0xE0 SWAP1 MSTORE PUSH1 0xE4 DUP13 ADD SWAP1 PUSH2 0x207C SWAP3 PUSH2 0x1B72 JUMP JUMPDEST PUSH1 0x3 NOT SWAP6 DUP7 DUP13 DUP4 SUB ADD PUSH1 0x44 DUP14 ADD MSTORE PUSH2 0x2093 SWAP3 PUSH2 0x1B72 JUMP JUMPDEST SWAP1 DUP5 DUP11 DUP4 SUB ADD PUSH1 0x64 DUP12 ADD MSTORE PUSH2 0x20A7 SWAP3 PUSH2 0x1B72 JUMP JUMPDEST SWAP2 DUP8 DUP4 SUB ADD PUSH1 0x84 DUP9 ADD MSTORE PUSH2 0x20BA SWAP3 PUSH2 0x1B72 JUMP JUMPDEST SWAP3 PUSH1 0xA4 DUP6 ADD MSTORE AND PUSH1 0xC4 DUP4 ADD MSTORE SUB SWAP3 GAS CALL DUP1 ISZERO PUSH2 0x20F5 JUMPI PUSH2 0x20DE JUMPI JUMPDEST DUP1 DUP8 SWAP2 DUP16 PUSH2 0x1F26 JUMP JUMPDEST PUSH2 0x1F56 SWAP2 SWAP14 PUSH2 0x20ED DUP9 SWAP3 PUSH2 0x1919 JUMP JUMPDEST SWAP14 SWAP2 POP PUSH2 0x20D5 JUMP JUMPDEST DUP15 DUP14 MLOAD SWAP1 RETURNDATASIZE SWAP1 DUP3 RETURNDATACOPY RETURNDATASIZE SWAP1 REVERT JUMPDEST DUP16 DUP1 REVERT JUMPDEST DUP2 PUSH32 0x0 PUSH2 0x202F JUMP JUMPDEST SWAP2 SWAP9 POP POP PUSH1 0x20 DUP2 RETURNDATASIZE DUP3 GT PUSH2 0x215D JUMPI JUMPDEST DUP2 PUSH2 0x2148 PUSH1 0x20 SWAP4 DUP4 PUSH2 0x195D JUMP JUMPDEST DUP2 ADD SUB SLT PUSH2 0x2159 JUMPI MLOAD SWAP7 DUP15 CODESIZE PUSH2 0x1F1B JUMP JUMPDEST DUP15 DUP1 REVERT JUMPDEST RETURNDATASIZE SWAP2 POP PUSH2 0x213B JUMP JUMPDEST DUP16 DUP15 MLOAD SWAP1 RETURNDATASIZE SWAP1 DUP3 RETURNDATACOPY RETURNDATASIZE SWAP1 REVERT JUMPDEST SWAP1 PUSH1 0x40 SWAP3 DUP4 MLOAD DUP1 SWAP2 PUSH4 0x6EB1769F PUSH1 0xE1 SHL DUP3 MSTORE ADDRESS PUSH1 0x4 DUP4 ADD MSTORE PUSH1 0x1 DUP1 PUSH1 0xA0 SHL SUB DUP1 SWAP5 AND SWAP4 DUP5 PUSH1 0x24 DUP5 ADD MSTORE DUP3 PUSH1 0x44 PUSH1 0x20 SWAP6 DUP7 SWAP4 DUP10 AND GAS STATICCALL SWAP2 DUP3 ISZERO PUSH2 0x22A4 JUMPI PUSH1 0x0 SWAP3 PUSH2 0x2275 JUMPI JUMPDEST POP DUP2 LT PUSH2 0x21C4 JUMPI JUMPDEST POP POP POP POP POP JUMP JUMPDEST PUSH2 0x2225 JUMPI JUMPDEST SWAP2 PUSH1 0x0 SWAP3 SWAP2 DUP4 DUP1 SWAP4 DUP7 MLOAD SWAP1 DUP2 ADD SWAP3 PUSH4 0x95EA7B3 PUSH1 0xE0 SHL DUP5 MSTORE PUSH1 0x24 DUP3 ADD MSTORE DUP2 NOT PUSH1 0x44 DUP3 ADD MSTORE PUSH1 0x44 DUP2 MSTORE PUSH2 0x21FA DUP2 PUSH2 0x1942 JUMP JUMPDEST MLOAD SWAP3 GAS CALL PUSH2 0x2206 PUSH2 0x1CAD JUMP JUMPDEST POP ISZERO PUSH2 0x2215 JUMPI DUP1 DUP1 DUP1 DUP1 PUSH2 0x21BD JUMP JUMPDEST MLOAD PUSH4 0x40B27C21 PUSH1 0xE1 SHL DUP2 MSTORE PUSH1 0x4 SWAP1 REVERT JUMPDEST PUSH1 0x0 DUP1 DUP6 MLOAD DUP4 DUP2 ADD SWAP1 PUSH4 0x95EA7B3 PUSH1 0xE0 SHL DUP3 MSTORE DUP6 PUSH1 0x24 DUP3 ADD MSTORE DUP3 PUSH1 0x44 DUP3 ADD MSTORE PUSH1 0x44 DUP2 MSTORE PUSH2 0x2251 DUP2 PUSH2 0x1942 JUMP JUMPDEST MLOAD SWAP1 DUP3 DUP8 GAS CALL PUSH2 0x225F PUSH2 0x1CAD JUMP JUMPDEST POP PUSH2 0x21C9 JUMPI DUP4 MLOAD PUSH4 0x40B27C21 PUSH1 0xE1 SHL DUP2 MSTORE PUSH1 0x4 SWAP1 REVERT JUMPDEST SWAP1 SWAP2 DUP4 DUP3 DUP2 RETURNDATASIZE DUP4 GT PUSH2 0x229D JUMPI JUMPDEST PUSH2 0x228C DUP2 DUP4 PUSH2 0x195D JUMP JUMPDEST DUP2 ADD SUB SLT PUSH2 0x135 JUMPI POP MLOAD SWAP1 CODESIZE PUSH2 0x21B5 JUMP JUMPDEST POP RETURNDATASIZE PUSH2 0x2282 JUMP JUMPDEST DUP7 MLOAD RETURNDATASIZE PUSH1 0x0 DUP3 RETURNDATACOPY RETURNDATASIZE SWAP1 REVERT INVALID LOG4 0x2F 0x2C 0xF9 SWAP10 0xE2 PUSH2 0x9EB 0x49 0xCB PUSH31 0xEF3654CC55B677B2DB805F3EAB8722CC5DD1AF0CE330CFEE289E568E8774E9 0x23 0xAC 0xD6 0xE2 LOG0 0xF DUP5 0xBE DUP7 0xAA SAR MUL CALLDATALOAD PUSH9 0x35D33DBB93970223E0 PUSH11 0x2ED150BE3AAEBBCE1156AE 0xCC MLOAD DUP8 0xE5 0xE9 SSTORE 0xEA PUSH18 0x7A17E165CCA37EF8C379DB79EE324BABD883 0x4C EXTCODECOPY BYTE BYTE 0x27 CODECOPY 0xC0 DIV 0xFC 0xE7 EXTCODESIZE DUP2 0x2A 0xC9 0xF6 CALLDATACOPY 0x24 0x1F DELEGATECALL PUSH28 0x19E4B71FA264697066735822122042867D10B0581DAB105F4A85ED08 SWAP12 0xAE 0xDA 0xD0 DUP12 CALLDATASIZE 0xED NOT BLOCKHASH LOG2 0xE7 JUMPI SDIV CALLDATASIZE CODESIZE 0x2C SHL CALL PUSH5 0x736F6C6343 STOP ADDMOD SGT STOP CALLER "},"methodIdentifiers":{"FORECALLERS_SALT()":"0d38218a","acceptPauser()":"167a6f90","amountPostFee(uint256,bytes)":"3ca2fd8e","bridgeCall(string,uint256,string,string,bytes,address,bool)":"21477960","callBridge(address,uint256,(uint8,address,uint256,bytes,bytes)[],string,string,string)":"52c41eb6","callBridgeCall(address,uint256,(uint8,address,uint256,bytes,bytes)[],string,string,string,bytes,address,bool)":"846a1bc6","contractId()":"8291286c","execute(bytes32,string,string,bytes)":"49160658","executeWithToken(bytes32,string,string,bytes,string,uint256)":"1a98b2e0","forecall(string,string,bytes)":"d0224434","forecallWithToken(string,string,bytes,string,uint256)":"e888e86c","fundAndRunMulticall(address,uint256,(uint8,address,uint256,bytes,bytes)[])":"58181a80","gateway()":"116191b6","getForecaller(string,string,bytes)":"facd28a9","getForecallerWithToken(string,string,bytes,string,uint256)":"09cc027b","pause()":"8456cb59","paused()":"5c975abb","pauser()":"9fd0506d","pendingPauser()":"9a7165e4","unpause()":"3f4ba83a","updatePauser(address)":"554bab3c"}}}}}