{"contracts/token.sol":{"token":{"abi":[{"inputs":[],"stateMutability":"nonpayable","type":"constructor"},{"inputs":[{"internalType":"address","name":"account","type":"address"}],"name":"checkbalance","outputs":[{"internalType":"uint256","name":"","type":"uint256"}],"stateMutability":"view","type":"function"},{"inputs":[],"name":"name","outputs":[{"internalType":"string","name":"","type":"string"}],"stateMutability":"view","type":"function"},{"inputs":[],"name":"owner","outputs":[{"internalType":"address","name":"","type":"address"}],"stateMutability":"view","type":"function"},{"inputs":[],"name":"symbol","outputs":[{"internalType":"string","name":"","type":"string"}],"stateMutability":"view","type":"function"},{"inputs":[],"name":"totalsupply","outputs":[{"internalType":"uint256","name":"","type":"uint256"}],"stateMutability":"view","type":"function"},{"inputs":[{"internalType":"address","name":"to","type":"address"},{"internalType":"uint256","name":"amount","type":"uint256"}],"name":"transfer","outputs":[],"stateMutability":"nonpayable","type":"function"}],"evm":{"bytecode":{"linkReferences":{},"object":"6080604052346100ee57600061001581546100f3565b601f81116100c4575b507f666972737420746f6b656e00000000000000000000000000000000000000001681556001805461004f906100f3565b601f8111610098575b50600461119560f21b01905560406127109182600255338152600460205220553360018060a01b031960035416176003556040516104d2908161012e8239f35b81835281601f60208520920160051c8201915b8281106100b9575050610058565b8481550182906100ab565b818052601f60208320910160051c8101905b8181106100e3575061001e565b8281556001016100d6565b600080fd5b90600182811c92168015610123575b602083101461010d57565b634e487b7160e01b600052602260045260246000fd5b91607f169161010256fe6080604081815260048036101561001557600080fd5b600092833560e01c90816306fdde031461035d5750806372dd529b1461033e5780638da5cb5b1461031157806395d89b4114610212578063a9059cbb1461009d5763e83029bb1461006557600080fd5b346100995760203660031901126100995760209282916001600160a01b0361008b610481565b168252845220549051908152f35b8280fd5b50346100995781600319360112610099576100b6610481565b91602490813593338652602090848252828720549083519084820182811067ffffffffffffffff82111761020057918992918392875260118252707472616e7366657220257320746f20257360781b86830152610158875180926101318983019563038fd88960e31b875260608d8501526084840190610441565b60448301989098526001600160a01b0316606482018190529603601f198101835282610409565b51906a636f6e736f6c652e6c6f675afa503387528482528583882054106101d0573387528482528287208054908782039182116101be5790869392915587525284209182549384018094116101ad5750505580f35b634e487b7160e01b85526011905283fd5b634e487b7160e01b8952601187528589fd5b825162461bcd60e51b8152808601839052600b818601526a4c6f772062616c616e636560a81b6044820152606490fd5b634e487b7160e01b8a5260418852868afd5b50913461030e578060031936011261030e578151918160019283549384811c91818616958615610304575b60209687851081146102f1578899509688969785829a5291826000146102ca57505060011461028d575b505050610289929161027a910385610409565b51928284938452830190610441565b0390f35b91908693508083528383205b8284106102b2575050508201018161027a610289610267565b8054848a018601528895508794909301928101610299565b60ff19168782015293151560051b8601909301935084925061027a91506102899050610267565b634e487b7160e01b835260228a52602483fd5b92607f169261023d565b80fd5b50503461033a578160031936011261033a5760035490516001600160a01b039091168152602090f35b5080fd5b50503461033a578160031936011261033a576020906002549051908152f35b905083833461033a578160031936011261033a5781825492600184811c918186169586156103ff575b60209687851081146102f1578899509688969785829a5291826000146102ca5750506001146103c257505050610289929161027a910385610409565b91908693508280528383205b8284106103e7575050508201018161027a610289610267565b8054848a0186015288955087949093019281016103ce565b92607f1692610386565b90601f8019910116810190811067ffffffffffffffff82111761042b57604052565b634e487b7160e01b600052604160045260246000fd5b919082519283825260005b84811061046d575050826000602080949584010152601f8019910116010190565b60208183018101518483018201520161044c565b600435906001600160a01b038216820361049757565b600080fdfea26469706673582212205ec03c90abde3487fce158e75e2471ba5402310fd3f044e9f50119b0f7efe52964736f6c63430008130033","opcodes":"PUSH1 0x80 PUSH1 0x40 MSTORE CALLVALUE PUSH2 0xEE JUMPI PUSH1 0x0 PUSH2 0x15 DUP2 SLOAD PUSH2 0xF3 JUMP JUMPDEST PUSH1 0x1F DUP2 GT PUSH2 0xC4 JUMPI JUMPDEST POP PUSH32 0x666972737420746F6B656E000000000000000000000000000000000000000016 DUP2 SSTORE PUSH1 0x1 DUP1 SLOAD PUSH2 0x4F SWAP1 PUSH2 0xF3 JUMP JUMPDEST PUSH1 0x1F DUP2 GT PUSH2 0x98 JUMPI JUMPDEST POP PUSH1 0x4 PUSH2 0x1195 PUSH1 0xF2 SHL ADD SWAP1 SSTORE PUSH1 0x40 PUSH2 0x2710 SWAP2 DUP3 PUSH1 0x2 SSTORE CALLER DUP2 MSTORE PUSH1 0x4 PUSH1 0x20 MSTORE KECCAK256 SSTORE CALLER PUSH1 0x1 DUP1 PUSH1 0xA0 SHL SUB NOT PUSH1 0x3 SLOAD AND OR PUSH1 0x3 SSTORE PUSH1 0x40 MLOAD PUSH2 0x4D2 SWAP1 DUP2 PUSH2 0x12E DUP3 CODECOPY RETURN JUMPDEST DUP2 DUP4 MSTORE DUP2 PUSH1 0x1F PUSH1 0x20 DUP6 KECCAK256 SWAP3 ADD PUSH1 0x5 SHR DUP3 ADD SWAP2 JUMPDEST DUP3 DUP2 LT PUSH2 0xB9 JUMPI POP POP PUSH2 0x58 JUMP JUMPDEST DUP5 DUP2 SSTORE ADD DUP3 SWAP1 PUSH2 0xAB JUMP JUMPDEST DUP2 DUP1 MSTORE PUSH1 0x1F PUSH1 0x20 DUP4 KECCAK256 SWAP2 ADD PUSH1 0x5 SHR DUP2 ADD SWAP1 JUMPDEST DUP2 DUP2 LT PUSH2 0xE3 JUMPI POP PUSH2 0x1E JUMP JUMPDEST DUP3 DUP2 SSTORE PUSH1 0x1 ADD PUSH2 0xD6 JUMP JUMPDEST PUSH1 0x0 DUP1 REVERT JUMPDEST SWAP1 PUSH1 0x1 DUP3 DUP2 SHR SWAP3 AND DUP1 ISZERO PUSH2 0x123 JUMPI JUMPDEST PUSH1 0x20 DUP4 LT EQ PUSH2 0x10D JUMPI JUMP JUMPDEST PUSH4 0x4E487B71 PUSH1 0xE0 SHL PUSH1 0x0 MSTORE PUSH1 0x22 PUSH1 0x4 MSTORE PUSH1 0x24 PUSH1 0x0 REVERT JUMPDEST SWAP2 PUSH1 0x7F AND SWAP2 PUSH2 0x102 JUMP INVALID PUSH1 0x80 PUSH1 0x40 DUP2 DUP2 MSTORE PUSH1 0x4 DUP1 CALLDATASIZE LT ISZERO PUSH2 0x15 JUMPI PUSH1 0x0 DUP1 REVERT JUMPDEST PUSH1 0x0 SWAP3 DUP4 CALLDATALOAD PUSH1 0xE0 SHR SWAP1 DUP2 PUSH4 0x6FDDE03 EQ PUSH2 0x35D JUMPI POP DUP1 PUSH4 0x72DD529B EQ PUSH2 0x33E JUMPI DUP1 PUSH4 0x8DA5CB5B EQ PUSH2 0x311 JUMPI DUP1 PUSH4 0x95D89B41 EQ PUSH2 0x212 JUMPI DUP1 PUSH4 0xA9059CBB EQ PUSH2 0x9D JUMPI PUSH4 0xE83029BB EQ PUSH2 0x65 JUMPI PUSH1 0x0 DUP1 REVERT JUMPDEST CALLVALUE PUSH2 0x99 JUMPI PUSH1 0x20 CALLDATASIZE PUSH1 0x3 NOT ADD SLT PUSH2 0x99 JUMPI PUSH1 0x20 SWAP3 DUP3 SWAP2 PUSH1 0x1 PUSH1 0x1 PUSH1 0xA0 SHL SUB PUSH2 0x8B PUSH2 0x481 JUMP JUMPDEST AND DUP3 MSTORE DUP5 MSTORE KECCAK256 SLOAD SWAP1 MLOAD SWAP1 DUP2 MSTORE RETURN JUMPDEST DUP3 DUP1 REVERT JUMPDEST POP CALLVALUE PUSH2 0x99 JUMPI DUP2 PUSH1 0x3 NOT CALLDATASIZE ADD SLT PUSH2 0x99 JUMPI PUSH2 0xB6 PUSH2 0x481 JUMP JUMPDEST SWAP2 PUSH1 0x24 SWAP1 DUP2 CALLDATALOAD SWAP4 CALLER DUP7 MSTORE PUSH1 0x20 SWAP1 DUP5 DUP3 MSTORE DUP3 DUP8 KECCAK256 SLOAD SWAP1 DUP4 MLOAD SWAP1 DUP5 DUP3 ADD DUP3 DUP2 LT PUSH8 0xFFFFFFFFFFFFFFFF DUP3 GT OR PUSH2 0x200 JUMPI SWAP2 DUP10 SWAP3 SWAP2 DUP4 SWAP3 DUP8 MSTORE PUSH1 0x11 DUP3 MSTORE PUSH17 0x7472616E7366657220257320746F202573 PUSH1 0x78 SHL DUP7 DUP4 ADD MSTORE PUSH2 0x158 DUP8 MLOAD DUP1 SWAP3 PUSH2 0x131 DUP10 DUP4 ADD SWAP6 PUSH4 0x38FD889 PUSH1 0xE3 SHL DUP8 MSTORE PUSH1 0x60 DUP14 DUP6 ADD MSTORE PUSH1 0x84 DUP5 ADD SWAP1 PUSH2 0x441 JUMP JUMPDEST PUSH1 0x44 DUP4 ADD SWAP9 SWAP1 SWAP9 MSTORE PUSH1 0x1 PUSH1 0x1 PUSH1 0xA0 SHL SUB AND PUSH1 0x64 DUP3 ADD DUP2 SWAP1 MSTORE SWAP7 SUB PUSH1 0x1F NOT DUP2 ADD DUP4 MSTORE DUP3 PUSH2 0x409 JUMP JUMPDEST MLOAD SWAP1 PUSH11 0x636F6E736F6C652E6C6F67 GAS STATICCALL POP CALLER DUP8 MSTORE DUP5 DUP3 MSTORE DUP6 DUP4 DUP9 KECCAK256 SLOAD LT PUSH2 0x1D0 JUMPI CALLER DUP8 MSTORE DUP5 DUP3 MSTORE DUP3 DUP8 KECCAK256 DUP1 SLOAD SWAP1 DUP8 DUP3 SUB SWAP2 DUP3 GT PUSH2 0x1BE JUMPI SWAP1 DUP7 SWAP4 SWAP3 SWAP2 SSTORE DUP8 MSTORE MSTORE DUP5 KECCAK256 SWAP2 DUP3 SLOAD SWAP4 DUP5 ADD DUP1 SWAP5 GT PUSH2 0x1AD JUMPI POP POP SSTORE DUP1 RETURN JUMPDEST PUSH4 0x4E487B71 PUSH1 0xE0 SHL DUP6 MSTORE PUSH1 0x11 SWAP1 MSTORE DUP4 REVERT JUMPDEST PUSH4 0x4E487B71 PUSH1 0xE0 SHL DUP10 MSTORE PUSH1 0x11 DUP8 MSTORE DUP6 DUP10 REVERT JUMPDEST DUP3 MLOAD PUSH3 0x461BCD PUSH1 0xE5 SHL DUP2 MSTORE DUP1 DUP7 ADD DUP4 SWAP1 MSTORE PUSH1 0xB DUP2 DUP7 ADD MSTORE PUSH11 0x4C6F772062616C616E6365 PUSH1 0xA8 SHL PUSH1 0x44 DUP3 ADD MSTORE PUSH1 0x64 SWAP1 REVERT JUMPDEST PUSH4 0x4E487B71 PUSH1 0xE0 SHL DUP11 MSTORE PUSH1 0x41 DUP9 MSTORE DUP7 DUP11 REVERT JUMPDEST POP SWAP2 CALLVALUE PUSH2 0x30E JUMPI DUP1 PUSH1 0x3 NOT CALLDATASIZE ADD SLT PUSH2 0x30E JUMPI DUP2 MLOAD SWAP2 DUP2 PUSH1 0x1 SWAP3 DUP4 SLOAD SWAP4 DUP5 DUP2 SHR SWAP2 DUP2 DUP7 AND SWAP6 DUP7 ISZERO PUSH2 0x304 JUMPI JUMPDEST PUSH1 0x20 SWAP7 DUP8 DUP6 LT DUP2 EQ PUSH2 0x2F1 JUMPI DUP9 SWAP10 POP SWAP7 DUP9 SWAP7 SWAP8 DUP6 DUP3 SWAP11 MSTORE SWAP2 DUP3 PUSH1 0x0 EQ PUSH2 0x2CA JUMPI POP POP PUSH1 0x1 EQ PUSH2 0x28D JUMPI JUMPDEST POP POP POP PUSH2 0x289 SWAP3 SWAP2 PUSH2 0x27A SWAP2 SUB DUP6 PUSH2 0x409 JUMP JUMPDEST MLOAD SWAP3 DUP3 DUP5 SWAP4 DUP5 MSTORE DUP4 ADD SWAP1 PUSH2 0x441 JUMP JUMPDEST SUB SWAP1 RETURN JUMPDEST SWAP2 SWAP1 DUP7 SWAP4 POP DUP1 DUP4 MSTORE DUP4 DUP4 KECCAK256 JUMPDEST DUP3 DUP5 LT PUSH2 0x2B2 JUMPI POP POP POP DUP3 ADD ADD DUP2 PUSH2 0x27A PUSH2 0x289 PUSH2 0x267 JUMP JUMPDEST DUP1 SLOAD DUP5 DUP11 ADD DUP7 ADD MSTORE DUP9 SWAP6 POP DUP8 SWAP5 SWAP1 SWAP4 ADD SWAP3 DUP2 ADD PUSH2 0x299 JUMP JUMPDEST PUSH1 0xFF NOT AND DUP8 DUP3 ADD MSTORE SWAP4 ISZERO ISZERO PUSH1 0x5 SHL DUP7 ADD SWAP1 SWAP4 ADD SWAP4 POP DUP5 SWAP3 POP PUSH2 0x27A SWAP2 POP PUSH2 0x289 SWAP1 POP PUSH2 0x267 JUMP JUMPDEST PUSH4 0x4E487B71 PUSH1 0xE0 SHL DUP4 MSTORE PUSH1 0x22 DUP11 MSTORE PUSH1 0x24 DUP4 REVERT JUMPDEST SWAP3 PUSH1 0x7F AND SWAP3 PUSH2 0x23D JUMP JUMPDEST DUP1 REVERT JUMPDEST POP POP CALLVALUE PUSH2 0x33A JUMPI DUP2 PUSH1 0x3 NOT CALLDATASIZE ADD SLT PUSH2 0x33A JUMPI PUSH1 0x3 SLOAD SWAP1 MLOAD PUSH1 0x1 PUSH1 0x1 PUSH1 0xA0 SHL SUB SWAP1 SWAP2 AND DUP2 MSTORE PUSH1 0x20 SWAP1 RETURN JUMPDEST POP DUP1 REVERT JUMPDEST POP POP CALLVALUE PUSH2 0x33A JUMPI DUP2 PUSH1 0x3 NOT CALLDATASIZE ADD SLT PUSH2 0x33A JUMPI PUSH1 0x20 SWAP1 PUSH1 0x2 SLOAD SWAP1 MLOAD SWAP1 DUP2 MSTORE RETURN JUMPDEST SWAP1 POP DUP4 DUP4 CALLVALUE PUSH2 0x33A JUMPI DUP2 PUSH1 0x3 NOT CALLDATASIZE ADD SLT PUSH2 0x33A JUMPI DUP2 DUP3 SLOAD SWAP3 PUSH1 0x1 DUP5 DUP2 SHR SWAP2 DUP2 DUP7 AND SWAP6 DUP7 ISZERO PUSH2 0x3FF JUMPI JUMPDEST PUSH1 0x20 SWAP7 DUP8 DUP6 LT DUP2 EQ PUSH2 0x2F1 JUMPI DUP9 SWAP10 POP SWAP7 DUP9 SWAP7 SWAP8 DUP6 DUP3 SWAP11 MSTORE SWAP2 DUP3 PUSH1 0x0 EQ PUSH2 0x2CA JUMPI POP POP PUSH1 0x1 EQ PUSH2 0x3C2 JUMPI POP POP POP PUSH2 0x289 SWAP3 SWAP2 PUSH2 0x27A SWAP2 SUB DUP6 PUSH2 0x409 JUMP JUMPDEST SWAP2 SWAP1 DUP7 SWAP4 POP DUP3 DUP1 MSTORE DUP4 DUP4 KECCAK256 JUMPDEST DUP3 DUP5 LT PUSH2 0x3E7 JUMPI POP POP POP DUP3 ADD ADD DUP2 PUSH2 0x27A PUSH2 0x289 PUSH2 0x267 JUMP JUMPDEST DUP1 SLOAD DUP5 DUP11 ADD DUP7 ADD MSTORE DUP9 SWAP6 POP DUP8 SWAP5 SWAP1 SWAP4 ADD SWAP3 DUP2 ADD PUSH2 0x3CE JUMP JUMPDEST SWAP3 PUSH1 0x7F AND SWAP3 PUSH2 0x386 JUMP JUMPDEST SWAP1 PUSH1 0x1F DUP1 NOT SWAP2 ADD AND DUP2 ADD SWAP1 DUP2 LT PUSH8 0xFFFFFFFFFFFFFFFF DUP3 GT OR PUSH2 0x42B JUMPI PUSH1 0x40 MSTORE JUMP JUMPDEST PUSH4 0x4E487B71 PUSH1 0xE0 SHL PUSH1 0x0 MSTORE PUSH1 0x41 PUSH1 0x4 MSTORE PUSH1 0x24 PUSH1 0x0 REVERT JUMPDEST SWAP2 SWAP1 DUP3 MLOAD SWAP3 DUP4 DUP3 MSTORE PUSH1 0x0 JUMPDEST DUP5 DUP2 LT PUSH2 0x46D JUMPI POP POP DUP3 PUSH1 0x0 PUSH1 0x20 DUP1 SWAP5 SWAP6 DUP5 ADD ADD MSTORE PUSH1 0x1F DUP1 NOT SWAP2 ADD AND ADD ADD SWAP1 JUMP JUMPDEST PUSH1 0x20 DUP2 DUP4 ADD DUP2 ADD MLOAD DUP5 DUP4 ADD DUP3 ADD MSTORE ADD PUSH2 0x44C JUMP JUMPDEST PUSH1 0x4 CALLDATALOAD SWAP1 PUSH1 0x1 PUSH1 0x1 PUSH1 0xA0 SHL SUB DUP3 AND DUP3 SUB PUSH2 0x497 JUMPI JUMP JUMPDEST PUSH1 0x0 DUP1 REVERT INVALID LOG2 PUSH5 0x6970667358 0x22 SLT KECCAK256 0x5E 0xC0 EXTCODECOPY SWAP1 0xAB 0xDE CALLVALUE DUP8 0xFC 0xE1 PC 0xE7 0x5E 0x24 PUSH18 0xBA5402310FD3F044E9F50119B0F7EFE52964 PUSH20 0x6F6C634300081300330000000000000000000000 "},"methodIdentifiers":{"checkbalance(address)":"e83029bb","name()":"06fdde03","owner()":"8da5cb5b","symbol()":"95d89b41","totalsupply()":"72dd529b","transfer(address,uint256)":"a9059cbb"}}}}}