{"contracts/SquidMulticall.sol":{"SquidMulticall":{"abi":[{"inputs":[],"name":"AlreadyRunning","type":"error"},{"inputs":[{"internalType":"uint256","name":"callPosition","type":"uint256"},{"internalType":"bytes","name":"reason","type":"bytes"}],"name":"CallFailed","type":"error"},{"inputs":[],"name":"TransferFailed","type":"error"},{"inputs":[{"internalType":"address","name":"","type":"address"},{"internalType":"address","name":"","type":"address"},{"internalType":"uint256[]","name":"","type":"uint256[]"},{"internalType":"uint256[]","name":"","type":"uint256[]"},{"internalType":"bytes","name":"","type":"bytes"}],"name":"onERC1155BatchReceived","outputs":[{"internalType":"bytes4","name":"","type":"bytes4"}],"stateMutability":"pure","type":"function"},{"inputs":[{"internalType":"address","name":"","type":"address"},{"internalType":"address","name":"","type":"address"},{"internalType":"uint256","name":"","type":"uint256"},{"internalType":"uint256","name":"","type":"uint256"},{"internalType":"bytes","name":"","type":"bytes"}],"name":"onERC1155Received","outputs":[{"internalType":"bytes4","name":"","type":"bytes4"}],"stateMutability":"pure","type":"function"},{"inputs":[{"internalType":"address","name":"","type":"address"},{"internalType":"address","name":"","type":"address"},{"internalType":"uint256","name":"","type":"uint256"},{"internalType":"bytes","name":"","type":"bytes"}],"name":"onERC721Received","outputs":[{"internalType":"bytes4","name":"","type":"bytes4"}],"stateMutability":"pure","type":"function"},{"inputs":[{"components":[{"internalType":"enum ISquidMulticall.CallType","name":"callType","type":"uint8"},{"internalType":"address","name":"target","type":"address"},{"internalType":"uint256","name":"value","type":"uint256"},{"internalType":"bytes","name":"callData","type":"bytes"},{"internalType":"bytes","name":"payload","type":"bytes"}],"internalType":"struct ISquidMulticall.Call[]","name":"calls","type":"tuple[]"}],"name":"run","outputs":[],"stateMutability":"payable","type":"function"},{"inputs":[{"internalType":"bytes4","name":"interfaceId","type":"bytes4"}],"name":"supportsInterface","outputs":[{"internalType":"bool","name":"","type":"bool"}],"stateMutability":"pure","type":"function"},{"stateMutability":"payable","type":"receive"}],"evm":{"bytecode":{"linkReferences":{},"object":"60808060405234610016576108bb908161001c8239f35b600080fdfe6080604052600436101561001b575b361561001957600080fd5b005b6000803560e01c90816301ffc9a71461006e57508063150b7a0214610069578063bc197c8114610064578063f23a6e611461005f5763f87ef8000361000e576102a6565b61024c565b6101bd565b610133565b346100e05760203660031901126100e0576004359063ffffffff60e01b82168092036100e05750630271189760e51b81149081156100cf575b81156100be575b501515608052607f1960a0016080f35b6301ffc9a760e01b149050816100ae565b630a85bd0160e11b811491506100a7565b80fd5b6001600160a01b038116036100f457565b600080fd5b3590610104826100e3565b565b9181601f840112156100f4578235916001600160401b0383116100f457602083818601950101116100f457565b346100f45760803660031901126100f45761014f6004356100e3565b61015a6024356100e3565b6064356001600160401b0381116100f457610179903690600401610106565b5050604051630a85bd0160e11b8152602090f35b9181601f840112156100f4578235916001600160401b0383116100f4576020808501948460051b0101116100f457565b346100f45760a03660031901126100f4576101d96004356100e3565b6101e46024356100e3565b6001600160401b036044358181116100f45761020490369060040161018d565b50506064358181116100f45761021e90369060040161018d565b50506084359081116100f457610238903690600401610106565b505060405163bc197c8160e01b8152602090f35b346100f45760a03660031901126100f4576102686004356100e3565b6102736024356100e3565b6084356001600160401b0381116100f457610292903690600401610106565b505060405163f23a6e6160e01b8152602090f35b6020806003193601126100f45760049081356001600160401b0381116100f4576102d3903690840161018d565b9290916000936102e4855460ff1690565b610519576102fa600160ff196000541617600055565b845b818110610316578561031360ff1960005416600055565b80f35b61032961032482848861054f565b610640565b60018151610336816106c7565b61033f816106c7565b036104445761035a608082015185808251830101910161071a565b6040516370a0823160e01b815230888201908152909287918491908290819060200103916001600160a01b03165afa90811561043f576103ac928a92610410575b50606084015160249160051b010152565b80840151879081906001600160a01b031692604093606085830151920151918883519301915af1906103dc610739565b91156103f25750506103ed9061052a565b6102fc565b51635c0dee5d60e01b815291829161040c91838801610769565b0390fd5b610431919250873d8911610438575b61042981836105bd565b8101906106ff565b903861039b565b503d61041f565b61070e565b60028151610451816106c7565b61045a816106c7565b0361046a574760408201526103ac565b60038151610477816106c7565b610480816106c7565b036103ac5761049e60806104aa9201518580825183010191016106e7565b6001600160a01b031690565b6040516370a0823160e01b81523386820190815291929185908290819060200103816001600160a01b0387165afa801561043f576103ed936104f5928a926104fa575b5033906107d2565b61052a565b610512919250873d89116104385761042981836105bd565b90386104ed565b60405163e4455ead60e01b81528390fd5b60001981146105395760010190565b634e487b7160e01b600052601160045260246000fd5b91908110156105715760051b81013590609e19813603018212156100f4570190565b634e487b7160e01b600052603260045260246000fd5b634e487b7160e01b600052604160045260246000fd5b60a081019081106001600160401b038211176105b857604052565b610587565b90601f801991011681019081106001600160401b038211176105b857604052565b6001600160401b0381116105b857601f01601f191660200190565b81601f820112156100f457803590610610826105de565b9261061e60405194856105bd565b828452602083830101116100f457816000926020809301838601378301015290565b60a0813603126100f457604051906106578261059d565b803560048110156100f4578252610670602082016100f9565b6020830152604081013560408301526060810135906001600160401b03918281116100f4576106a290369083016105f9565b606084015260808101359182116100f4576106bf913691016105f9565b608082015290565b600411156106d157565b634e487b7160e01b600052602160045260246000fd5b908160209103126100f457516106fc816100e3565b90565b908160209103126100f4575190565b6040513d6000823e3d90fd5b91908260409103126100f45760208251610733816100e3565b92015190565b3d15610764573d9061074a826105de565b9161075860405193846105bd565b82523d6000602084013e565b606090565b90929192815260209260408483015280519081604084015260005b8281106107a657505060609293506000838284010152601f8019910116010190565b818101860151848201606001528501610784565b908160209103126100f4575180151581036100f45790565b6040516323b872dd60e01b602082019081526001600160a01b0390931660248201523060448201526064808201949094529283529160009182916108158161059d565b519082855af1610823610739565b81610856575b501590811561084c575b5061083a57565b6040516312171d8360e31b8152600490fd5b90503b1538610833565b805180159250821561086b575b505038610829565b61087e92506020809183010191016107ba565b388061086356fea2646970667358221220739cd25e7345476811677d5d7bd18922dbaa88553aaf41f336adeb537ee8fb2064736f6c63430008130033","opcodes":"PUSH1 0x80 DUP1 PUSH1 0x40 MSTORE CALLVALUE PUSH2 0x16 JUMPI PUSH2 0x8BB SWAP1 DUP2 PUSH2 0x1C DUP3 CODECOPY RETURN JUMPDEST PUSH1 0x0 DUP1 REVERT INVALID PUSH1 0x80 PUSH1 0x40 MSTORE PUSH1 0x4 CALLDATASIZE LT ISZERO PUSH2 0x1B JUMPI JUMPDEST CALLDATASIZE ISZERO PUSH2 0x19 JUMPI PUSH1 0x0 DUP1 REVERT JUMPDEST STOP JUMPDEST PUSH1 0x0 DUP1 CALLDATALOAD PUSH1 0xE0 SHR SWAP1 DUP2 PUSH4 0x1FFC9A7 EQ PUSH2 0x6E JUMPI POP DUP1 PUSH4 0x150B7A02 EQ PUSH2 0x69 JUMPI DUP1 PUSH4 0xBC197C81 EQ PUSH2 0x64 JUMPI DUP1 PUSH4 0xF23A6E61 EQ PUSH2 0x5F JUMPI PUSH4 0xF87EF800 SUB PUSH2 0xE JUMPI PUSH2 0x2A6 JUMP JUMPDEST PUSH2 0x24C JUMP JUMPDEST PUSH2 0x1BD JUMP JUMPDEST PUSH2 0x133 JUMP JUMPDEST CALLVALUE PUSH2 0xE0 JUMPI PUSH1 0x20 CALLDATASIZE PUSH1 0x3 NOT ADD SLT PUSH2 0xE0 JUMPI PUSH1 0x4 CALLDATALOAD SWAP1 PUSH4 0xFFFFFFFF PUSH1 0xE0 SHL DUP3 AND DUP1 SWAP3 SUB PUSH2 0xE0 JUMPI POP PUSH4 0x2711897 PUSH1 0xE5 SHL DUP2 EQ SWAP1 DUP2 ISZERO PUSH2 0xCF JUMPI JUMPDEST DUP2 ISZERO PUSH2 0xBE JUMPI JUMPDEST POP ISZERO ISZERO PUSH1 0x80 MSTORE PUSH1 0x7F NOT PUSH1 0xA0 ADD PUSH1 0x80 RETURN JUMPDEST PUSH4 0x1FFC9A7 PUSH1 0xE0 SHL EQ SWAP1 POP DUP2 PUSH2 0xAE JUMP JUMPDEST PUSH4 0xA85BD01 PUSH1 0xE1 SHL DUP2 EQ SWAP2 POP PUSH2 0xA7 JUMP JUMPDEST DUP1 REVERT JUMPDEST PUSH1 0x1 PUSH1 0x1 PUSH1 0xA0 SHL SUB DUP2 AND SUB PUSH2 0xF4 JUMPI JUMP JUMPDEST PUSH1 0x0 DUP1 REVERT JUMPDEST CALLDATALOAD SWAP1 PUSH2 0x104 DUP3 PUSH2 0xE3 JUMP JUMPDEST JUMP JUMPDEST SWAP2 DUP2 PUSH1 0x1F DUP5 ADD SLT ISZERO PUSH2 0xF4 JUMPI DUP3 CALLDATALOAD SWAP2 PUSH1 0x1 PUSH1 0x1 PUSH1 0x40 SHL SUB DUP4 GT PUSH2 0xF4 JUMPI PUSH1 0x20 DUP4 DUP2 DUP7 ADD SWAP6 ADD ADD GT PUSH2 0xF4 JUMPI JUMP JUMPDEST CALLVALUE PUSH2 0xF4 JUMPI PUSH1 0x80 CALLDATASIZE PUSH1 0x3 NOT ADD SLT PUSH2 0xF4 JUMPI PUSH2 0x14F PUSH1 0x4 CALLDATALOAD PUSH2 0xE3 JUMP JUMPDEST PUSH2 0x15A PUSH1 0x24 CALLDATALOAD PUSH2 0xE3 JUMP JUMPDEST PUSH1 0x64 CALLDATALOAD PUSH1 0x1 PUSH1 0x1 PUSH1 0x40 SHL SUB DUP2 GT PUSH2 0xF4 JUMPI PUSH2 0x179 SWAP1 CALLDATASIZE SWAP1 PUSH1 0x4 ADD PUSH2 0x106 JUMP JUMPDEST POP POP PUSH1 0x40 MLOAD PUSH4 0xA85BD01 PUSH1 0xE1 SHL DUP2 MSTORE PUSH1 0x20 SWAP1 RETURN JUMPDEST SWAP2 DUP2 PUSH1 0x1F DUP5 ADD SLT ISZERO PUSH2 0xF4 JUMPI DUP3 CALLDATALOAD SWAP2 PUSH1 0x1 PUSH1 0x1 PUSH1 0x40 SHL SUB DUP4 GT PUSH2 0xF4 JUMPI PUSH1 0x20 DUP1 DUP6 ADD SWAP5 DUP5 PUSH1 0x5 SHL ADD ADD GT PUSH2 0xF4 JUMPI JUMP JUMPDEST CALLVALUE PUSH2 0xF4 JUMPI PUSH1 0xA0 CALLDATASIZE PUSH1 0x3 NOT ADD SLT PUSH2 0xF4 JUMPI PUSH2 0x1D9 PUSH1 0x4 CALLDATALOAD PUSH2 0xE3 JUMP JUMPDEST PUSH2 0x1E4 PUSH1 0x24 CALLDATALOAD PUSH2 0xE3 JUMP JUMPDEST PUSH1 0x1 PUSH1 0x1 PUSH1 0x40 SHL SUB PUSH1 0x44 CALLDATALOAD DUP2 DUP2 GT PUSH2 0xF4 JUMPI PUSH2 0x204 SWAP1 CALLDATASIZE SWAP1 PUSH1 0x4 ADD PUSH2 0x18D JUMP JUMPDEST POP POP PUSH1 0x64 CALLDATALOAD DUP2 DUP2 GT PUSH2 0xF4 JUMPI PUSH2 0x21E SWAP1 CALLDATASIZE SWAP1 PUSH1 0x4 ADD PUSH2 0x18D JUMP JUMPDEST POP POP PUSH1 0x84 CALLDATALOAD SWAP1 DUP2 GT PUSH2 0xF4 JUMPI PUSH2 0x238 SWAP1 CALLDATASIZE SWAP1 PUSH1 0x4 ADD PUSH2 0x106 JUMP JUMPDEST POP POP PUSH1 0x40 MLOAD PUSH4 0xBC197C81 PUSH1 0xE0 SHL DUP2 MSTORE PUSH1 0x20 SWAP1 RETURN JUMPDEST CALLVALUE PUSH2 0xF4 JUMPI PUSH1 0xA0 CALLDATASIZE PUSH1 0x3 NOT ADD SLT PUSH2 0xF4 JUMPI PUSH2 0x268 PUSH1 0x4 CALLDATALOAD PUSH2 0xE3 JUMP JUMPDEST PUSH2 0x273 PUSH1 0x24 CALLDATALOAD PUSH2 0xE3 JUMP JUMPDEST PUSH1 0x84 CALLDATALOAD PUSH1 0x1 PUSH1 0x1 PUSH1 0x40 SHL SUB DUP2 GT PUSH2 0xF4 JUMPI PUSH2 0x292 SWAP1 CALLDATASIZE SWAP1 PUSH1 0x4 ADD PUSH2 0x106 JUMP JUMPDEST POP POP PUSH1 0x40 MLOAD PUSH4 0xF23A6E61 PUSH1 0xE0 SHL DUP2 MSTORE PUSH1 0x20 SWAP1 RETURN JUMPDEST PUSH1 0x20 DUP1 PUSH1 0x3 NOT CALLDATASIZE ADD SLT PUSH2 0xF4 JUMPI PUSH1 0x4 SWAP1 DUP2 CALLDATALOAD PUSH1 0x1 PUSH1 0x1 PUSH1 0x40 SHL SUB DUP2 GT PUSH2 0xF4 JUMPI PUSH2 0x2D3 SWAP1 CALLDATASIZE SWAP1 DUP5 ADD PUSH2 0x18D JUMP JUMPDEST SWAP3 SWAP1 SWAP2 PUSH1 0x0 SWAP4 PUSH2 0x2E4 DUP6 SLOAD PUSH1 0xFF AND SWAP1 JUMP JUMPDEST PUSH2 0x519 JUMPI PUSH2 0x2FA PUSH1 0x1 PUSH1 0xFF NOT PUSH1 0x0 SLOAD AND OR PUSH1 0x0 SSTORE JUMP JUMPDEST DUP5 JUMPDEST DUP2 DUP2 LT PUSH2 0x316 JUMPI DUP6 PUSH2 0x313 PUSH1 0xFF NOT PUSH1 0x0 SLOAD AND PUSH1 0x0 SSTORE JUMP JUMPDEST DUP1 RETURN JUMPDEST PUSH2 0x329 PUSH2 0x324 DUP3 DUP5 DUP9 PUSH2 0x54F JUMP JUMPDEST PUSH2 0x640 JUMP JUMPDEST PUSH1 0x1 DUP2 MLOAD PUSH2 0x336 DUP2 PUSH2 0x6C7 JUMP JUMPDEST PUSH2 0x33F DUP2 PUSH2 0x6C7 JUMP JUMPDEST SUB PUSH2 0x444 JUMPI PUSH2 0x35A PUSH1 0x80 DUP3 ADD MLOAD DUP6 DUP1 DUP3 MLOAD DUP4 ADD ADD SWAP2 ADD PUSH2 0x71A JUMP JUMPDEST PUSH1 0x40 MLOAD PUSH4 0x70A08231 PUSH1 0xE0 SHL DUP2 MSTORE ADDRESS DUP9 DUP3 ADD SWAP1 DUP2 MSTORE SWAP1 SWAP3 DUP8 SWAP2 DUP5 SWAP2 SWAP1 DUP3 SWAP1 DUP2 SWAP1 PUSH1 0x20 ADD SUB SWAP2 PUSH1 0x1 PUSH1 0x1 PUSH1 0xA0 SHL SUB AND GAS STATICCALL SWAP1 DUP2 ISZERO PUSH2 0x43F JUMPI PUSH2 0x3AC SWAP3 DUP11 SWAP3 PUSH2 0x410 JUMPI JUMPDEST POP PUSH1 0x60 DUP5 ADD MLOAD PUSH1 0x24 SWAP2 PUSH1 0x5 SHL ADD ADD MSTORE JUMP JUMPDEST DUP1 DUP5 ADD MLOAD DUP8 SWAP1 DUP2 SWAP1 PUSH1 0x1 PUSH1 0x1 PUSH1 0xA0 SHL SUB AND SWAP3 PUSH1 0x40 SWAP4 PUSH1 0x60 DUP6 DUP4 ADD MLOAD SWAP3 ADD MLOAD SWAP2 DUP9 DUP4 MLOAD SWAP4 ADD SWAP2 GAS CALL SWAP1 PUSH2 0x3DC PUSH2 0x739 JUMP JUMPDEST SWAP2 ISZERO PUSH2 0x3F2 JUMPI POP POP PUSH2 0x3ED SWAP1 PUSH2 0x52A JUMP JUMPDEST PUSH2 0x2FC JUMP JUMPDEST MLOAD PUSH4 0x5C0DEE5D PUSH1 0xE0 SHL DUP2 MSTORE SWAP2 DUP3 SWAP2 PUSH2 0x40C SWAP2 DUP4 DUP9 ADD PUSH2 0x769 JUMP JUMPDEST SUB SWAP1 REVERT JUMPDEST PUSH2 0x431 SWAP2 SWAP3 POP DUP8 RETURNDATASIZE DUP10 GT PUSH2 0x438 JUMPI JUMPDEST PUSH2 0x429 DUP2 DUP4 PUSH2 0x5BD JUMP JUMPDEST DUP2 ADD SWAP1 PUSH2 0x6FF JUMP JUMPDEST SWAP1 CODESIZE PUSH2 0x39B JUMP JUMPDEST POP RETURNDATASIZE PUSH2 0x41F JUMP JUMPDEST PUSH2 0x70E JUMP JUMPDEST PUSH1 0x2 DUP2 MLOAD PUSH2 0x451 DUP2 PUSH2 0x6C7 JUMP JUMPDEST PUSH2 0x45A DUP2 PUSH2 0x6C7 JUMP JUMPDEST SUB PUSH2 0x46A JUMPI SELFBALANCE PUSH1 0x40 DUP3 ADD MSTORE PUSH2 0x3AC JUMP JUMPDEST PUSH1 0x3 DUP2 MLOAD PUSH2 0x477 DUP2 PUSH2 0x6C7 JUMP JUMPDEST PUSH2 0x480 DUP2 PUSH2 0x6C7 JUMP JUMPDEST SUB PUSH2 0x3AC JUMPI PUSH2 0x49E PUSH1 0x80 PUSH2 0x4AA SWAP3 ADD MLOAD DUP6 DUP1 DUP3 MLOAD DUP4 ADD ADD SWAP2 ADD PUSH2 0x6E7 JUMP JUMPDEST PUSH1 0x1 PUSH1 0x1 PUSH1 0xA0 SHL SUB AND SWAP1 JUMP JUMPDEST PUSH1 0x40 MLOAD PUSH4 0x70A08231 PUSH1 0xE0 SHL DUP2 MSTORE CALLER DUP7 DUP3 ADD SWAP1 DUP2 MSTORE SWAP2 SWAP3 SWAP2 DUP6 SWAP1 DUP3 SWAP1 DUP2 SWAP1 PUSH1 0x20 ADD SUB DUP2 PUSH1 0x1 PUSH1 0x1 PUSH1 0xA0 SHL SUB DUP8 AND GAS STATICCALL DUP1 ISZERO PUSH2 0x43F JUMPI PUSH2 0x3ED SWAP4 PUSH2 0x4F5 SWAP3 DUP11 SWAP3 PUSH2 0x4FA JUMPI JUMPDEST POP CALLER SWAP1 PUSH2 0x7D2 JUMP JUMPDEST PUSH2 0x52A JUMP JUMPDEST PUSH2 0x512 SWAP2 SWAP3 POP DUP8 RETURNDATASIZE DUP10 GT PUSH2 0x438 JUMPI PUSH2 0x429 DUP2 DUP4 PUSH2 0x5BD JUMP JUMPDEST SWAP1 CODESIZE PUSH2 0x4ED JUMP JUMPDEST PUSH1 0x40 MLOAD PUSH4 0xE4455EAD PUSH1 0xE0 SHL DUP2 MSTORE DUP4 SWAP1 REVERT JUMPDEST PUSH1 0x0 NOT DUP2 EQ PUSH2 0x539 JUMPI PUSH1 0x1 ADD SWAP1 JUMP JUMPDEST PUSH4 0x4E487B71 PUSH1 0xE0 SHL PUSH1 0x0 MSTORE PUSH1 0x11 PUSH1 0x4 MSTORE PUSH1 0x24 PUSH1 0x0 REVERT JUMPDEST SWAP2 SWAP1 DUP2 LT ISZERO PUSH2 0x571 JUMPI PUSH1 0x5 SHL DUP2 ADD CALLDATALOAD SWAP1 PUSH1 0x9E NOT DUP2 CALLDATASIZE SUB ADD DUP3 SLT ISZERO PUSH2 0xF4 JUMPI ADD SWAP1 JUMP JUMPDEST PUSH4 0x4E487B71 PUSH1 0xE0 SHL PUSH1 0x0 MSTORE PUSH1 0x32 PUSH1 0x4 MSTORE PUSH1 0x24 PUSH1 0x0 REVERT JUMPDEST PUSH4 0x4E487B71 PUSH1 0xE0 SHL PUSH1 0x0 MSTORE PUSH1 0x41 PUSH1 0x4 MSTORE PUSH1 0x24 PUSH1 0x0 REVERT JUMPDEST PUSH1 0xA0 DUP2 ADD SWAP1 DUP2 LT PUSH1 0x1 PUSH1 0x1 PUSH1 0x40 SHL SUB DUP3 GT OR PUSH2 0x5B8 JUMPI PUSH1 0x40 MSTORE JUMP JUMPDEST PUSH2 0x587 JUMP JUMPDEST SWAP1 PUSH1 0x1F DUP1 NOT SWAP2 ADD AND DUP2 ADD SWAP1 DUP2 LT PUSH1 0x1 PUSH1 0x1 PUSH1 0x40 SHL SUB DUP3 GT OR PUSH2 0x5B8 JUMPI PUSH1 0x40 MSTORE JUMP JUMPDEST PUSH1 0x1 PUSH1 0x1 PUSH1 0x40 SHL SUB DUP2 GT PUSH2 0x5B8 JUMPI PUSH1 0x1F ADD PUSH1 0x1F NOT AND PUSH1 0x20 ADD SWAP1 JUMP JUMPDEST DUP2 PUSH1 0x1F DUP3 ADD SLT ISZERO PUSH2 0xF4 JUMPI DUP1 CALLDATALOAD SWAP1 PUSH2 0x610 DUP3 PUSH2 0x5DE JUMP JUMPDEST SWAP3 PUSH2 0x61E PUSH1 0x40 MLOAD SWAP5 DUP6 PUSH2 0x5BD JUMP JUMPDEST DUP3 DUP5 MSTORE PUSH1 0x20 DUP4 DUP4 ADD ADD GT PUSH2 0xF4 JUMPI DUP2 PUSH1 0x0 SWAP3 PUSH1 0x20 DUP1 SWAP4 ADD DUP4 DUP7 ADD CALLDATACOPY DUP4 ADD ADD MSTORE SWAP1 JUMP JUMPDEST PUSH1 0xA0 DUP2 CALLDATASIZE SUB SLT PUSH2 0xF4 JUMPI PUSH1 0x40 MLOAD SWAP1 PUSH2 0x657 DUP3 PUSH2 0x59D JUMP JUMPDEST DUP1 CALLDATALOAD PUSH1 0x4 DUP2 LT ISZERO PUSH2 0xF4 JUMPI DUP3 MSTORE PUSH2 0x670 PUSH1 0x20 DUP3 ADD PUSH2 0xF9 JUMP JUMPDEST PUSH1 0x20 DUP4 ADD MSTORE PUSH1 0x40 DUP2 ADD CALLDATALOAD PUSH1 0x40 DUP4 ADD MSTORE PUSH1 0x60 DUP2 ADD CALLDATALOAD SWAP1 PUSH1 0x1 PUSH1 0x1 PUSH1 0x40 SHL SUB SWAP2 DUP3 DUP2 GT PUSH2 0xF4 JUMPI PUSH2 0x6A2 SWAP1 CALLDATASIZE SWAP1 DUP4 ADD PUSH2 0x5F9 JUMP JUMPDEST PUSH1 0x60 DUP5 ADD MSTORE PUSH1 0x80 DUP2 ADD CALLDATALOAD SWAP2 DUP3 GT PUSH2 0xF4 JUMPI PUSH2 0x6BF SWAP2 CALLDATASIZE SWAP2 ADD PUSH2 0x5F9 JUMP JUMPDEST PUSH1 0x80 DUP3 ADD MSTORE SWAP1 JUMP JUMPDEST PUSH1 0x4 GT ISZERO PUSH2 0x6D1 JUMPI JUMP JUMPDEST PUSH4 0x4E487B71 PUSH1 0xE0 SHL PUSH1 0x0 MSTORE PUSH1 0x21 PUSH1 0x4 MSTORE PUSH1 0x24 PUSH1 0x0 REVERT JUMPDEST SWAP1 DUP2 PUSH1 0x20 SWAP2 SUB SLT PUSH2 0xF4 JUMPI MLOAD PUSH2 0x6FC DUP2 PUSH2 0xE3 JUMP JUMPDEST SWAP1 JUMP JUMPDEST SWAP1 DUP2 PUSH1 0x20 SWAP2 SUB SLT PUSH2 0xF4 JUMPI MLOAD SWAP1 JUMP JUMPDEST PUSH1 0x40 MLOAD RETURNDATASIZE PUSH1 0x0 DUP3 RETURNDATACOPY RETURNDATASIZE SWAP1 REVERT JUMPDEST SWAP2 SWAP1 DUP3 PUSH1 0x40 SWAP2 SUB SLT PUSH2 0xF4 JUMPI PUSH1 0x20 DUP3 MLOAD PUSH2 0x733 DUP2 PUSH2 0xE3 JUMP JUMPDEST SWAP3 ADD MLOAD SWAP1 JUMP JUMPDEST RETURNDATASIZE ISZERO PUSH2 0x764 JUMPI RETURNDATASIZE SWAP1 PUSH2 0x74A DUP3 PUSH2 0x5DE JUMP JUMPDEST SWAP2 PUSH2 0x758 PUSH1 0x40 MLOAD SWAP4 DUP5 PUSH2 0x5BD JUMP JUMPDEST DUP3 MSTORE RETURNDATASIZE PUSH1 0x0 PUSH1 0x20 DUP5 ADD RETURNDATACOPY JUMP JUMPDEST PUSH1 0x60 SWAP1 JUMP JUMPDEST SWAP1 SWAP3 SWAP2 SWAP3 DUP2 MSTORE PUSH1 0x20 SWAP3 PUSH1 0x40 DUP5 DUP4 ADD MSTORE DUP1 MLOAD SWAP1 DUP2 PUSH1 0x40 DUP5 ADD MSTORE PUSH1 0x0 JUMPDEST DUP3 DUP2 LT PUSH2 0x7A6 JUMPI POP POP PUSH1 0x60 SWAP3 SWAP4 POP PUSH1 0x0 DUP4 DUP3 DUP5 ADD ADD MSTORE PUSH1 0x1F DUP1 NOT SWAP2 ADD AND ADD ADD SWAP1 JUMP JUMPDEST DUP2 DUP2 ADD DUP7 ADD MLOAD DUP5 DUP3 ADD PUSH1 0x60 ADD MSTORE DUP6 ADD PUSH2 0x784 JUMP JUMPDEST SWAP1 DUP2 PUSH1 0x20 SWAP2 SUB SLT PUSH2 0xF4 JUMPI MLOAD DUP1 ISZERO ISZERO DUP2 SUB PUSH2 0xF4 JUMPI SWAP1 JUMP JUMPDEST PUSH1 0x40 MLOAD PUSH4 0x23B872DD PUSH1 0xE0 SHL PUSH1 0x20 DUP3 ADD SWAP1 DUP2 MSTORE PUSH1 0x1 PUSH1 0x1 PUSH1 0xA0 SHL SUB SWAP1 SWAP4 AND PUSH1 0x24 DUP3 ADD MSTORE ADDRESS PUSH1 0x44 DUP3 ADD MSTORE PUSH1 0x64 DUP1 DUP3 ADD SWAP5 SWAP1 SWAP5 MSTORE SWAP3 DUP4 MSTORE SWAP2 PUSH1 0x0 SWAP2 DUP3 SWAP2 PUSH2 0x815 DUP2 PUSH2 0x59D JUMP JUMPDEST MLOAD SWAP1 DUP3 DUP6 GAS CALL PUSH2 0x823 PUSH2 0x739 JUMP JUMPDEST DUP2 PUSH2 0x856 JUMPI JUMPDEST POP ISZERO SWAP1 DUP2 ISZERO PUSH2 0x84C JUMPI JUMPDEST POP PUSH2 0x83A JUMPI JUMP JUMPDEST PUSH1 0x40 MLOAD PUSH4 0x12171D83 PUSH1 0xE3 SHL DUP2 MSTORE PUSH1 0x4 SWAP1 REVERT JUMPDEST SWAP1 POP EXTCODESIZE ISZERO CODESIZE PUSH2 0x833 JUMP JUMPDEST DUP1 MLOAD DUP1 ISZERO SWAP3 POP DUP3 ISZERO PUSH2 0x86B JUMPI JUMPDEST POP POP CODESIZE PUSH2 0x829 JUMP JUMPDEST PUSH2 0x87E SWAP3 POP PUSH1 0x20 DUP1 SWAP2 DUP4 ADD ADD SWAP2 ADD PUSH2 0x7BA JUMP JUMPDEST CODESIZE DUP1 PUSH2 0x863 JUMP INVALID LOG2 PUSH5 0x6970667358 0x22 SLT KECCAK256 PUSH20 0x9CD25E7345476811677D5D7BD18922DBAA88553A 0xAF COINBASE RETURN CALLDATASIZE 0xAD 0xEB MSTORE8 PUSH31 0xE8FB2064736F6C634300081300330000000000000000000000000000000000 "},"methodIdentifiers":{"onERC1155BatchReceived(address,address,uint256[],uint256[],bytes)":"bc197c81","onERC1155Received(address,address,uint256,uint256,bytes)":"f23a6e61","onERC721Received(address,address,uint256,bytes)":"150b7a02","run((uint8,address,uint256,bytes,bytes)[])":"f87ef800","supportsInterface(bytes4)":"01ffc9a7"}}}}}