{
  "_format": "hh-sol-artifact-1",
  "contractName": "SquidRouter",
  "sourceName": "contracts/squidRouter.sol",
  "abi": [
    {
      "inputs": [
        {
          "internalType": "address",
          "name": "_gateway",
          "type": "address"
        },
        {
          "internalType": "address",
          "name": "_gasService",
          "type": "address"
        },
        {
          "internalType": "address",
          "name": "_forecallGasService",
          "type": "address"
        },
        {
          "internalType": "address",
          "name": "_multicall",
          "type": "address"
        }
      ],
      "stateMutability": "nonpayable",
      "type": "constructor"
    },
    {
      "inputs": [],
      "name": "AlreadyForecalled",
      "type": "error"
    },
    {
      "inputs": [],
      "name": "ApprovalFailed",
      "type": "error"
    },
    {
      "inputs": [],
      "name": "ContractIsPaused",
      "type": "error"
    },
    {
      "inputs": [],
      "name": "InvalidAddress",
      "type": "error"
    },
    {
      "inputs": [],
      "name": "NotApprovedByGateway",
      "type": "error"
    },
    {
      "inputs": [],
      "name": "NotPauser",
      "type": "error"
    },
    {
      "inputs": [],
      "name": "NotPendingPauser",
      "type": "error"
    },
    {
      "inputs": [],
      "name": "TransferFailed",
      "type": "error"
    },
    {
      "inputs": [],
      "name": "ZeroAddressProvided",
      "type": "error"
    },
    {
      "anonymous": false,
      "inputs": [
        {
          "indexed": true,
          "internalType": "bytes32",
          "name": "payloadHash",
          "type": "bytes32"
        }
      ],
      "name": "CrossMulticallExecuted",
      "type": "event"
    },
    {
      "anonymous": false,
      "inputs": [
        {
          "indexed": true,
          "internalType": "bytes32",
          "name": "payloadHash",
          "type": "bytes32"
        },
        {
          "indexed": false,
          "internalType": "bytes",
          "name": "reason",
          "type": "bytes"
        },
        {
          "indexed": true,
          "internalType": "address",
          "name": "refundRecipient",
          "type": "address"
        }
      ],
      "name": "CrossMulticallFailed",
      "type": "event"
    },
    {
      "anonymous": false,
      "inputs": [],
      "name": "Paused",
      "type": "event"
    },
    {
      "anonymous": false,
      "inputs": [
        {
          "indexed": true,
          "internalType": "address",
          "name": "currentPauser",
          "type": "address"
        },
        {
          "indexed": true,
          "internalType": "address",
          "name": "pendingPauser",
          "type": "address"
        }
      ],
      "name": "PauserProposed",
      "type": "event"
    },
    {
      "anonymous": false,
      "inputs": [
        {
          "indexed": true,
          "internalType": "address",
          "name": "pendingPauser",
          "type": "address"
        }
      ],
      "name": "PauserUpdated",
      "type": "event"
    },
    {
      "anonymous": false,
      "inputs": [],
      "name": "Unpaused",
      "type": "event"
    },
    {
      "inputs": [],
      "name": "FORECALLERS_SALT",
      "outputs": [
        {
          "internalType": "uint256",
          "name": "",
          "type": "uint256"
        }
      ],
      "stateMutability": "view",
      "type": "function"
    },
    {
      "inputs": [],
      "name": "acceptPauser",
      "outputs": [],
      "stateMutability": "nonpayable",
      "type": "function"
    },
    {
      "inputs": [
        {
          "internalType": "uint256",
          "name": "amount",
          "type": "uint256"
        },
        {
          "internalType": "bytes",
          "name": "",
          "type": "bytes"
        }
      ],
      "name": "amountPostFee",
      "outputs": [
        {
          "internalType": "uint256",
          "name": "",
          "type": "uint256"
        }
      ],
      "stateMutability": "nonpayable",
      "type": "function"
    },
    {
      "inputs": [
        {
          "internalType": "string",
          "name": "bridgedTokenSymbol",
          "type": "string"
        },
        {
          "internalType": "uint256",
          "name": "amount",
          "type": "uint256"
        },
        {
          "internalType": "string",
          "name": "destinationChain",
          "type": "string"
        },
        {
          "internalType": "string",
          "name": "destinationAddress",
          "type": "string"
        },
        {
          "internalType": "bytes",
          "name": "payload",
          "type": "bytes"
        },
        {
          "internalType": "address",
          "name": "gasRefundRecipient",
          "type": "address"
        },
        {
          "internalType": "bool",
          "name": "enableExpress",
          "type": "bool"
        }
      ],
      "name": "bridgeCall",
      "outputs": [],
      "stateMutability": "payable",
      "type": "function"
    },
    {
      "inputs": [
        {
          "internalType": "address",
          "name": "token",
          "type": "address"
        },
        {
          "internalType": "uint256",
          "name": "amount",
          "type": "uint256"
        },
        {
          "components": [
            {
              "internalType": "enum ISquidMulticall.CallType",
              "name": "callType",
              "type": "uint8"
            },
            {
              "internalType": "address",
              "name": "target",
              "type": "address"
            },
            {
              "internalType": "uint256",
              "name": "value",
              "type": "uint256"
            },
            {
              "internalType": "bytes",
              "name": "callData",
              "type": "bytes"
            },
            {
              "internalType": "bytes",
              "name": "payload",
              "type": "bytes"
            }
          ],
          "internalType": "struct ISquidMulticall.Call[]",
          "name": "calls",
          "type": "tuple[]"
        },
        {
          "internalType": "string",
          "name": "bridgedTokenSymbol",
          "type": "string"
        },
        {
          "internalType": "string",
          "name": "destinationChain",
          "type": "string"
        },
        {
          "internalType": "string",
          "name": "destinationAddress",
          "type": "string"
        }
      ],
      "name": "callBridge",
      "outputs": [],
      "stateMutability": "payable",
      "type": "function"
    },
    {
      "inputs": [
        {
          "internalType": "address",
          "name": "token",
          "type": "address"
        },
        {
          "internalType": "uint256",
          "name": "amount",
          "type": "uint256"
        },
        {
          "components": [
            {
              "internalType": "enum ISquidMulticall.CallType",
              "name": "callType",
              "type": "uint8"
            },
            {
              "internalType": "address",
              "name": "target",
              "type": "address"
            },
            {
              "internalType": "uint256",
              "name": "value",
              "type": "uint256"
            },
            {
              "internalType": "bytes",
              "name": "callData",
              "type": "bytes"
            },
            {
              "internalType": "bytes",
              "name": "payload",
              "type": "bytes"
            }
          ],
          "internalType": "struct ISquidMulticall.Call[]",
          "name": "calls",
          "type": "tuple[]"
        },
        {
          "internalType": "string",
          "name": "bridgedTokenSymbol",
          "type": "string"
        },
        {
          "internalType": "string",
          "name": "destinationChain",
          "type": "string"
        },
        {
          "internalType": "string",
          "name": "destinationAddress",
          "type": "string"
        },
        {
          "internalType": "bytes",
          "name": "payload",
          "type": "bytes"
        },
        {
          "internalType": "address",
          "name": "gasRefundRecipient",
          "type": "address"
        },
        {
          "internalType": "bool",
          "name": "enableExpress",
          "type": "bool"
        }
      ],
      "name": "callBridgeCall",
      "outputs": [],
      "stateMutability": "payable",
      "type": "function"
    },
    {
      "inputs": [],
      "name": "contractId",
      "outputs": [
        {
          "internalType": "bytes32",
          "name": "id",
          "type": "bytes32"
        }
      ],
      "stateMutability": "pure",
      "type": "function"
    },
    {
      "inputs": [
        {
          "internalType": "bytes32",
          "name": "commandId",
          "type": "bytes32"
        },
        {
          "internalType": "string",
          "name": "sourceChain",
          "type": "string"
        },
        {
          "internalType": "string",
          "name": "sourceAddress",
          "type": "string"
        },
        {
          "internalType": "bytes",
          "name": "payload",
          "type": "bytes"
        }
      ],
      "name": "execute",
      "outputs": [],
      "stateMutability": "nonpayable",
      "type": "function"
    },
    {
      "inputs": [
        {
          "internalType": "bytes32",
          "name": "commandId",
          "type": "bytes32"
        },
        {
          "internalType": "string",
          "name": "sourceChain",
          "type": "string"
        },
        {
          "internalType": "string",
          "name": "sourceAddress",
          "type": "string"
        },
        {
          "internalType": "bytes",
          "name": "payload",
          "type": "bytes"
        },
        {
          "internalType": "string",
          "name": "tokenSymbol",
          "type": "string"
        },
        {
          "internalType": "uint256",
          "name": "amount",
          "type": "uint256"
        }
      ],
      "name": "executeWithToken",
      "outputs": [],
      "stateMutability": "nonpayable",
      "type": "function"
    },
    {
      "inputs": [
        {
          "internalType": "string",
          "name": "sourceChain",
          "type": "string"
        },
        {
          "internalType": "string",
          "name": "sourceAddress",
          "type": "string"
        },
        {
          "internalType": "bytes",
          "name": "payload",
          "type": "bytes"
        }
      ],
      "name": "forecall",
      "outputs": [],
      "stateMutability": "nonpayable",
      "type": "function"
    },
    {
      "inputs": [
        {
          "internalType": "string",
          "name": "sourceChain",
          "type": "string"
        },
        {
          "internalType": "string",
          "name": "sourceAddress",
          "type": "string"
        },
        {
          "internalType": "bytes",
          "name": "payload",
          "type": "bytes"
        },
        {
          "internalType": "string",
          "name": "tokenSymbol",
          "type": "string"
        },
        {
          "internalType": "uint256",
          "name": "amount",
          "type": "uint256"
        }
      ],
      "name": "forecallWithToken",
      "outputs": [],
      "stateMutability": "nonpayable",
      "type": "function"
    },
    {
      "inputs": [
        {
          "internalType": "address",
          "name": "token",
          "type": "address"
        },
        {
          "internalType": "uint256",
          "name": "amount",
          "type": "uint256"
        },
        {
          "components": [
            {
              "internalType": "enum ISquidMulticall.CallType",
              "name": "callType",
              "type": "uint8"
            },
            {
              "internalType": "address",
              "name": "target",
              "type": "address"
            },
            {
              "internalType": "uint256",
              "name": "value",
              "type": "uint256"
            },
            {
              "internalType": "bytes",
              "name": "callData",
              "type": "bytes"
            },
            {
              "internalType": "bytes",
              "name": "payload",
              "type": "bytes"
            }
          ],
          "internalType": "struct ISquidMulticall.Call[]",
          "name": "calls",
          "type": "tuple[]"
        }
      ],
      "name": "fundAndRunMulticall",
      "outputs": [],
      "stateMutability": "payable",
      "type": "function"
    },
    {
      "inputs": [],
      "name": "gateway",
      "outputs": [
        {
          "internalType": "contract IAxelarGateway",
          "name": "",
          "type": "address"
        }
      ],
      "stateMutability": "view",
      "type": "function"
    },
    {
      "inputs": [
        {
          "internalType": "string",
          "name": "sourceChain",
          "type": "string"
        },
        {
          "internalType": "string",
          "name": "sourceAddress",
          "type": "string"
        },
        {
          "internalType": "bytes",
          "name": "payload",
          "type": "bytes"
        }
      ],
      "name": "getForecaller",
      "outputs": [
        {
          "internalType": "address",
          "name": "forecaller",
          "type": "address"
        }
      ],
      "stateMutability": "view",
      "type": "function"
    },
    {
      "inputs": [
        {
          "internalType": "string",
          "name": "sourceChain",
          "type": "string"
        },
        {
          "internalType": "string",
          "name": "sourceAddress",
          "type": "string"
        },
        {
          "internalType": "bytes",
          "name": "payload",
          "type": "bytes"
        },
        {
          "internalType": "string",
          "name": "symbol",
          "type": "string"
        },
        {
          "internalType": "uint256",
          "name": "amount",
          "type": "uint256"
        }
      ],
      "name": "getForecallerWithToken",
      "outputs": [
        {
          "internalType": "address",
          "name": "forecaller",
          "type": "address"
        }
      ],
      "stateMutability": "view",
      "type": "function"
    },
    {
      "inputs": [],
      "name": "pause",
      "outputs": [],
      "stateMutability": "nonpayable",
      "type": "function"
    },
    {
      "inputs": [],
      "name": "paused",
      "outputs": [
        {
          "internalType": "bool",
          "name": "value",
          "type": "bool"
        }
      ],
      "stateMutability": "view",
      "type": "function"
    },
    {
      "inputs": [],
      "name": "pauser",
      "outputs": [
        {
          "internalType": "address",
          "name": "value",
          "type": "address"
        }
      ],
      "stateMutability": "view",
      "type": "function"
    },
    {
      "inputs": [],
      "name": "pendingPauser",
      "outputs": [
        {
          "internalType": "address",
          "name": "value",
          "type": "address"
        }
      ],
      "stateMutability": "view",
      "type": "function"
    },
    {
      "inputs": [],
      "name": "unpause",
      "outputs": [],
      "stateMutability": "nonpayable",
      "type": "function"
    },
    {
      "inputs": [
        {
          "internalType": "address",
          "name": "newPauser",
          "type": "address"
        }
      ],
      "name": "updatePauser",
      "outputs": [],
      "stateMutability": "nonpayable",
      "type": "function"
    }
  ],
  "bytecode": "0x61010034620001e857601f6200257e38819003918201601f19168301916001600160401b03831184841017620001ed57808492608094604052833981010312620001e8576200004e8162000203565b906200005d6020820162000203565b906200007a6060620000726040840162000203565b920162000203565b6001600160a01b039390929084168015620001d657608052337f23e06a2ed150be3aaebbce1156aecc5187e5e955ea717a17e165cca37ef8c379558360405191337fa4336c0cb1e245b95ad204faed7e940d6dc999684fd8b5e1ff597a0c4efca8ab600080a2169081158015620001cb575b8015620001c0575b620001b1575060a052821660c0521660e052604051612365908162000219823960805181818161017c0152818161074601528181610cfd0152818161100a01528181611256015281816113d80152818161148f01528181611577015281816117a70152611f2f015260a05181612108015260c0518161200f015260e0518181816102cb01528181610692015281816106e4015281816107fc01528181610a2a01528181610abb01528181610c9d01528181610ea201526115e90152f35b638474420160e01b8152600490fd5b5084841615620000f4565b5084831615620000ec565b60405163e6c4247b60e01b8152600490fd5b600080fd5b634e487b7160e01b600052604160045260246000fd5b51906001600160a01b0382168203620001e85756fe6080604052600436101561001257600080fd5b6000803560e01c806309cc027b146117ff5780630d38218a146117d6578063116191b614611791578063167a6f90146117125780631a98b2e0146112c157806321477960146111725780633ca2fd8e146111335780633f4ba83a146110cb5780634916065814610f3357806352c41eb614610bbe578063554bab3c14610b4857806358181a80146109ae5780635c975abb146109815780638291286c146109465780638456cb59146108cb578063846a1bc61461057c5780639a7165e4146105465780639fd0506d14610510578063d0224434146104bc578063e888e86c146101385763facd28a91461010457600080fd5b3461013557602061012361011736611b0d565b94939093929192611be4565b6040516001600160a01b039091168152f35b80fd5b50346101355761017a61014a3661184f565b919897929593969094898b602060405180809d81956349ad89fb60e11b83528460048401528c6024840191611b72565b7f00000000000000000000000000000000000000000000000000000000000000006001600160a01b03169e919003908e5afa80156104af576101c692869291610490575b503390611d9a565b6001600160a01b036101df84888d8b8d878c8a8d611c6d565b1661047e5761020f92868b898b610201956040519a8b9860208a019b8c611c1f565b03601f19810184528361195d565b3391519020558183016040848203126103ef578335906001600160401b03821161047a5761023e918501611af2565b9060208401359560018060a01b03871680970361047a5761027f956020926040518098819482936349ad89fb60e11b84528760048501526024840191611b72565b03915afa93841561046f57869461043e575b506040516370a0823160e01b81523060048201529086906020836024816001600160a01b038a165afa9283156104335782936103f7575b507f00000000000000000000000000000000000000000000000000000000000000006001600160a01b03166102fe848289612171565b803b156103f3576103288392918392604051958680948193621f0fdf60eb1b835260048301611e06565b03925af191826103db575b505061039e577fdd7b1484db8d21f4fbda2407f2920037dc379dd66e18b0851aa9d6c14ef493b9926103989261037561037c938861036f611cad565b98611cdd565b3691611999565b6020815191012092604051918291602083526020830190611dc6565b0390a380f35b506103ad935036925090611999565b602081519101207f7c3aa10c5d96985be6de7d2e6fa79bdef95a95a9cb272f4113b3fe1ca89fedae8280a280f35b6103e490611919565b6103ef578638610333565b8680fd5b8280fd5b915091506020813d60201161042b575b816104146020938361195d565b810103126104265786905191386102c8565b600080fd5b3d9150610407565b6040513d84823e3d90fd5b61046191945060203d602011610468575b610459818361195d565b810190611c8e565b9238610291565b503d61044f565b6040513d88823e3d90fd5b8780fd5b60405163035b7d5560e41b8152600490fd5b6104a9915060203d60201161046857610459818361195d565b386101be565b50604051903d90823e3d90fd5b5034610135576104cb36611b0d565b92949390929091906001600160a01b036104e98286858a888b611be4565b1661047e576105079361020192604051978895602087019889611b93565b33915190205580f35b50346101355780600319360112610135576000805160206122f0833981519152546040516001600160a01b039091168152602090f35b50346101355780600319360112610135576000805160206122d0833981519152546040516001600160a01b039091168152602090f35b50610120366003190112610135576105926118d3565b6001600160401b03906044358281116108c7576105b39036906004016118e9565b916064358481116108c3576105cc903690600401611822565b93909260843586811161047a576105e7903690600401611822565b60a4979197358281116108bf57610602903690600401611822565b93909260c4359081116108bb5761061d903690600401611822565b96909560e4356001600160a01b0381169003610426576101043515156101043503610426576000805160206122b0833981519152546108a9578b926106639136916119ee565b9082906001600160a01b03811673eeeeeeeeeeeeeeeeeeeeeeeeeeeeeeeeeeeeeeee036107d45750506024355b7f00000000000000000000000000000000000000000000000000000000000000006001600160a01b03163b156103f3576106e09183916040518080958194621f0fdf60eb1b835260048301611e06565b03917f00000000000000000000000000000000000000000000000000000000000000006001600160a01b03165af18015610433576107bc575b5050604051976349ad89fb60e11b8952602060048a015260208980610742602482018c8c611b72565b03817f00000000000000000000000000000000000000000000000000000000000000006001600160a01b03165afa80156107b157610790998b91610793575b50610104359860e43598611ed6565b80f35b6107ab915060203d811161046857610459818361195d565b38610781565b6040513d8c823e3d90fd5b6107c590611919565b6107d0578838610719565b8880fd5b90928060405160208101906323b872dd60e01b82526108348161082660243560018060a01b037f0000000000000000000000000000000000000000000000000000000000000000163360248501611d78565b03601f19810183528261195d565b519082855af1610842611cad565b8161087a575b5015908115610870575b5061085e578a91610690565b6040516312171d8360e31b8152600490fd5b90503b1538610852565b805180159250821561088f575b505038610848565b6108a29250602080918301019101611c07565b3880610887565b6040516306d39fcd60e41b8152600490fd5b8a80fd5b8980fd5b8580fd5b8380fd5b50346101355780600319360112610135576000805160206122f0833981519152546001600160a01b031633036109345760016000805160206122b0833981519152557f9e87fac88ff661f02d44f95383c817fece4bce600a3dab7a54406878b965e7528180a180f35b60405163492f678160e01b8152600490fd5b503461013557806003193601126101355760206040517fc097d45e5a99ca772ab5ec2e5457c2e249760944b95b0b97cbb6b03ec55bae848152f35b503461013557806003193601126101355760206000805160206122b0833981519152546040519015158152f35b506060366003190112610135576109c36118d3565b602435906044356001600160401b0381116108c7576109e6903690600401611af2565b6000805160206122b0833981519152546108a95783926001600160a01b0392849080851673eeeeeeeeeeeeeeeeeeeeeeeeeeeeeeeeeeeeeeee03610a99575050915b7f00000000000000000000000000000000000000000000000000000000000000001690813b15610a94578391610a7391604051948580948193621f0fdf60eb1b835260048301611e06565b03925af1801561043357610a845750f35b610a8d90611919565b6101355780f35b505050fd5b919480919495604051610ae58161082660208201946323b872dd60e01b86528b7f0000000000000000000000000000000000000000000000000000000000000000163360248501611d78565b519082855af1610af3611cad565b81610b19575b5015908115610b0f575b5061085e578392610a28565b90503b1538610b03565b8051801592508215610b2e575b505038610af9565b610b419250602080918301019101611c07565b3880610b26565b503461013557602036600319011261013557610b626118d3565b6000805160206122f0833981519152546001600160a01b0391908216330361093457806000805160206122d08339815191525516337f3210edd3f0fc490ffc59a4adae6f48dbda2d8e89afe5b37a0145a54762f3ecf98380a380f35b5060031960c036820112610f2f57610bd46118d3565b6001600160401b0391602435916044358481116108c357610bf99036906004016118e9565b909460643581811161047a57610c13903690600401611822565b936084358381116108bf57610c2c903690600401611822565b91909360a4359081116108bb57610c47903690600401611822565b9890956000805160206122b0833981519152546108a9578b9a610c6b9136916119ee565b6001600160a01b03929091908b9080851673eeeeeeeeeeeeeeeeeeeeeeeeeeeeeeeeeeeeeeee03610e80575050905b827f00000000000000000000000000000000000000000000000000000000000000001690813b15610e7c578b91610ce691604051948580948193621f0fdf60eb1b835260048301611e06565b03925af19081156107b1578a91610e68575b5050807f00000000000000000000000000000000000000000000000000000000000000001694604051916349ad89fb60e11b8352602092836004820152838180610d46602482018d8b611b72565b03818b5afa908115610e3d5784908d92610e48575b506040516370a0823160e01b815230600482015291928290602490829086165afa938415610e3d578c94610e08575b50508287610d9792612171565b853b156108bf578997610dd2978995610de2610df1946040519d8e9c8d9b8c9a6326ef699d60e01b8c52608060048d015260848c0191611b72565b91868a84030160248b0152611b72565b92868403016044870152611b72565b90606483015203925af1801561043357610a845750f35b819c50809294503d8311610e36575b610e21818361195d565b810103126104265798518a9990918087610d8a565b503d610e17565b6040513d8e823e3d90fd5b60249250610e6290823d841161046857610459818361195d565b91610d5b565b610e7190611919565b6107d0578838610cf8565b8b80fd5b919b8091939c604051610ecc8161082660208201946323b872dd60e01b86528a7f0000000000000000000000000000000000000000000000000000000000000000163360248501611d78565b519082855af1610eda611cad565b81610f00575b5015908115610ef6575b5061085e578a99610c9a565b90503b1538610eea565b8051801592508215610f15575b505038610ee0565b610f289250602080918301019101611c07565b3880610f0d565b5080fd5b503461013557600319608036820112610f2f576001600160401b03906024358281116108c757610f67903690600401611822565b9290916044358281116108c357610f82903690600401611822565b9490926064359081116103ef57610f9d903690600401611822565b959092610fab368886611999565b6020815191012090610ff260405191635f6970c360e01b8352600435600484015260806024840152610fe160848401878b611b72565b908382030160448401528488611b72565b9160648201526020818060018060a01b039403818c867f0000000000000000000000000000000000000000000000000000000000000000165af19081156110c0578991611092575b50156110805761104e87858488878b611be4565b161561107757600095611070936108269260405196879560208701998a611b93565b5190205580f35b50505050505080f35b604051631403112d60e21b8152600490fd5b6110b3915060203d81116110b9575b6110ab818361195d565b810190611c07565b3861103a565b503d6110a1565b6040513d8b823e3d90fd5b50346101355780600319360112610135576000805160206122f0833981519152546001600160a01b0316330361093457806000805160206122b0833981519152557fa45f47fdea8a1efdd9029a5691c7f759c32b7c698632b563573e155625d169338180a180f35b5034610135576040366003190112610135576024356001600160401b038111610f2f57611164903690600401611822565b505060206040516004358152f35b5060e0366003190112610135576001600160401b036004358181116103f35761119f903690600401611822565b90916044358181116112bd576111b9903690600401611822565b6064929192358281116103ef576111d4903690600401611822565b909260843590811161047a576111ee903690600401611822565b6001600160a01b039760a4359691959294919089881688036104265760c435988915158a03610426576000805160206122b0833981519152546108a9576020604051809c6349ad89fb60e11b82528260048301528180611252602482018789611b72565b03917f0000000000000000000000000000000000000000000000000000000000000000165afa918215610e3d576107909b8d9361129d575b506112986024353385611d9a565b611ed6565b6112b691935060203d811161046857610459818361195d565b913861128a565b8480fd5b50346101355760031960c036820112610f2f576024356001600160401b0381116103f3576112f3903690600401611822565b916044356001600160401b0381116112bd57611313903690600401611822565b6064949194356001600160401b0381116103ef57611335903690600401611822565b959094608435966001600160401b0388116107d0576113cb61135d6020993690600401611822565b99909761136b36858c611999565b805190830120604051631876eed960e01b8152600480359082015260c060248201529384928392906113b56113a460c486018e8c611b72565b828682030160448701528c8c611b72565b9160648501528382030160848401528d8c611b72565b60a480359083015203818d7f00000000000000000000000000000000000000000000000000000000000000006001600160a01b03165af19081156107b1578a916116f3575b50156110805761142960a4358988848b89898c8a611c6d565b966001600160a01b03881615611501576000936108268897948b60209a61148b9d9996611464966040519889978f89019b60a435978d611c1f565b519020556040516349ad89fb60e11b81526004810184905294859283926024840191611b72565b03817f00000000000000000000000000000000000000000000000000000000000000006001600160a01b03165afa9081156114f6576107909284926114d5575b5060a43591611cdd565b6114ef91925060203d60201161046857610459818361195d565b90386114cb565b6040513d85823e3d90fd5b95965093505050508082016040838203126108c3578235906001600160401b0382116103ef57611532918401611af2565b60208301356001600160a01b03811695908690036103ef576115739460209160405196879283926349ad89fb60e11b84528560048501526024840191611b72565b03817f00000000000000000000000000000000000000000000000000000000000000006001600160a01b03165afa93841561046f5786946116d2575b506040516370a0823160e01b81523060048201529086906020836024816001600160a01b038a165afa92831561043357829361169e575b507f00000000000000000000000000000000000000000000000000000000000000006001600160a01b03169061161d848389612171565b813b156103f357829161164591604051948580948193621f0fdf60eb1b835260048301611e06565b03925af1908161168b575b5061039e577fdd7b1484db8d21f4fbda2407f2920037dc379dd66e18b0851aa9d6c14ef493b9926103989261037561037c938861036f611cad565b61169790979197611919565b9538611650565b9092506020813d6020116116ca575b816116ba6020938361195d565b81010312610f2f575191386115e6565b3d91506116ad565b6116ec91945060203d60201161046857610459818361195d565b92386115af565b61170c915060203d6020116110b9576110ab818361195d565b38611410565b50346101355780600319360112610135576000805160206122d083398151915280546001600160a01b0316330361177f578190336000805160206122f083398151915255337fa4336c0cb1e245b95ad204faed7e940d6dc999684fd8b5e1ff597a0c4efca8ab8380a25580f35b6040516316744e1b60e31b8152600490fd5b50346101355780600319360112610135576040517f00000000000000000000000000000000000000000000000000000000000000006001600160a01b03168152602090f35b503461013557806003193601126101355760206040516000805160206123108339815191528152f35b50346101355760206101236118133661184f565b97969096959195949294611c6d565b9181601f84011215610426578235916001600160401b038311610426576020838186019501011161042657565b60a0600319820112610426576001600160401b0390600435828111610426578161187b91600401611822565b93909392602435818111610426578361189691600401611822565b9390939260443583811161042657826118b191600401611822565b93909392606435918211610426576118cb91600401611822565b909160843590565b600435906001600160a01b038216820361042657565b9181601f84011215610426578235916001600160401b038311610426576020808501948460051b01011161042657565b6001600160401b03811161192c57604052565b634e487b7160e01b600052604160045260246000fd5b608081019081106001600160401b0382111761192c57604052565b90601f801991011681019081106001600160401b0382111761192c57604052565b6001600160401b03811161192c57601f01601f191660200190565b9291926119a58261197e565b916119b3604051938461195d565b829481845281830111610426578281602093846000960137010152565b9080601f83011215610426578160206119eb93359101611999565b90565b929190926001600160401b0380851161192c578460051b604080519460208096611a1a8286018261195d565b8099815201928501948186116104265780935b868510611a3e575050505050505050565b843586811161042657820160a091828286031261042657855192830183811089821117611add57865281356004811015610426578352818a01356001600160a01b0381168103610426578a84015285820135868401526060808301358981116104265786611aad9185016119d0565b90840152608092838301359389851161042657611ace878d968796016119d0565b90820152815201940193611a2d565b60246000634e487b7160e01b81526041600452fd5b9080601f83011215610426578160206119eb933591016119ee565b906060600319830112610426576001600160401b036004358181116104265783611b3991600401611822565b939093926024358381116104265782611b5491600401611822565b9390939260443591821161042657611b6e91600401611822565b9091565b908060209392818452848401376000828201840152601f01601f1916010190565b969590611bdf93606095611bc3611bd193600080516020612310833981519152999660808d5260808d0191611b72565b918a830360208c0152611b72565b918783036040890152611b72565b930152565b94610826919294611c009460405196879560208701998a611b93565b5190205490565b90816020910312610426575180151581036104265790565b95611bd1600080516020612310833981519152999460a09996611bc3611c6399959d9e9d611c559760c08d5260c08d0191611b72565b918483036060860152611b72565b9460808201520152565b97929461082694611c00979296989398604051998a9860208a019c8d611c1f565b9081602091031261042657516001600160a01b03811681036104265790565b3d15611cd8573d90611cbe8261197e565b91611ccc604051938461195d565b82523d6000602084013e565b606090565b60405163a9059cbb60e01b602082019081526001600160a01b039093166024820152604480820194909452928352916000918291611d1a81611942565b519082855af1611d28611cad565b81611d49575b5015908115611d3f575b5061085e57565b90503b1538611d38565b8051801592508215611d5e575b505038611d2e565b611d719250602080918301019101611c07565b3880611d56565b6001600160a01b03918216815291166020820152604081019190915260600190565b91600091610826611d1a849360405192839160208301956323b872dd60e01b8752309060248501611d78565b919082519283825260005b848110611df2575050826000602080949584010152601f8019910116010190565b602081830181015184830182015201611dd1565b602080820181835283518091526040918284019381848460051b83010196019460009485925b858410611e3e57505050505050505090565b9091929394959697603f1982820301845288518051600480821015611ec357508252808701516001600160a01b031687830152838101518483015260608082015160a091840182905260019389938493611eb193611e9e91840190611dc6565b9160808092015191818403910152611dc6565b9a019401940192969594939190611e2c565b634e487b7160e01b8b526021905260248afd5b919590989294969798604098878a51956370a0823160e01b875260009d30600489015260208860248160018060a01b038097165afa978815612165578f90819961212c575b509088929147612003575b505050611f56917f000000000000000000000000000000000000000000000000000000000000000016809a612171565b873b15610e7c57918b9897969593918995938b519c8d9a8b998a98632d505c2160e21b8a5260048a0160a0905260a48a0190611f9192611b72565b60031995868a83030160248b0152611fa892611b72565b9084888303016044890152611fbc92611b72565b91858303016064860152611fcf92611b72565b90608483015203925af1908115611ffa5750611fe9575050565b611ff38291611919565b6101355750565b513d84823e3d90fd5b509091501561210557817f00000000000000000000000000000000000000000000000000000000000000005b16904790823b15612101578f91928f938f908f938c8f938f928e8e8e8e8e95519d8e9c8d9b8c9a636316100160e11b8c523060048d015260248c0160e0905260e48c019061207c92611b72565b60031995868c83030160448d015261209392611b72565b90848a83030160648b01526120a792611b72565b918783030160848801526120ba92611b72565b9260a48501521660c483015203925af180156120f5576120de575b8087918f611f26565b611f56919d6120ed8892611919565b9d91506120d5565b8e8d51903d90823e3d90fd5b8f80fd5b817f000000000000000000000000000000000000000000000000000000000000000061202f565b919850506020813d821161215d575b816121486020938361195d565b810103126121595751968e38611f1b565b8e80fd5b3d915061213b565b8f8e51903d90823e3d90fd5b9060409283518091636eb1769f60e11b825230600483015260018060a01b0380941693846024840152826044602095869389165afa9182156122a457600092612275575b5081106121c4575b5050505050565b612225575b916000929183809386519081019263095ea7b360e01b8452602482015281196044820152604481526121fa81611942565b51925af1612206611cad565b501561221557808080806121bd565b516340b27c2160e11b8152600490fd5b60008085518381019063095ea7b360e01b82528560248201528260448201526044815261225181611942565b519082875af161225f611cad565b506121c95783516340b27c2160e11b8152600490fd5b90918382813d831161229d575b61228c818361195d565b8101031261013557505190386121b5565b503d612282565b86513d6000823e3d90fdfea42f2cf999e26109eb49cb7eef3654cc55b677b2db805f3eab8722cc5dd1af0ce330cfee289e568e8774e923acd6e2a00f84be86aa1d02356835d33dbb93970223e06a2ed150be3aaebbce1156aecc5187e5e955ea717a17e165cca37ef8c379db79ee324babd8834c3c1a1a2739c004fce73b812ac9f637241ff47b19e4b71fa264697066735822122042867d10b0581dab105f4a85ed089baedad08b36ed1940a2e7570536382c1bf164736f6c63430008130033",
  "linkReferences": {},
  "deployedLinkReferences": {}
}