{
  "_format": "hh-sol-artifact-1",
  "contractName": "token",
  "sourceName": "contracts/token.sol",
  "abi": [
    {
      "inputs": [],
      "stateMutability": "nonpayable",
      "type": "constructor"
    },
    {
      "inputs": [
        {
          "internalType": "address",
          "name": "account",
          "type": "address"
        }
      ],
      "name": "checkbalance",
      "outputs": [
        {
          "internalType": "uint256",
          "name": "",
          "type": "uint256"
        }
      ],
      "stateMutability": "view",
      "type": "function"
    },
    {
      "inputs": [],
      "name": "name",
      "outputs": [
        {
          "internalType": "string",
          "name": "",
          "type": "string"
        }
      ],
      "stateMutability": "view",
      "type": "function"
    },
    {
      "inputs": [],
      "name": "owner",
      "outputs": [
        {
          "internalType": "address",
          "name": "",
          "type": "address"
        }
      ],
      "stateMutability": "view",
      "type": "function"
    },
    {
      "inputs": [],
      "name": "symbol",
      "outputs": [
        {
          "internalType": "string",
          "name": "",
          "type": "string"
        }
      ],
      "stateMutability": "view",
      "type": "function"
    },
    {
      "inputs": [],
      "name": "totalsupply",
      "outputs": [
        {
          "internalType": "uint256",
          "name": "",
          "type": "uint256"
        }
      ],
      "stateMutability": "view",
      "type": "function"
    },
    {
      "inputs": [
        {
          "internalType": "address",
          "name": "to",
          "type": "address"
        },
        {
          "internalType": "uint256",
          "name": "amount",
          "type": "uint256"
        }
      ],
      "name": "transfer",
      "outputs": [],
      "stateMutability": "nonpayable",
      "type": "function"
    }
  ],
  "bytecode": "0x6080604052346100ee57600061001581546100f3565b601f81116100c4575b507f666972737420746f6b656e00000000000000000000000000000000000000001681556001805461004f906100f3565b601f8111610098575b50600461119560f21b01905560406127109182600255338152600460205220553360018060a01b031960035416176003556040516104d2908161012e8239f35b81835281601f60208520920160051c8201915b8281106100b9575050610058565b8481550182906100ab565b818052601f60208320910160051c8101905b8181106100e3575061001e565b8281556001016100d6565b600080fd5b90600182811c92168015610123575b602083101461010d57565b634e487b7160e01b600052602260045260246000fd5b91607f169161010256fe6080604081815260048036101561001557600080fd5b600092833560e01c90816306fdde031461035d5750806372dd529b1461033e5780638da5cb5b1461031157806395d89b4114610212578063a9059cbb1461009d5763e83029bb1461006557600080fd5b346100995760203660031901126100995760209282916001600160a01b0361008b610481565b168252845220549051908152f35b8280fd5b50346100995781600319360112610099576100b6610481565b91602490813593338652602090848252828720549083519084820182811067ffffffffffffffff82111761020057918992918392875260118252707472616e7366657220257320746f20257360781b86830152610158875180926101318983019563038fd88960e31b875260608d8501526084840190610441565b60448301989098526001600160a01b0316606482018190529603601f198101835282610409565b51906a636f6e736f6c652e6c6f675afa503387528482528583882054106101d0573387528482528287208054908782039182116101be5790869392915587525284209182549384018094116101ad5750505580f35b634e487b7160e01b85526011905283fd5b634e487b7160e01b8952601187528589fd5b825162461bcd60e51b8152808601839052600b818601526a4c6f772062616c616e636560a81b6044820152606490fd5b634e487b7160e01b8a5260418852868afd5b50913461030e578060031936011261030e578151918160019283549384811c91818616958615610304575b60209687851081146102f1578899509688969785829a5291826000146102ca57505060011461028d575b505050610289929161027a910385610409565b51928284938452830190610441565b0390f35b91908693508083528383205b8284106102b2575050508201018161027a610289610267565b8054848a018601528895508794909301928101610299565b60ff19168782015293151560051b8601909301935084925061027a91506102899050610267565b634e487b7160e01b835260228a52602483fd5b92607f169261023d565b80fd5b50503461033a578160031936011261033a5760035490516001600160a01b039091168152602090f35b5080fd5b50503461033a578160031936011261033a576020906002549051908152f35b905083833461033a578160031936011261033a5781825492600184811c918186169586156103ff575b60209687851081146102f1578899509688969785829a5291826000146102ca5750506001146103c257505050610289929161027a910385610409565b91908693508280528383205b8284106103e7575050508201018161027a610289610267565b8054848a0186015288955087949093019281016103ce565b92607f1692610386565b90601f8019910116810190811067ffffffffffffffff82111761042b57604052565b634e487b7160e01b600052604160045260246000fd5b919082519283825260005b84811061046d575050826000602080949584010152601f8019910116010190565b60208183018101518483018201520161044c565b600435906001600160a01b038216820361049757565b600080fdfea26469706673582212205ec03c90abde3487fce158e75e2471ba5402310fd3f044e9f50119b0f7efe52964736f6c63430008130033",
  "linkReferences": {},
  "deployedLinkReferences": {}
}