{
  "_format": "hh-sol-artifact-1",
  "contractName": "AxelarForecallable",
  "sourceName": "contracts/AxelarForecallable.sol",
  "abi": [
    {
      "inputs": [
        {
          "internalType": "address",
          "name": "gateway_",
          "type": "address"
        }
      ],
      "stateMutability": "nonpayable",
      "type": "constructor"
    },
    {
      "inputs": [],
      "name": "AlreadyForecalled",
      "type": "error"
    },
    {
      "inputs": [],
      "name": "InvalidAddress",
      "type": "error"
    },
    {
      "inputs": [],
      "name": "NotApprovedByGateway",
      "type": "error"
    },
    {
      "inputs": [],
      "name": "TransferFailed",
      "type": "error"
    },
    {
      "inputs": [],
      "name": "FORECALLERS_SALT",
      "outputs": [
        {
          "internalType": "uint256",
          "name": "",
          "type": "uint256"
        }
      ],
      "stateMutability": "view",
      "type": "function"
    },
    {
      "inputs": [
        {
          "internalType": "uint256",
          "name": "amount",
          "type": "uint256"
        },
        {
          "internalType": "bytes",
          "name": "",
          "type": "bytes"
        }
      ],
      "name": "amountPostFee",
      "outputs": [
        {
          "internalType": "uint256",
          "name": "",
          "type": "uint256"
        }
      ],
      "stateMutability": "nonpayable",
      "type": "function"
    },
    {
      "inputs": [
        {
          "internalType": "bytes32",
          "name": "commandId",
          "type": "bytes32"
        },
        {
          "internalType": "string",
          "name": "sourceChain",
          "type": "string"
        },
        {
          "internalType": "string",
          "name": "sourceAddress",
          "type": "string"
        },
        {
          "internalType": "bytes",
          "name": "payload",
          "type": "bytes"
        }
      ],
      "name": "execute",
      "outputs": [],
      "stateMutability": "nonpayable",
      "type": "function"
    },
    {
      "inputs": [
        {
          "internalType": "bytes32",
          "name": "commandId",
          "type": "bytes32"
        },
        {
          "internalType": "string",
          "name": "sourceChain",
          "type": "string"
        },
        {
          "internalType": "string",
          "name": "sourceAddress",
          "type": "string"
        },
        {
          "internalType": "bytes",
          "name": "payload",
          "type": "bytes"
        },
        {
          "internalType": "string",
          "name": "tokenSymbol",
          "type": "string"
        },
        {
          "internalType": "uint256",
          "name": "amount",
          "type": "uint256"
        }
      ],
      "name": "executeWithToken",
      "outputs": [],
      "stateMutability": "nonpayable",
      "type": "function"
    },
    {
      "inputs": [
        {
          "internalType": "string",
          "name": "sourceChain",
          "type": "string"
        },
        {
          "internalType": "string",
          "name": "sourceAddress",
          "type": "string"
        },
        {
          "internalType": "bytes",
          "name": "payload",
          "type": "bytes"
        }
      ],
      "name": "forecall",
      "outputs": [],
      "stateMutability": "nonpayable",
      "type": "function"
    },
    {
      "inputs": [
        {
          "internalType": "string",
          "name": "sourceChain",
          "type": "string"
        },
        {
          "internalType": "string",
          "name": "sourceAddress",
          "type": "string"
        },
        {
          "internalType": "bytes",
          "name": "payload",
          "type": "bytes"
        },
        {
          "internalType": "string",
          "name": "tokenSymbol",
          "type": "string"
        },
        {
          "internalType": "uint256",
          "name": "amount",
          "type": "uint256"
        }
      ],
      "name": "forecallWithToken",
      "outputs": [],
      "stateMutability": "nonpayable",
      "type": "function"
    },
    {
      "inputs": [],
      "name": "gateway",
      "outputs": [
        {
          "internalType": "contract IAxelarGateway",
          "name": "",
          "type": "address"
        }
      ],
      "stateMutability": "view",
      "type": "function"
    },
    {
      "inputs": [
        {
          "internalType": "string",
          "name": "sourceChain",
          "type": "string"
        },
        {
          "internalType": "string",
          "name": "sourceAddress",
          "type": "string"
        },
        {
          "internalType": "bytes",
          "name": "payload",
          "type": "bytes"
        }
      ],
      "name": "getForecaller",
      "outputs": [
        {
          "internalType": "address",
          "name": "forecaller",
          "type": "address"
        }
      ],
      "stateMutability": "view",
      "type": "function"
    },
    {
      "inputs": [
        {
          "internalType": "string",
          "name": "sourceChain",
          "type": "string"
        },
        {
          "internalType": "string",
          "name": "sourceAddress",
          "type": "string"
        },
        {
          "internalType": "bytes",
          "name": "payload",
          "type": "bytes"
        },
        {
          "internalType": "string",
          "name": "symbol",
          "type": "string"
        },
        {
          "internalType": "uint256",
          "name": "amount",
          "type": "uint256"
        }
      ],
      "name": "getForecallerWithToken",
      "outputs": [
        {
          "internalType": "address",
          "name": "forecaller",
          "type": "address"
        }
      ],
      "stateMutability": "view",
      "type": "function"
    }
  ],
  "bytecode": "0x60a03461009957601f610c8038819003918201601f19168301916001600160401b0383118484101761009e5780849260209460405283398101031261009957516001600160a01b0381169081900361009957801561008757608052604051610bcb90816100b5823960805181818161010e015281816103b8015281816105e501526107e90152f35b60405163e6c4247b60e01b8152600490fd5b600080fd5b634e487b7160e01b600052604160045260246000fdfe6040608081526004908136101561001557600080fd5b600091823560e01c90816309cc027b146108415781630d38218a14610818578163116191b6146107d45781631a98b2e0146104d15781633ca2fd8e1461049057816349160658146102e9578163d02244341461029d578163e888e86c146100bb575063facd28a91461008657600080fd5b346100b7576020906100a661009a3661091c565b94939093929192610a2a565b90516001600160a01b039091168152f35b5080fd5b91905034610299576100cc36610898565b96979890959981959295949394516349ad89fb60e11b81526020828201528c816100fa602482018b8b610981565b6001600160a01b03939160209183919003817f000000000000000000000000000000000000000000000000000000000000000087165afa91821561028e579161025f575b5083516323b872dd60e01b602082015233602482015230604482015260648082018c9052815260a081016001600160401b0381118282101761024b578f918291875260208151910182855af1610192610b45565b8161021c575b5015908115610212575b50610203576101bb8989898f8f8f8c928b918d93610b05565b166101f55750916101de9593916101ec98979593519a8b9860208a019b8c610ab7565b03601f1981018452836109f3565b33915190205580f35b905163035b7d5560e41b8152fd5b5090516312171d8360e31b8152fd5b90503b15386101a2565b8051801592508215610231575b505038610198565b6102449250602080918301019101610a9f565b3880610229565b50634e487b7160e01b8f526041845260248ffd5b610281915060203d602011610287575b61027981836109f3565b810190610b26565b3861013e565b503d61026f565b8551903d90823e3d90fd5b8280fd5b91905034610299576102ae3661091c565b93949590929660018060a01b036102c98686868c8b8d610a2a565b166101f55750916101ec9493916101de93519788956020870198896109a2565b8383346100b757600319608036820112610299576001600160401b039060243582811161048c5761031d9036908701610866565b9093604435848111610488576103369036908901610866565b939094606435908111610484576103509036908a01610866565b9161035c368484610a68565b60208151910120906103a0855191635f6970c360e01b83528c358d8401526080602484015261038f60848401898d610981565b90838203016044840152888a610981565b9160648201526020818060018060a01b039403818d867f0000000000000000000000000000000000000000000000000000000000000000165af190811561047a578a9161044c575b501561043c578899506103ff8383888a898d610a2a565b16156104315761042a9461041c935196879560208701998a6109a2565b03601f1981018352826109f3565b5190205580f35b505050505050505080f35b8351631403112d60e21b81528a90fd5b61046d915060203d8111610473575b61046581836109f3565b810190610a9f565b8b6103e8565b503d61045b565b85513d8c823e3d90fd5b8780fd5b8680fd5b8480fd5b91905034610299578060031936011261029957602435926001600160401b0384116104ce57506104c560209336908401610866565b50505190358152f35b80fd5b919050346102995760c0366003190112610299576001600160401b0360243581811161048c576105049036908501610866565b91856044358281116100b75761051d9036908801610866565b92906064358281116107d0576105369036908a01610866565b969095608435908482116107cc578a916105539036908401610866565b9390993661056290828c610a68565b998b8d8c516020809e0120905196631876eed960e01b88528035908801526024870160c0905260c48701610597908688610981565b8781036003190160448901526105ae908d8b610981565b906064880152876003198883030160848901526105ca92610981565b9460a435998a60a4830152600160a01b60019003918d8180857f0000000000000000000000000000000000000000000000000000000000000000169a0381858c5af19182156107bf57916107a2575b501561079257908f949392916106388b8f8a908f8688918f8b8d610b05565b169a8b1561077f578a8f8f8f9b958c9561041c9561065f988e95519a8b998a019c8d610ab7565b51902055828a6106888b519a8b95869485946349ad89fb60e11b86528501526024840191610981565b03915afa948515610775578895610756575b508551918483019363a9059cbb60e01b8552602484015260448301526044825260808201908282109082111761074357855251869182919082865af1906106df610b45565b82610711575b505015908115610707575b506106fa57505080f35b516312171d8360e31b8152fd5b90503b15386106f0565b809192505191821592831561072b575b50505038806106e5565b61073b9350820181019101610a9f565b388080610721565b634e487b7160e01b885260418752602488fd5b61076e919550843d86116102875761027981836109f3565b933861069a565b86513d8a823e3d90fd5b5050505050505050505050505050505080f35b8d51631403112d60e21b81528f90fd5b6107b991508d803d106104735761046581836109f3565b38610619565b90508f51903d90823e3d90fd5b8580fd5b8380fd5b5050346100b757816003193601126100b757517f00000000000000000000000000000000000000000000000000000000000000006001600160a01b03168152602090f35b5050346100b757816003193601126100b75760209051600080516020610b768339815191528152f35b5050346100b7576020906100a661085736610898565b97969096959195949294610b05565b9181601f84011215610893578235916001600160401b038311610893576020838186019501011161089357565b600080fd5b60a0600319820112610893576001600160401b039060043582811161089357816108c491600401610866565b9390939260243581811161089357836108df91600401610866565b9390939260443583811161089357826108fa91600401610866565b939093926064359182116108935761091491600401610866565b909160843590565b906060600319830112610893576001600160401b03600435818111610893578361094891600401610866565b93909392602435838111610893578261096391600401610866565b939093926044359182116108935761097d91600401610866565b9091565b908060209392818452848401376000828201840152601f01601f1916010190565b9695906109ee936060956109d26109e093600080516020610b76833981519152999660808d5260808d0191610981565b918a830360208c0152610981565b918783036040890152610981565b930152565b90601f801991011681019081106001600160401b03821117610a1457604052565b634e487b7160e01b600052604160045260246000fd5b9461041c919294610a469460405196879560208701998a6109a2565b5190205490565b6001600160401b038111610a1457601f01601f191660200190565b929192610a7482610a4d565b91610a8260405193846109f3565b829481845281830111610893578281602093846000960137010152565b90816020910312610893575180151581036108935790565b956109e0600080516020610b76833981519152999460a099966109d2610afb99959d9e9d610aed9760c08d5260c08d0191610981565b918483036060860152610981565b9460808201520152565b97929461041c94610a46979296989398604051998a9860208a019c8d610ab7565b9081602091031261089357516001600160a01b03811681036108935790565b3d15610b70573d90610b5682610a4d565b91610b6460405193846109f3565b82523d6000602084013e565b60609056fedb79ee324babd8834c3c1a1a2739c004fce73b812ac9f637241ff47b19e4b71fa264697066735822122024a4c80ed1a6540a3804c0adf609e686441c07e5b5223b1b4fe7c97addb6d89464736f6c63430008130033",
  "linkReferences": {},
  "deployedLinkReferences": {}
}